{
  "transactions": [
    {
      "hash": "0xa06c0ea9b198f8838137111ea8457090bb20232eba9d5236838957aab7d24cf8",
      "transactionType": "CALL",
      "contractName": null,
      "contractAddress": "0xb5294a791c37dfdc2228faced7dce8efceb14b84",
      "function": "grantRole(bytes32,address)",
      "arguments": [
        "0x0000000000000000000000000000000000000000000000000000000000000000",
        "0x220d1165798AC86BD70D987aDfc9E5FF8A317363"
      ],
      "transaction": {
        "from": "0x7cbb7be250c366ab5458260c9ee8bc7912cd7fe3",
        "to": "0xb5294a791c37dfdc2228faced7dce8efceb14b84",
        "gas": "0x23c23",
        "value": "0x0",
        "input": "0x2f2ff15d0000000000000000000000000000000000000000000000000000000000000000000000000000000000000000220d1165798ac86bd70d987adfc9e5ff8a317363",
        "nonce": "0x1e",
        "chainId": "0x1"
      },
      "additionalContracts": [],
      "isFixedGasLimit": false
    },
    {
      "hash": "0x4bab71b4d9d4159f5d841ae4615715b2259e06922bf7ffd3b4e5bf348cc5834b",
      "transactionType": "CALL",
      "contractName": null,
      "contractAddress": "0xb5294a791c37dfdc2228faced7dce8efceb14b84",
      "function": "grantRole(bytes32,address)",
      "arguments": [
        "0xd1473398bb66596de5d1ea1fc8e303ff2ac23265adc9144b1b52065dc4f0934b",
        "0xcDB5eC52Cc326711461f93909d767E31fCfF7A1e"
      ],
      "transaction": {
        "from": "0x7cbb7be250c366ab5458260c9ee8bc7912cd7fe3",
        "to": "0xb5294a791c37dfdc2228faced7dce8efceb14b84",
        "gas": "0x23e35",
        "value": "0x0",
        "input": "0x2f2ff15dd1473398bb66596de5d1ea1fc8e303ff2ac23265adc9144b1b52065dc4f0934b000000000000000000000000cdb5ec52cc326711461f93909d767e31fcff7a1e",
        "nonce": "0x1f",
        "chainId": "0x1"
      },
      "additionalContracts": [],
      "isFixedGasLimit": false
    },
    {
      "hash": "0xf455f93f25d6a299c5627561e44e78a31462c3340f5f5d4914d5631cc97b63ba",
      "transactionType": "CALL",
      "contractName": null,
      "contractAddress": "0xb5294a791c37dfdc2228faced7dce8efceb14b84",
      "function": "grantRole(bytes32,address)",
      "arguments": [
        "0x55435dd261a4b9b3364963f7738a7a662ad9c84396d64be3365284bb7f0a5041",
        "0x8CCC19FBf3AB778D27947B01Ba66C113559E2e9F"
      ],
      "transaction": {
        "from": "0x7cbb7be250c366ab5458260c9ee8bc7912cd7fe3",
        "to": "0xb5294a791c37dfdc2228faced7dce8efceb14b84",
        "gas": "0x23e35",
        "value": "0x0",
        "input": "0x2f2ff15d55435dd261a4b9b3364963f7738a7a662ad9c84396d64be3365284bb7f0a50410000000000000000000000008ccc19fbf3ab778d27947b01ba66c113559e2e9f",
        "nonce": "0x20",
        "chainId": "0x1"
      },
      "additionalContracts": [],
      "isFixedGasLimit": false
    },
    {
      "hash": "0xd6864f017861416db2e8c9f5a40a01c719097e0ba30dc6e2575cfdae884ac5ef",
      "transactionType": "CALL",
      "contractName": null,
      "contractAddress": "0xb5294a791c37dfdc2228faced7dce8efceb14b84",
      "function": "grantRole(bytes32,address)",
      "arguments": [
        "0x55435dd261a4b9b3364963f7738a7a662ad9c84396d64be3365284bb7f0a5041",
        "0xfB2401825B89fd36B9DE3a4E53C48Aa6485509c2"
      ],
      "transaction": {
        "from": "0x7cbb7be250c366ab5458260c9ee8bc7912cd7fe3",
        "to": "0xb5294a791c37dfdc2228faced7dce8efceb14b84",
        "gas": "0x23e35",
        "value": "0x0",
        "input": "0x2f2ff15d55435dd261a4b9b3364963f7738a7a662ad9c84396d64be3365284bb7f0a5041000000000000000000000000fb2401825b89fd36b9de3a4e53c48aa6485509c2",
        "nonce": "0x21",
        "chainId": "0x1"
      },
      "additionalContracts": [],
      "isFixedGasLimit": false
    },
    {
      "hash": "0x53d94014a23ff546189a1cae5f0c3a28c65541e62a560194e2cae1bbdac1ff15",
      "transactionType": "CALL",
      "contractName": null,
      "contractAddress": "0xb5294a791c37dfdc2228faced7dce8efceb14b84",
      "function": "grantRole(bytes32,address)",
      "arguments": [
        "0x55435dd261a4b9b3364963f7738a7a662ad9c84396d64be3365284bb7f0a5041",
        "0x28fDD01b10ba3Ba489BccC7F9882A5adD4870858"
      ],
      "transaction": {
        "from": "0x7cbb7be250c366ab5458260c9ee8bc7912cd7fe3",
        "to": "0xb5294a791c37dfdc2228faced7dce8efceb14b84",
        "gas": "0x23e35",
        "value": "0x0",
        "input": "0x2f2ff15d55435dd261a4b9b3364963f7738a7a662ad9c84396d64be3365284bb7f0a504100000000000000000000000028fdd01b10ba3ba489bccc7f9882a5add4870858",
        "nonce": "0x22",
        "chainId": "0x1"
      },
      "additionalContracts": [],
      "isFixedGasLimit": false
    },
    {
      "hash": "0xcbe9b8895b220c0d223ef1cf4348f935c3013a4486b03c3f2d890cf0249d0d0f",
      "transactionType": "CALL",
      "contractName": null,
      "contractAddress": "0xb5294a791c37dfdc2228faced7dce8efceb14b84",
      "function": "grantRole(bytes32,address)",
      "arguments": [
        "0x55435dd261a4b9b3364963f7738a7a662ad9c84396d64be3365284bb7f0a5041",
        "0x7b7Fc289D5a71b58fe320f005bc506873AadCc26"
      ],
      "transaction": {
        "from": "0x7cbb7be250c366ab5458260c9ee8bc7912cd7fe3",
        "to": "0xb5294a791c37dfdc2228faced7dce8efceb14b84",
        "gas": "0x23e24",
        "value": "0x0",
        "input": "0x2f2ff15d55435dd261a4b9b3364963f7738a7a662ad9c84396d64be3365284bb7f0a50410000000000000000000000007b7fc289d5a71b58fe320f005bc506873aadcc26",
        "nonce": "0x23",
        "chainId": "0x1"
      },
      "additionalContracts": [],
      "isFixedGasLimit": false
    },
    {
      "hash": "0x23caec5ab43b3ec36ede1bb213b358ec5a387a760c0358df5649d10f929849ef",
      "transactionType": "CALL",
      "contractName": null,
      "contractAddress": "0xb5294a791c37dfdc2228faced7dce8efceb14b84",
      "function": "grantRole(bytes32,address)",
      "arguments": [
        "0x55435dd261a4b9b3364963f7738a7a662ad9c84396d64be3365284bb7f0a5041",
        "0x76fd1fDf1Ea32b0B14E180eD8669673F1F16047c"
      ],
      "transaction": {
        "from": "0x7cbb7be250c366ab5458260c9ee8bc7912cd7fe3",
        "to": "0xb5294a791c37dfdc2228faced7dce8efceb14b84",
        "gas": "0x23e35",
        "value": "0x0",
        "input": "0x2f2ff15d55435dd261a4b9b3364963f7738a7a662ad9c84396d64be3365284bb7f0a504100000000000000000000000076fd1fdf1ea32b0b14e180ed8669673f1f16047c",
        "nonce": "0x24",
        "chainId": "0x1"
      },
      "additionalContracts": [],
      "isFixedGasLimit": false
    },
    {
      "hash": "0x3ae57ef3d2849d9bdd23b2b4482182649b295c1ecb5188b65825c9de2e239c1e",
      "transactionType": "CALL",
      "contractName": null,
      "contractAddress": "0xb5294a791c37dfdc2228faced7dce8efceb14b84",
      "function": "grantRole(bytes32,address)",
      "arguments": [
        "0x17a8e30262c1f919c33056d877a3c22b95c2f5e4dac44683c1c2323cd79fbdb0",
        "0xDd9E73e814558d562ED5B1444B4913CCC9b9BF36"
      ],
      "transaction": {
        "from": "0x7cbb7be250c366ab5458260c9ee8bc7912cd7fe3",
        "to": "0xb5294a791c37dfdc2228faced7dce8efceb14b84",
        "gas": "0x23e35",
        "value": "0x0",
        "input": "0x2f2ff15d17a8e30262c1f919c33056d877a3c22b95c2f5e4dac44683c1c2323cd79fbdb0000000000000000000000000dd9e73e814558d562ed5b1444b4913ccc9b9bf36",
        "nonce": "0x25",
        "chainId": "0x1"
      },
      "additionalContracts": [],
      "isFixedGasLimit": false
    },
    {
      "hash": "0x0faa0a8684876037c7227d643fd917d89c490e7e13cb9afc142c83be9a1cfe1c",
      "transactionType": "CALL",
      "contractName": null,
      "contractAddress": "0xb5294a791c37dfdc2228faced7dce8efceb14b84",
      "function": "grantRole(bytes32,address)",
      "arguments": [
        "0x17a8e30262c1f919c33056d877a3c22b95c2f5e4dac44683c1c2323cd79fbdb0",
        "0x2A03A6075835447C7CC107D8F48558769079BA6D"
      ],
      "transaction": {
        "from": "0x7cbb7be250c366ab5458260c9ee8bc7912cd7fe3",
        "to": "0xb5294a791c37dfdc2228faced7dce8efceb14b84",
        "gas": "0x23e35",
        "value": "0x0",
        "input": "0x2f2ff15d17a8e30262c1f919c33056d877a3c22b95c2f5e4dac44683c1c2323cd79fbdb00000000000000000000000002a03a6075835447c7cc107d8f48558769079ba6d",
        "nonce": "0x26",
        "chainId": "0x1"
      },
      "additionalContracts": [],
      "isFixedGasLimit": false
    },
    {
      "hash": "0x0b624a29afe92c45f00a06fdbef9dd1806fe282f81e4770f048ea47094c28b21",
      "transactionType": "CALL",
      "contractName": null,
      "contractAddress": "0xb5294a791c37dfdc2228faced7dce8efceb14b84",
      "function": "revokeRole(bytes32,address)",
      "arguments": [
        "0x0000000000000000000000000000000000000000000000000000000000000000",
        "0x7cBb7bE250C366Ab5458260c9ee8bc7912CD7Fe3"
      ],
      "transaction": {
        "from": "0x7cbb7be250c366ab5458260c9ee8bc7912cd7fe3",
        "to": "0xb5294a791c37dfdc2228faced7dce8efceb14b84",
        "gas": "0x121e9",
        "value": "0x0",
        "input": "0xd547741f00000000000000000000000000000000000000000000000000000000000000000000000000000000000000007cbb7be250c366ab5458260c9ee8bc7912cd7fe3",
        "nonce": "0x27",
        "chainId": "0x1"
      },
      "additionalContracts": [],
      "isFixedGasLimit": false
    }
  ],
  "receipts": [
    {
      "status": "0x1",
      "cumulativeGasUsed": "0x139eaf5",
      "logs": [
        {
          "address": "0xb5294a791c37dfdc2228faced7dce8efceb14b84",
          "topics": [
            "0x2f8788117e7eff1d82e926ec794901d17c78024a50270940304540a733656f0d",
            "0x0000000000000000000000000000000000000000000000000000000000000000",
            "0x000000000000000000000000220d1165798ac86bd70d987adfc9e5ff8a317363",
            "0x0000000000000000000000007cbb7be250c366ab5458260c9ee8bc7912cd7fe3"
          ],
          "data": "0x",
          "blockHash": "0x04701583918308115d75ae3e266cf40ad791aecaef4cc158b1bd9e096be916ee",
          "blockNumber": "0x163d5d6",
          "blockTimestamp": "0x68bf19ab",
          "transactionHash": "0xa06c0ea9b198f8838137111ea8457090bb20232eba9d5236838957aab7d24cf8",
          "transactionIndex": "0xe4",
          "logIndex": "0x1dc",
          "removed": false
        }
      ],
      "logsBloom": "0x00000004000010000004000000000000000000000000000000000000000000000100000000000000000000000000000000000000000000000000000000000000000000000000000000000000000000000000000000000000000000000000000000000000020000000000000000000800000000000000000000400000000000000000000000000000040000000000080000000000000000000000000000000000000000080000000000000000000000000000000000000000001000000000000000000000000000000000000000000000000000000004000100000000800020000000000000000000000000000000000000000000000000000000000000000000",
      "type": "0x2",
      "transactionHash": "0xa06c0ea9b198f8838137111ea8457090bb20232eba9d5236838957aab7d24cf8",
      "transactionIndex": "0xe4",
      "blockHash": "0x04701583918308115d75ae3e266cf40ad791aecaef4cc158b1bd9e096be916ee",
      "blockNumber": "0x163d5d6",
      "gasUsed": "0x19e38",
      "effectiveGasPrice": "0x2968e637",
      "from": "0x7cbb7be250c366ab5458260c9ee8bc7912cd7fe3",
      "to": "0xb5294a791c37dfdc2228faced7dce8efceb14b84",
      "contractAddress": null
    },
    {
      "status": "0x1",
      "cumulativeGasUsed": "0xe92a85",
      "logs": [
        {
          "address": "0xb5294a791c37dfdc2228faced7dce8efceb14b84",
          "topics": [
            "0x2f8788117e7eff1d82e926ec794901d17c78024a50270940304540a733656f0d",
            "0xd1473398bb66596de5d1ea1fc8e303ff2ac23265adc9144b1b52065dc4f0934b",
            "0x000000000000000000000000cdb5ec52cc326711461f93909d767e31fcff7a1e",
            "0x0000000000000000000000007cbb7be250c366ab5458260c9ee8bc7912cd7fe3"
          ],
          "data": "0x",
          "blockHash": "0x4b0ca06fa49376309932587c5bed1d5580712615d5f5851949474758678ac9a3",
          "blockNumber": "0x163d5d7",
          "blockTimestamp": "0x68bf19b7",
          "transactionHash": "0x4bab71b4d9d4159f5d841ae4615715b2259e06922bf7ffd3b4e5bf348cc5834b",
          "transactionIndex": "0xc7",
          "logIndex": "0x144",
          "removed": false
        }
      ],
      "logsBloom": "0x00000004000000000004000000000000000000000000000000000000000004000100000000000000000000000000000000000000000000000010000000000000000000000000000000000000000000000000000000000000000000000000000000000000000000000000000000000000000000000000000000000000000000000000000000000000040000000000080000000000000000000000000000000000000000080000000000000000800000000000000000000000001000000000000000000000000000000000000000000000000000000004000100000000000000000000000000000000000000000000000000000400200000000004000000000000",
      "type": "0x2",
      "transactionHash": "0x4bab71b4d9d4159f5d841ae4615715b2259e06922bf7ffd3b4e5bf348cc5834b",
      "transactionIndex": "0xc7",
      "blockHash": "0x4b0ca06fa49376309932587c5bed1d5580712615d5f5851949474758678ac9a3",
      "blockNumber": "0x163d5d7",
      "gasUsed": "0x19fb8",
      "effectiveGasPrice": "0x2dfe135e",
      "from": "0x7cbb7be250c366ab5458260c9ee8bc7912cd7fe3",
      "to": "0xb5294a791c37dfdc2228faced7dce8efceb14b84",
      "contractAddress": null
    },
    {
      "status": "0x1",
      "cumulativeGasUsed": "0x1722bfb",
      "logs": [
        {
          "address": "0xb5294a791c37dfdc2228faced7dce8efceb14b84",
          "topics": [
            "0x2f8788117e7eff1d82e926ec794901d17c78024a50270940304540a733656f0d",
            "0x55435dd261a4b9b3364963f7738a7a662ad9c84396d64be3365284bb7f0a5041",
            "0x0000000000000000000000008ccc19fbf3ab778d27947b01ba66c113559e2e9f",
            "0x0000000000000000000000007cbb7be250c366ab5458260c9ee8bc7912cd7fe3"
          ],
          "data": "0x",
          "blockHash": "0x2a3a74e0ab50f3c031c705283a2542ead4de35268453f24aa16acbec0bf6e88e",
          "blockNumber": "0x163d5d8",
          "blockTimestamp": "0x68bf19c3",
          "transactionHash": "0xf455f93f25d6a299c5627561e44e78a31462c3340f5f5d4914d5631cc97b63ba",
          "transactionIndex": "0x9a",
          "logIndex": "0xb64",
          "removed": false
        }
      ],
      "logsBloom": "0x00000004000000000004000000000000000000000000000000000000000000000100000000000000000000000000000000000000000000000000000000000000000000000000000000000000000000000000000000000000000000000000000000000000000000000000000004000000000000000000000000000000000000000000000000000000040000000000080000000000000000000000000000004000000000080000000000000000000000000000000000000000001000000010000000000000020000000000000000000200000000000004000100000000000000000000000000000000000000000000000000000000000000000000000000040000",
      "type": "0x2",
      "transactionHash": "0xf455f93f25d6a299c5627561e44e78a31462c3340f5f5d4914d5631cc97b63ba",
      "transactionIndex": "0x9a",
      "blockHash": "0x2a3a74e0ab50f3c031c705283a2542ead4de35268453f24aa16acbec0bf6e88e",
      "blockNumber": "0x163d5d8",
      "gasUsed": "0x19fb8",
      "effectiveGasPrice": "0x2dc220d4",
      "from": "0x7cbb7be250c366ab5458260c9ee8bc7912cd7fe3",
      "to": "0xb5294a791c37dfdc2228faced7dce8efceb14b84",
      "contractAddress": null
    },
    {
      "status": "0x1",
      "cumulativeGasUsed": "0x109c6b5",
      "logs": [
        {
          "address": "0xb5294a791c37dfdc2228faced7dce8efceb14b84",
          "topics": [
            "0x2f8788117e7eff1d82e926ec794901d17c78024a50270940304540a733656f0d",
            "0x55435dd261a4b9b3364963f7738a7a662ad9c84396d64be3365284bb7f0a5041",
            "0x000000000000000000000000fb2401825b89fd36b9de3a4e53c48aa6485509c2",
            "0x0000000000000000000000007cbb7be250c366ab5458260c9ee8bc7912cd7fe3"
          ],
          "data": "0x",
          "blockHash": "0xf19691783f9f748d7c38488b21a6b0515b91405d80b2e8b104e7ba0d951752db",
          "blockNumber": "0x163d5d9",
          "blockTimestamp": "0x68bf19cf",
          "transactionHash": "0xd6864f017861416db2e8c9f5a40a01c719097e0ba30dc6e2575cfdae884ac5ef",
          "transactionIndex": "0xdc",
          "logIndex": "0x1da",
          "removed": false
        }
      ],
      "logsBloom": "0x00000004000000000004000000000000000000000000000000000000000000000100000000000000000000000000000000000000000000000000000000000000000000000000000000100000000000000000000000000000000000000000000000000000000000000000000000000000000000000000000000000000000000000000000000000000040000000000080000000000000000000000000000004000000000080000000000000000000000000000000000800000001000000000000000000000020000000000000000000000000000000004000100000000000000000000000000000000000000000000000000000000000020000000000000040000",
      "type": "0x2",
      "transactionHash": "0xd6864f017861416db2e8c9f5a40a01c719097e0ba30dc6e2575cfdae884ac5ef",
      "transactionIndex": "0xdc",
      "blockHash": "0xf19691783f9f748d7c38488b21a6b0515b91405d80b2e8b104e7ba0d951752db",
      "blockNumber": "0x163d5d9",
      "gasUsed": "0x19fb8",
      "effectiveGasPrice": "0x2f30d8ea",
      "from": "0x7cbb7be250c366ab5458260c9ee8bc7912cd7fe3",
      "to": "0xb5294a791c37dfdc2228faced7dce8efceb14b84",
      "contractAddress": null
    },
    {
      "status": "0x1",
      "cumulativeGasUsed": "0xb7e3e6",
      "logs": [
        {
          "address": "0xb5294a791c37dfdc2228faced7dce8efceb14b84",
          "topics": [
            "0x2f8788117e7eff1d82e926ec794901d17c78024a50270940304540a733656f0d",
            "0x55435dd261a4b9b3364963f7738a7a662ad9c84396d64be3365284bb7f0a5041",
            "0x00000000000000000000000028fdd01b10ba3ba489bccc7f9882a5add4870858",
            "0x0000000000000000000000007cbb7be250c366ab5458260c9ee8bc7912cd7fe3"
          ],
          "data": "0x",
          "blockHash": "0xb4d7ac5cb16e262fdb80d41dc72f8a76a2af7739363bdeb118fd1e5bf25696b0",
          "blockNumber": "0x163d5da",
          "blockTimestamp": "0x68bf19db",
          "transactionHash": "0x53d94014a23ff546189a1cae5f0c3a28c65541e62a560194e2cae1bbdac1ff15",
          "transactionIndex": "0x96",
          "logIndex": "0x11c",
          "removed": false
        }
      ],
      "logsBloom": "0x00000004000000000004000000000000000000000000000000000080000000000100000000000000000000020000000000000000000000000000000000000000000000000000000000000000000000000000200000000000000000000000000000000000000000000000000000000000000000000000000000000000000000000000000000000000040000000000080000000000000000000000000000004000000000080000000000000000000000000000000000000000001000000000000000000000020000000000000000000000000000000004000100000000000000000000000000000000000000000000000000000000000000000000000000040000",
      "type": "0x2",
      "transactionHash": "0x53d94014a23ff546189a1cae5f0c3a28c65541e62a560194e2cae1bbdac1ff15",
      "transactionIndex": "0x96",
      "blockHash": "0xb4d7ac5cb16e262fdb80d41dc72f8a76a2af7739363bdeb118fd1e5bf25696b0",
      "blockNumber": "0x163d5da",
      "gasUsed": "0x19fb8",
      "effectiveGasPrice": "0x2ec552dc",
      "from": "0x7cbb7be250c366ab5458260c9ee8bc7912cd7fe3",
      "to": "0xb5294a791c37dfdc2228faced7dce8efceb14b84",
      "contractAddress": null
    },
    {
      "status": "0x1",
      "cumulativeGasUsed": "0x174fdf0",
      "logs": [
        {
          "address": "0xb5294a791c37dfdc2228faced7dce8efceb14b84",
          "topics": [
            "0x2f8788117e7eff1d82e926ec794901d17c78024a50270940304540a733656f0d",
            "0x55435dd261a4b9b3364963f7738a7a662ad9c84396d64be3365284bb7f0a5041",
            "0x0000000000000000000000007b7fc289d5a71b58fe320f005bc506873aadcc26",
            "0x0000000000000000000000007cbb7be250c366ab5458260c9ee8bc7912cd7fe3"
          ],
          "data": "0x",
          "blockHash": "0x7ab98c6e884b0cecb485fb85de2b1629d6f0f6a6eafcad35d9168442f67479b3",
          "blockNumber": "0x163d5db",
          "blockTimestamp": "0x68bf19e7",
          "transactionHash": "0xcbe9b8895b220c0d223ef1cf4348f935c3013a4486b03c3f2d890cf0249d0d0f",
          "transactionIndex": "0xe7",
          "logIndex": "0x959",
          "removed": false
        }
      ],
      "logsBloom": "0x00000004000000000004000000000000002000000000000000000000000000000120000000000000000000000000000000000000000000000000000000000000000000000000000000000000000000000000000000000000000000000000000000000000000000000000000000000000000000000000000000000000000000000000000000000000040000000000080000000000000080000000000000004000000000080000000000000000000000000000000000000000001000000000000000000000020000000000000000000000000000000004000100000000000000000000000000000000000000000000000000000000000000000000000000040000",
      "type": "0x2",
      "transactionHash": "0xcbe9b8895b220c0d223ef1cf4348f935c3013a4486b03c3f2d890cf0249d0d0f",
      "transactionIndex": "0xe7",
      "blockHash": "0x7ab98c6e884b0cecb485fb85de2b1629d6f0f6a6eafcad35d9168442f67479b3",
      "blockNumber": "0x163d5db",
      "gasUsed": "0x19fac",
      "effectiveGasPrice": "0x2d85e211",
      "from": "0x7cbb7be250c366ab5458260c9ee8bc7912cd7fe3",
      "to": "0xb5294a791c37dfdc2228faced7dce8efceb14b84",
      "contractAddress": null
    },
    {
      "status": "0x1",
      "cumulativeGasUsed": "0xb8f812",
      "logs": [
        {
          "address": "0xb5294a791c37dfdc2228faced7dce8efceb14b84",
          "topics": [
            "0x2f8788117e7eff1d82e926ec794901d17c78024a50270940304540a733656f0d",
            "0x55435dd261a4b9b3364963f7738a7a662ad9c84396d64be3365284bb7f0a5041",
            "0x00000000000000000000000076fd1fdf1ea32b0b14e180ed8669673f1f16047c",
            "0x0000000000000000000000007cbb7be250c366ab5458260c9ee8bc7912cd7fe3"
          ],
          "data": "0x",
          "blockHash": "0xd7b2da724191b97022d673fa7a64ebbe31216dca3a10ae835eaa36ab31ff5ca1",
          "blockNumber": "0x163d5dc",
          "blockTimestamp": "0x68bf19f3",
          "transactionHash": "0x23caec5ab43b3ec36ede1bb213b358ec5a387a760c0358df5649d10f929849ef",
          "transactionIndex": "0x9f",
          "logIndex": "0xdf",
          "removed": false
        }
      ],
      "logsBloom": "0x00000004000000000004000000000000000000000000000000000000000000000100000000000000000000000000000000000000000000010000000000000000000000000000000000000000000000000000000000000000000000000000000000000000000000000000000000000000000000000000000000000000000000000000000000000000040000000000080000000000000000000000000000004000000000080000000000000000000000000000000000000000001000000000000000000000020000000001000000000000000000000004000100000000000000000000000000000000000000000000000000000000000000000000000000040000",
      "type": "0x2",
      "transactionHash": "0x23caec5ab43b3ec36ede1bb213b358ec5a387a760c0358df5649d10f929849ef",
      "transactionIndex": "0x9f",
      "blockHash": "0xd7b2da724191b97022d673fa7a64ebbe31216dca3a10ae835eaa36ab31ff5ca1",
      "blockNumber": "0x163d5dc",
      "gasUsed": "0x19fb8",
      "effectiveGasPrice": "0x2fac6984",
      "from": "0x7cbb7be250c366ab5458260c9ee8bc7912cd7fe3",
      "to": "0xb5294a791c37dfdc2228faced7dce8efceb14b84",
      "contractAddress": null
    },
    {
      "status": "0x1",
      "cumulativeGasUsed": "0xba5b17",
      "logs": [
        {
          "address": "0xb5294a791c37dfdc2228faced7dce8efceb14b84",
          "topics": [
            "0x2f8788117e7eff1d82e926ec794901d17c78024a50270940304540a733656f0d",
            "0x17a8e30262c1f919c33056d877a3c22b95c2f5e4dac44683c1c2323cd79fbdb0",
            "0x000000000000000000000000dd9e73e814558d562ed5b1444b4913ccc9b9bf36",
            "0x0000000000000000000000007cbb7be250c366ab5458260c9ee8bc7912cd7fe3"
          ],
          "data": "0x",
          "blockHash": "0x2e51c2311fe2b857e70a873ddc9ceb2d9a02cd6a5461b3261b94ef5da172cf07",
          "blockNumber": "0x163d5dd",
          "blockTimestamp": "0x68bf19ff",
          "transactionHash": "0x3ae57ef3d2849d9bdd23b2b4482182649b295c1ecb5188b65825c9de2e239c1e",
          "transactionIndex": "0xb9",
          "logIndex": "0x14a",
          "removed": false
        }
      ],
      "logsBloom": "0x00000004000000000004000000000000000000000000000000000000000000000100000000000000000000000000000000000000000000000000000800000000000000000000000000000000010000000000000000000000000000000000000000000000000000000000000000000000000000000000000000000000000000114000000000000000040000000000080000000000000000000000000000000000000000080000000000000000000000000000000000000000001000000000000000000000000000000000000000000000000000000004000100000000000000000000000000000000000000000000000000000000000000000000008000000000",
      "type": "0x2",
      "transactionHash": "0x3ae57ef3d2849d9bdd23b2b4482182649b295c1ecb5188b65825c9de2e239c1e",
      "transactionIndex": "0xb9",
      "blockHash": "0x2e51c2311fe2b857e70a873ddc9ceb2d9a02cd6a5461b3261b94ef5da172cf07",
      "blockNumber": "0x163d5dd",
      "gasUsed": "0x19fb8",
      "effectiveGasPrice": "0x2d784a75",
      "from": "0x7cbb7be250c366ab5458260c9ee8bc7912cd7fe3",
      "to": "0xb5294a791c37dfdc2228faced7dce8efceb14b84",
      "contractAddress": null
    },
    {
      "status": "0x1",
      "cumulativeGasUsed": "0x1989b8f",
      "logs": [
        {
          "address": "0xb5294a791c37dfdc2228faced7dce8efceb14b84",
          "topics": [
            "0x2f8788117e7eff1d82e926ec794901d17c78024a50270940304540a733656f0d",
            "0x17a8e30262c1f919c33056d877a3c22b95c2f5e4dac44683c1c2323cd79fbdb0",
            "0x0000000000000000000000002a03a6075835447c7cc107d8f48558769079ba6d",
            "0x0000000000000000000000007cbb7be250c366ab5458260c9ee8bc7912cd7fe3"
          ],
          "data": "0x",
          "blockHash": "0x67b6c6325d4e7d5e6d9e5db4b8eebd48c0eb9900c19ba36d9a4c3fbab3d56f77",
          "blockNumber": "0x163d5de",
          "blockTimestamp": "0x68bf1a0b",
          "transactionHash": "0x0faa0a8684876037c7227d643fd917d89c490e7e13cb9afc142c83be9a1cfe1c",
          "transactionIndex": "0xc9",
          "logIndex": "0x9f1",
          "removed": false
        }
      ],
      "logsBloom": "0x00000004000000000004000000000000000010000000000000000000000000000100000000000000000000000000000000000000000000000000000800000000000000010000000000000000000000000000000000000000000000000000000000000000000000000000000000000000000000000000000000000000000000110000000000000000040000000000080000000000000000000000000000000000000000080000000000000000000000000000000000000000001000000000000000000000000000000000000000000000000000000004000100000000000000000100000000000000000000000000000000000000000000000000000000000000",
      "type": "0x2",
      "transactionHash": "0x0faa0a8684876037c7227d643fd917d89c490e7e13cb9afc142c83be9a1cfe1c",
      "transactionIndex": "0xc9",
      "blockHash": "0x67b6c6325d4e7d5e6d9e5db4b8eebd48c0eb9900c19ba36d9a4c3fbab3d56f77",
      "blockNumber": "0x163d5de",
      "gasUsed": "0x19fb8",
      "effectiveGasPrice": "0x2ba95d77",
      "from": "0x7cbb7be250c366ab5458260c9ee8bc7912cd7fe3",
      "to": "0xb5294a791c37dfdc2228faced7dce8efceb14b84",
      "contractAddress": null
    },
    {
      "status": "0x1",
      "cumulativeGasUsed": "0x11c7847",
      "logs": [
        {
          "address": "0xb5294a791c37dfdc2228faced7dce8efceb14b84",
          "topics": [
            "0xf6391f5c32d9c69d2a47ea670b442974b53935d1edc7fd64eb21e047a839171b",
            "0x0000000000000000000000000000000000000000000000000000000000000000",
            "0x0000000000000000000000007cbb7be250c366ab5458260c9ee8bc7912cd7fe3",
            "0x0000000000000000000000007cbb7be250c366ab5458260c9ee8bc7912cd7fe3"
          ],
          "data": "0x",
          "blockHash": "0x3cd373ac4e4d892fbb0fe6e9b875f6d4e231ddb414ba8bf09a0c3fb36cba877f",
          "blockNumber": "0x163d5df",
          "blockTimestamp": "0x68bf1a17",
          "transactionHash": "0x0b624a29afe92c45f00a06fdbef9dd1806fe282f81e4770f048ea47094c28b21",
          "transactionIndex": "0xc6",
          "logIndex": "0x189",
          "removed": false
        }
      ],
      "logsBloom": "0x00000000000000000004000000000000000000000000000000000000000000000100000000000000000000000000000000200000000000000000000000000000000000000000000000000000000000000000000000000000000000000000000040000000020000000000000000000800000000000000000000000000000000000000000040000000040000000000080000000000000000000000000000000000000000080000000000000000000000000000000000000000000000000000000000000000000000000000000000000000000000000004000000000000000020000000000000000000000000000000000000000000000000000000000000000000",
      "type": "0x2",
      "transactionHash": "0x0b624a29afe92c45f00a06fdbef9dd1806fe282f81e4770f048ea47094c28b21",
      "transactionIndex": "0xc6",
      "blockHash": "0x3cd373ac4e4d892fbb0fe6e9b875f6d4e231ddb414ba8bf09a0c3fb36cba877f",
      "blockNumber": "0x163d5df",
      "gasUsed": "0xc63b",
      "effectiveGasPrice": "0x2d9036e1",
      "from": "0x7cbb7be250c366ab5458260c9ee8bc7912cd7fe3",
      "to": "0xb5294a791c37dfdc2228faced7dce8efceb14b84",
      "contractAddress": null
    }
  ],
  "libraries": [],
  "pending": [],
  "returns": {},
  "timestamp": 1757354522680,
  "chain": 1,
  "commit": "93b6a36"
}