{
  "transactions": [
    {
      "hash": "0x1dba181c217db9370a1cea7a244f43eecf9b90a1e99e3834a467d2d3536447cc",
      "transactionType": "CALL",
      "contractName": null,
      "contractAddress": "0xb5294a791c37dfdc2228faced7dce8efceb14b84",
      "function": "grantRole(bytes32,address)",
      "arguments": [
        "0x0000000000000000000000000000000000000000000000000000000000000000",
        "0x220d1165798AC86BD70D987aDfc9E5FF8A317363"
      ],
      "transaction": {
        "from": "0x7cbb7be250c366ab5458260c9ee8bc7912cd7fe3",
        "to": "0xb5294a791c37dfdc2228faced7dce8efceb14b84",
        "gas": "0x23c23",
        "value": "0x0",
        "input": "0x2f2ff15d0000000000000000000000000000000000000000000000000000000000000000000000000000000000000000220d1165798ac86bd70d987adfc9e5ff8a317363",
        "nonce": "0x1e",
        "chainId": "0x2105"
      },
      "additionalContracts": [],
      "isFixedGasLimit": false
    },
    {
      "hash": "0x85f16789e8657991477d71dafe3bf8011db42c4e04423527c3c57fc4fce91858",
      "transactionType": "CALL",
      "contractName": null,
      "contractAddress": "0xb5294a791c37dfdc2228faced7dce8efceb14b84",
      "function": "grantRole(bytes32,address)",
      "arguments": [
        "0xd1473398bb66596de5d1ea1fc8e303ff2ac23265adc9144b1b52065dc4f0934b",
        "0xcDB5eC52Cc326711461f93909d767E31fCfF7A1e"
      ],
      "transaction": {
        "from": "0x7cbb7be250c366ab5458260c9ee8bc7912cd7fe3",
        "to": "0xb5294a791c37dfdc2228faced7dce8efceb14b84",
        "gas": "0x23e35",
        "value": "0x0",
        "input": "0x2f2ff15dd1473398bb66596de5d1ea1fc8e303ff2ac23265adc9144b1b52065dc4f0934b000000000000000000000000cdb5ec52cc326711461f93909d767e31fcff7a1e",
        "nonce": "0x1f",
        "chainId": "0x2105"
      },
      "additionalContracts": [],
      "isFixedGasLimit": false
    },
    {
      "hash": "0xed200f4be36a21e7076e0206915163937f88027ab03df53d9c046cb08b2f4d69",
      "transactionType": "CALL",
      "contractName": null,
      "contractAddress": "0xb5294a791c37dfdc2228faced7dce8efceb14b84",
      "function": "grantRole(bytes32,address)",
      "arguments": [
        "0x55435dd261a4b9b3364963f7738a7a662ad9c84396d64be3365284bb7f0a5041",
        "0x8CCC19FBf3AB778D27947B01Ba66C113559E2e9F"
      ],
      "transaction": {
        "from": "0x7cbb7be250c366ab5458260c9ee8bc7912cd7fe3",
        "to": "0xb5294a791c37dfdc2228faced7dce8efceb14b84",
        "gas": "0x23e35",
        "value": "0x0",
        "input": "0x2f2ff15d55435dd261a4b9b3364963f7738a7a662ad9c84396d64be3365284bb7f0a50410000000000000000000000008ccc19fbf3ab778d27947b01ba66c113559e2e9f",
        "nonce": "0x20",
        "chainId": "0x2105"
      },
      "additionalContracts": [],
      "isFixedGasLimit": false
    },
    {
      "hash": "0x0a4fd950b027143b4f96b3c35d600df268f346e6e33903316d6c5d3f8c962469",
      "transactionType": "CALL",
      "contractName": null,
      "contractAddress": "0xb5294a791c37dfdc2228faced7dce8efceb14b84",
      "function": "grantRole(bytes32,address)",
      "arguments": [
        "0x55435dd261a4b9b3364963f7738a7a662ad9c84396d64be3365284bb7f0a5041",
        "0xfB2401825B89fd36B9DE3a4E53C48Aa6485509c2"
      ],
      "transaction": {
        "from": "0x7cbb7be250c366ab5458260c9ee8bc7912cd7fe3",
        "to": "0xb5294a791c37dfdc2228faced7dce8efceb14b84",
        "gas": "0x23e35",
        "value": "0x0",
        "input": "0x2f2ff15d55435dd261a4b9b3364963f7738a7a662ad9c84396d64be3365284bb7f0a5041000000000000000000000000fb2401825b89fd36b9de3a4e53c48aa6485509c2",
        "nonce": "0x21",
        "chainId": "0x2105"
      },
      "additionalContracts": [],
      "isFixedGasLimit": false
    },
    {
      "hash": "0x5d62b9dd1f9567d2d4d76ceba88c2649e7f974923e41563092202839c4f64de4",
      "transactionType": "CALL",
      "contractName": null,
      "contractAddress": "0xb5294a791c37dfdc2228faced7dce8efceb14b84",
      "function": "grantRole(bytes32,address)",
      "arguments": [
        "0x55435dd261a4b9b3364963f7738a7a662ad9c84396d64be3365284bb7f0a5041",
        "0x28fDD01b10ba3Ba489BccC7F9882A5adD4870858"
      ],
      "transaction": {
        "from": "0x7cbb7be250c366ab5458260c9ee8bc7912cd7fe3",
        "to": "0xb5294a791c37dfdc2228faced7dce8efceb14b84",
        "gas": "0x23e35",
        "value": "0x0",
        "input": "0x2f2ff15d55435dd261a4b9b3364963f7738a7a662ad9c84396d64be3365284bb7f0a504100000000000000000000000028fdd01b10ba3ba489bccc7f9882a5add4870858",
        "nonce": "0x22",
        "chainId": "0x2105"
      },
      "additionalContracts": [],
      "isFixedGasLimit": false
    },
    {
      "hash": "0xc85de68970c8809d29b173b5f5087292f8eeb8de9fbe2ed97c5cfdabdb70220d",
      "transactionType": "CALL",
      "contractName": null,
      "contractAddress": "0xb5294a791c37dfdc2228faced7dce8efceb14b84",
      "function": "grantRole(bytes32,address)",
      "arguments": [
        "0x55435dd261a4b9b3364963f7738a7a662ad9c84396d64be3365284bb7f0a5041",
        "0x7b7Fc289D5a71b58fe320f005bc506873AadCc26"
      ],
      "transaction": {
        "from": "0x7cbb7be250c366ab5458260c9ee8bc7912cd7fe3",
        "to": "0xb5294a791c37dfdc2228faced7dce8efceb14b84",
        "gas": "0x23e24",
        "value": "0x0",
        "input": "0x2f2ff15d55435dd261a4b9b3364963f7738a7a662ad9c84396d64be3365284bb7f0a50410000000000000000000000007b7fc289d5a71b58fe320f005bc506873aadcc26",
        "nonce": "0x23",
        "chainId": "0x2105"
      },
      "additionalContracts": [],
      "isFixedGasLimit": false
    },
    {
      "hash": "0x4d4f1863ed3401a32b195e7c1d96ea9528e43ac5cd60485bae581577d1bbca5b",
      "transactionType": "CALL",
      "contractName": null,
      "contractAddress": "0xb5294a791c37dfdc2228faced7dce8efceb14b84",
      "function": "grantRole(bytes32,address)",
      "arguments": [
        "0x55435dd261a4b9b3364963f7738a7a662ad9c84396d64be3365284bb7f0a5041",
        "0x76fd1fDf1Ea32b0B14E180eD8669673F1F16047c"
      ],
      "transaction": {
        "from": "0x7cbb7be250c366ab5458260c9ee8bc7912cd7fe3",
        "to": "0xb5294a791c37dfdc2228faced7dce8efceb14b84",
        "gas": "0x23e35",
        "value": "0x0",
        "input": "0x2f2ff15d55435dd261a4b9b3364963f7738a7a662ad9c84396d64be3365284bb7f0a504100000000000000000000000076fd1fdf1ea32b0b14e180ed8669673f1f16047c",
        "nonce": "0x24",
        "chainId": "0x2105"
      },
      "additionalContracts": [],
      "isFixedGasLimit": false
    },
    {
      "hash": "0xa740c1447681b350bc9db09a2884b581a757e8debd9ef62358373bd71777c578",
      "transactionType": "CALL",
      "contractName": null,
      "contractAddress": "0xb5294a791c37dfdc2228faced7dce8efceb14b84",
      "function": "grantRole(bytes32,address)",
      "arguments": [
        "0x17a8e30262c1f919c33056d877a3c22b95c2f5e4dac44683c1c2323cd79fbdb0",
        "0xDd9E73e814558d562ED5B1444B4913CCC9b9BF36"
      ],
      "transaction": {
        "from": "0x7cbb7be250c366ab5458260c9ee8bc7912cd7fe3",
        "to": "0xb5294a791c37dfdc2228faced7dce8efceb14b84",
        "gas": "0x23e35",
        "value": "0x0",
        "input": "0x2f2ff15d17a8e30262c1f919c33056d877a3c22b95c2f5e4dac44683c1c2323cd79fbdb0000000000000000000000000dd9e73e814558d562ed5b1444b4913ccc9b9bf36",
        "nonce": "0x25",
        "chainId": "0x2105"
      },
      "additionalContracts": [],
      "isFixedGasLimit": false
    },
    {
      "hash": "0xd7a5c783bab3466abf184cb2391c2b6efda5def5b86f3c7c7cdda16a3d35bffc",
      "transactionType": "CALL",
      "contractName": null,
      "contractAddress": "0xb5294a791c37dfdc2228faced7dce8efceb14b84",
      "function": "grantRole(bytes32,address)",
      "arguments": [
        "0x17a8e30262c1f919c33056d877a3c22b95c2f5e4dac44683c1c2323cd79fbdb0",
        "0x2A03A6075835447C7CC107D8F48558769079BA6D"
      ],
      "transaction": {
        "from": "0x7cbb7be250c366ab5458260c9ee8bc7912cd7fe3",
        "to": "0xb5294a791c37dfdc2228faced7dce8efceb14b84",
        "gas": "0x23e35",
        "value": "0x0",
        "input": "0x2f2ff15d17a8e30262c1f919c33056d877a3c22b95c2f5e4dac44683c1c2323cd79fbdb00000000000000000000000002a03a6075835447c7cc107d8f48558769079ba6d",
        "nonce": "0x26",
        "chainId": "0x2105"
      },
      "additionalContracts": [],
      "isFixedGasLimit": false
    },
    {
      "hash": "0x8a3671d25cb07f61ba5e3087bceaca1c66c818de914e65289140e26ae10faf78",
      "transactionType": "CALL",
      "contractName": null,
      "contractAddress": "0xb5294a791c37dfdc2228faced7dce8efceb14b84",
      "function": "revokeRole(bytes32,address)",
      "arguments": [
        "0x0000000000000000000000000000000000000000000000000000000000000000",
        "0x7cBb7bE250C366Ab5458260c9ee8bc7912CD7Fe3"
      ],
      "transaction": {
        "from": "0x7cbb7be250c366ab5458260c9ee8bc7912cd7fe3",
        "to": "0xb5294a791c37dfdc2228faced7dce8efceb14b84",
        "gas": "0x121e9",
        "value": "0x0",
        "input": "0xd547741f00000000000000000000000000000000000000000000000000000000000000000000000000000000000000007cbb7be250c366ab5458260c9ee8bc7912cd7fe3",
        "nonce": "0x27",
        "chainId": "0x2105"
      },
      "additionalContracts": [],
      "isFixedGasLimit": false
    }
  ],
  "receipts": [
    {
      "status": "0x1",
      "cumulativeGasUsed": "0x1cd90e8",
      "logs": [
        {
          "address": "0xb5294a791c37dfdc2228faced7dce8efceb14b84",
          "topics": [
            "0x2f8788117e7eff1d82e926ec794901d17c78024a50270940304540a733656f0d",
            "0x0000000000000000000000000000000000000000000000000000000000000000",
            "0x000000000000000000000000220d1165798ac86bd70d987adfc9e5ff8a317363",
            "0x0000000000000000000000007cbb7be250c366ab5458260c9ee8bc7912cd7fe3"
          ],
          "data": "0x",
          "blockHash": "0x233604171cdd1d28cb6fbcd11bb91c076062c5ef0865a68344d959036ae8a62a",
          "blockNumber": "0x217b23d",
          "blockTimestamp": "0x68b9c15d",
          "transactionHash": "0x1dba181c217db9370a1cea7a244f43eecf9b90a1e99e3834a467d2d3536447cc",
          "transactionIndex": "0x75",
          "logIndex": "0x246",
          "removed": false
        }
      ],
      "logsBloom": "0x00000004000010000004000000000000000000000000000000000000000000000100000000000000000000000000000000000000000000000000000000000000000000000000000000000000000000000000000000000000000000000000000000000000020000000000000000000800000000000000000000400000000000000000000000000000040000000000080000000000000000000000000000000000000000080000000000000000000000000000000000000000001000000000000000000000000000000000000000000000000000000004000100000000800020000000000000000000000000000000000000000000000000000000000000000000",
      "type": "0x2",
      "transactionHash": "0x1dba181c217db9370a1cea7a244f43eecf9b90a1e99e3834a467d2d3536447cc",
      "transactionIndex": "0x75",
      "blockHash": "0x233604171cdd1d28cb6fbcd11bb91c076062c5ef0865a68344d959036ae8a62a",
      "blockNumber": "0x217b23d",
      "gasUsed": "0x19e38",
      "effectiveGasPrice": "0x1241c1",
      "from": "0x7cbb7be250c366ab5458260c9ee8bc7912cd7fe3",
      "to": "0xb5294a791c37dfdc2228faced7dce8efceb14b84",
      "contractAddress": null,
      "l1BaseFeeScalar": "0x8dd",
      "l1BlobBaseFee": "0x1",
      "l1BlobBaseFeeScalar": "0x101c12",
      "l1Fee": "0x1743aeadf",
      "l1GasPrice": "0x66880c75",
      "l1GasUsed": "0x640"
    },
    {
      "status": "0x1",
      "cumulativeGasUsed": "0x1cf30a0",
      "logs": [
        {
          "address": "0xb5294a791c37dfdc2228faced7dce8efceb14b84",
          "topics": [
            "0x2f8788117e7eff1d82e926ec794901d17c78024a50270940304540a733656f0d",
            "0xd1473398bb66596de5d1ea1fc8e303ff2ac23265adc9144b1b52065dc4f0934b",
            "0x000000000000000000000000cdb5ec52cc326711461f93909d767e31fcff7a1e",
            "0x0000000000000000000000007cbb7be250c366ab5458260c9ee8bc7912cd7fe3"
          ],
          "data": "0x",
          "blockHash": "0x233604171cdd1d28cb6fbcd11bb91c076062c5ef0865a68344d959036ae8a62a",
          "blockNumber": "0x217b23d",
          "blockTimestamp": "0x68b9c15d",
          "transactionHash": "0x85f16789e8657991477d71dafe3bf8011db42c4e04423527c3c57fc4fce91858",
          "transactionIndex": "0x76",
          "logIndex": "0x247",
          "removed": false
        }
      ],
      "logsBloom": "0x00000004000000000004000000000000000000000000000000000000000004000100000000000000000000000000000000000000000000000010000000000000000000000000000000000000000000000000000000000000000000000000000000000000000000000000000000000000000000000000000000000000000000000000000000000000040000000000080000000000000000000000000000000000000000080000000000000000800000000000000000000000001000000000000000000000000000000000000000000000000000000004000100000000000000000000000000000000000000000000000000000400200000000004000000000000",
      "type": "0x2",
      "transactionHash": "0x85f16789e8657991477d71dafe3bf8011db42c4e04423527c3c57fc4fce91858",
      "transactionIndex": "0x76",
      "blockHash": "0x233604171cdd1d28cb6fbcd11bb91c076062c5ef0865a68344d959036ae8a62a",
      "blockNumber": "0x217b23d",
      "gasUsed": "0x19fb8",
      "effectiveGasPrice": "0x1241c1",
      "from": "0x7cbb7be250c366ab5458260c9ee8bc7912cd7fe3",
      "to": "0xb5294a791c37dfdc2228faced7dce8efceb14b84",
      "contractAddress": null,
      "l1BaseFeeScalar": "0x8dd",
      "l1BlobBaseFee": "0x1",
      "l1BlobBaseFeeScalar": "0x101c12",
      "l1Fee": "0x1889bfff9",
      "l1GasPrice": "0x66880c75",
      "l1GasUsed": "0x697"
    },
    {
      "status": "0x1",
      "cumulativeGasUsed": "0x1d0d058",
      "logs": [
        {
          "address": "0xb5294a791c37dfdc2228faced7dce8efceb14b84",
          "topics": [
            "0x2f8788117e7eff1d82e926ec794901d17c78024a50270940304540a733656f0d",
            "0x55435dd261a4b9b3364963f7738a7a662ad9c84396d64be3365284bb7f0a5041",
            "0x0000000000000000000000008ccc19fbf3ab778d27947b01ba66c113559e2e9f",
            "0x0000000000000000000000007cbb7be250c366ab5458260c9ee8bc7912cd7fe3"
          ],
          "data": "0x",
          "blockHash": "0x233604171cdd1d28cb6fbcd11bb91c076062c5ef0865a68344d959036ae8a62a",
          "blockNumber": "0x217b23d",
          "blockTimestamp": "0x68b9c15d",
          "transactionHash": "0xed200f4be36a21e7076e0206915163937f88027ab03df53d9c046cb08b2f4d69",
          "transactionIndex": "0x77",
          "logIndex": "0x248",
          "removed": false
        }
      ],
      "logsBloom": "0x00000004000000000004000000000000000000000000000000000000000000000100000000000000000000000000000000000000000000000000000000000000000000000000000000000000000000000000000000000000000000000000000000000000000000000000000004000000000000000000000000000000000000000000000000000000040000000000080000000000000000000000000000004000000000080000000000000000000000000000000000000000001000000010000000000000020000000000000000000200000000000004000100000000000000000000000000000000000000000000000000000000000000000000000000040000",
      "type": "0x2",
      "transactionHash": "0xed200f4be36a21e7076e0206915163937f88027ab03df53d9c046cb08b2f4d69",
      "transactionIndex": "0x77",
      "blockHash": "0x233604171cdd1d28cb6fbcd11bb91c076062c5ef0865a68344d959036ae8a62a",
      "blockNumber": "0x217b23d",
      "gasUsed": "0x19fb8",
      "effectiveGasPrice": "0x1241c1",
      "from": "0x7cbb7be250c366ab5458260c9ee8bc7912cd7fe3",
      "to": "0xb5294a791c37dfdc2228faced7dce8efceb14b84",
      "contractAddress": null,
      "l1BaseFeeScalar": "0x8dd",
      "l1BlobBaseFee": "0x1",
      "l1BlobBaseFeeScalar": "0x101c12",
      "l1Fee": "0x1889bfff9",
      "l1GasPrice": "0x66880c75",
      "l1GasUsed": "0x697"
    },
    {
      "status": "0x1",
      "cumulativeGasUsed": "0x1d27010",
      "logs": [
        {
          "address": "0xb5294a791c37dfdc2228faced7dce8efceb14b84",
          "topics": [
            "0x2f8788117e7eff1d82e926ec794901d17c78024a50270940304540a733656f0d",
            "0x55435dd261a4b9b3364963f7738a7a662ad9c84396d64be3365284bb7f0a5041",
            "0x000000000000000000000000fb2401825b89fd36b9de3a4e53c48aa6485509c2",
            "0x0000000000000000000000007cbb7be250c366ab5458260c9ee8bc7912cd7fe3"
          ],
          "data": "0x",
          "blockHash": "0x233604171cdd1d28cb6fbcd11bb91c076062c5ef0865a68344d959036ae8a62a",
          "blockNumber": "0x217b23d",
          "blockTimestamp": "0x68b9c15d",
          "transactionHash": "0x0a4fd950b027143b4f96b3c35d600df268f346e6e33903316d6c5d3f8c962469",
          "transactionIndex": "0x78",
          "logIndex": "0x249",
          "removed": false
        }
      ],
      "logsBloom": "0x00000004000000000004000000000000000000000000000000000000000000000100000000000000000000000000000000000000000000000000000000000000000000000000000000100000000000000000000000000000000000000000000000000000000000000000000000000000000000000000000000000000000000000000000000000000040000000000080000000000000000000000000000004000000000080000000000000000000000000000000000800000001000000000000000000000020000000000000000000000000000000004000100000000000000000000000000000000000000000000000000000000000020000000000000040000",
      "type": "0x2",
      "transactionHash": "0x0a4fd950b027143b4f96b3c35d600df268f346e6e33903316d6c5d3f8c962469",
      "transactionIndex": "0x78",
      "blockHash": "0x233604171cdd1d28cb6fbcd11bb91c076062c5ef0865a68344d959036ae8a62a",
      "blockNumber": "0x217b23d",
      "gasUsed": "0x19fb8",
      "effectiveGasPrice": "0x1241c1",
      "from": "0x7cbb7be250c366ab5458260c9ee8bc7912cd7fe3",
      "to": "0xb5294a791c37dfdc2228faced7dce8efceb14b84",
      "contractAddress": null,
      "l1BaseFeeScalar": "0x8dd",
      "l1BlobBaseFee": "0x1",
      "l1BlobBaseFeeScalar": "0x101c12",
      "l1Fee": "0x1889bfff9",
      "l1GasPrice": "0x66880c75",
      "l1GasUsed": "0x697"
    },
    {
      "status": "0x1",
      "cumulativeGasUsed": "0x1d40fc8",
      "logs": [
        {
          "address": "0xb5294a791c37dfdc2228faced7dce8efceb14b84",
          "topics": [
            "0x2f8788117e7eff1d82e926ec794901d17c78024a50270940304540a733656f0d",
            "0x55435dd261a4b9b3364963f7738a7a662ad9c84396d64be3365284bb7f0a5041",
            "0x00000000000000000000000028fdd01b10ba3ba489bccc7f9882a5add4870858",
            "0x0000000000000000000000007cbb7be250c366ab5458260c9ee8bc7912cd7fe3"
          ],
          "data": "0x",
          "blockHash": "0x233604171cdd1d28cb6fbcd11bb91c076062c5ef0865a68344d959036ae8a62a",
          "blockNumber": "0x217b23d",
          "blockTimestamp": "0x68b9c15d",
          "transactionHash": "0x5d62b9dd1f9567d2d4d76ceba88c2649e7f974923e41563092202839c4f64de4",
          "transactionIndex": "0x79",
          "logIndex": "0x24a",
          "removed": false
        }
      ],
      "logsBloom": "0x00000004000000000004000000000000000000000000000000000080000000000100000000000000000000020000000000000000000000000000000000000000000000000000000000000000000000000000200000000000000000000000000000000000000000000000000000000000000000000000000000000000000000000000000000000000040000000000080000000000000000000000000000004000000000080000000000000000000000000000000000000000001000000000000000000000020000000000000000000000000000000004000100000000000000000000000000000000000000000000000000000000000000000000000000040000",
      "type": "0x2",
      "transactionHash": "0x5d62b9dd1f9567d2d4d76ceba88c2649e7f974923e41563092202839c4f64de4",
      "transactionIndex": "0x79",
      "blockHash": "0x233604171cdd1d28cb6fbcd11bb91c076062c5ef0865a68344d959036ae8a62a",
      "blockNumber": "0x217b23d",
      "gasUsed": "0x19fb8",
      "effectiveGasPrice": "0x1241c1",
      "from": "0x7cbb7be250c366ab5458260c9ee8bc7912cd7fe3",
      "to": "0xb5294a791c37dfdc2228faced7dce8efceb14b84",
      "contractAddress": null,
      "l1BaseFeeScalar": "0x8dd",
      "l1BlobBaseFee": "0x1",
      "l1BlobBaseFeeScalar": "0x101c12",
      "l1Fee": "0x1889bfff9",
      "l1GasPrice": "0x66880c75",
      "l1GasUsed": "0x697"
    },
    {
      "status": "0x1",
      "cumulativeGasUsed": "0x1d5af74",
      "logs": [
        {
          "address": "0xb5294a791c37dfdc2228faced7dce8efceb14b84",
          "topics": [
            "0x2f8788117e7eff1d82e926ec794901d17c78024a50270940304540a733656f0d",
            "0x55435dd261a4b9b3364963f7738a7a662ad9c84396d64be3365284bb7f0a5041",
            "0x0000000000000000000000007b7fc289d5a71b58fe320f005bc506873aadcc26",
            "0x0000000000000000000000007cbb7be250c366ab5458260c9ee8bc7912cd7fe3"
          ],
          "data": "0x",
          "blockHash": "0x233604171cdd1d28cb6fbcd11bb91c076062c5ef0865a68344d959036ae8a62a",
          "blockNumber": "0x217b23d",
          "blockTimestamp": "0x68b9c15d",
          "transactionHash": "0xc85de68970c8809d29b173b5f5087292f8eeb8de9fbe2ed97c5cfdabdb70220d",
          "transactionIndex": "0x7a",
          "logIndex": "0x24b",
          "removed": false
        }
      ],
      "logsBloom": "0x00000004000000000004000000000000002000000000000000000000000000000120000000000000000000000000000000000000000000000000000000000000000000000000000000000000000000000000000000000000000000000000000000000000000000000000000000000000000000000000000000000000000000000000000000000000040000000000080000000000000080000000000000004000000000080000000000000000000000000000000000000000001000000000000000000000020000000000000000000000000000000004000100000000000000000000000000000000000000000000000000000000000000000000000000040000",
      "type": "0x2",
      "transactionHash": "0xc85de68970c8809d29b173b5f5087292f8eeb8de9fbe2ed97c5cfdabdb70220d",
      "transactionIndex": "0x7a",
      "blockHash": "0x233604171cdd1d28cb6fbcd11bb91c076062c5ef0865a68344d959036ae8a62a",
      "blockNumber": "0x217b23d",
      "gasUsed": "0x19fac",
      "effectiveGasPrice": "0x1241c1",
      "from": "0x7cbb7be250c366ab5458260c9ee8bc7912cd7fe3",
      "to": "0xb5294a791c37dfdc2228faced7dce8efceb14b84",
      "contractAddress": null,
      "l1BaseFeeScalar": "0x8dd",
      "l1BlobBaseFee": "0x1",
      "l1BlobBaseFeeScalar": "0x101c12",
      "l1Fee": "0x1889bfff9",
      "l1GasPrice": "0x66880c75",
      "l1GasUsed": "0x697"
    },
    {
      "status": "0x1",
      "cumulativeGasUsed": "0x1d74f2c",
      "logs": [
        {
          "address": "0xb5294a791c37dfdc2228faced7dce8efceb14b84",
          "topics": [
            "0x2f8788117e7eff1d82e926ec794901d17c78024a50270940304540a733656f0d",
            "0x55435dd261a4b9b3364963f7738a7a662ad9c84396d64be3365284bb7f0a5041",
            "0x00000000000000000000000076fd1fdf1ea32b0b14e180ed8669673f1f16047c",
            "0x0000000000000000000000007cbb7be250c366ab5458260c9ee8bc7912cd7fe3"
          ],
          "data": "0x",
          "blockHash": "0x233604171cdd1d28cb6fbcd11bb91c076062c5ef0865a68344d959036ae8a62a",
          "blockNumber": "0x217b23d",
          "blockTimestamp": "0x68b9c15d",
          "transactionHash": "0x4d4f1863ed3401a32b195e7c1d96ea9528e43ac5cd60485bae581577d1bbca5b",
          "transactionIndex": "0x7b",
          "logIndex": "0x24c",
          "removed": false
        }
      ],
      "logsBloom": "0x00000004000000000004000000000000000000000000000000000000000000000100000000000000000000000000000000000000000000010000000000000000000000000000000000000000000000000000000000000000000000000000000000000000000000000000000000000000000000000000000000000000000000000000000000000000040000000000080000000000000000000000000000004000000000080000000000000000000000000000000000000000001000000000000000000000020000000001000000000000000000000004000100000000000000000000000000000000000000000000000000000000000000000000000000040000",
      "type": "0x2",
      "transactionHash": "0x4d4f1863ed3401a32b195e7c1d96ea9528e43ac5cd60485bae581577d1bbca5b",
      "transactionIndex": "0x7b",
      "blockHash": "0x233604171cdd1d28cb6fbcd11bb91c076062c5ef0865a68344d959036ae8a62a",
      "blockNumber": "0x217b23d",
      "gasUsed": "0x19fb8",
      "effectiveGasPrice": "0x1241c1",
      "from": "0x7cbb7be250c366ab5458260c9ee8bc7912cd7fe3",
      "to": "0xb5294a791c37dfdc2228faced7dce8efceb14b84",
      "contractAddress": null,
      "l1BaseFeeScalar": "0x8dd",
      "l1BlobBaseFee": "0x1",
      "l1BlobBaseFeeScalar": "0x101c12",
      "l1Fee": "0x1889bfff9",
      "l1GasPrice": "0x66880c75",
      "l1GasUsed": "0x697"
    },
    {
      "status": "0x1",
      "cumulativeGasUsed": "0x22ba5aa",
      "logs": [
        {
          "address": "0xb5294a791c37dfdc2228faced7dce8efceb14b84",
          "topics": [
            "0x2f8788117e7eff1d82e926ec794901d17c78024a50270940304540a733656f0d",
            "0x17a8e30262c1f919c33056d877a3c22b95c2f5e4dac44683c1c2323cd79fbdb0",
            "0x000000000000000000000000dd9e73e814558d562ed5b1444b4913ccc9b9bf36",
            "0x0000000000000000000000007cbb7be250c366ab5458260c9ee8bc7912cd7fe3"
          ],
          "data": "0x",
          "blockHash": "0x233604171cdd1d28cb6fbcd11bb91c076062c5ef0865a68344d959036ae8a62a",
          "blockNumber": "0x217b23d",
          "blockTimestamp": "0x68b9c15d",
          "transactionHash": "0xa740c1447681b350bc9db09a2884b581a757e8debd9ef62358373bd71777c578",
          "transactionIndex": "0x9a",
          "logIndex": "0x2d1",
          "removed": false
        }
      ],
      "logsBloom": "0x00000004000000000004000000000000000000000000000000000000000000000100000000000000000000000000000000000000000000000000000800000000000000000000000000000000010000000000000000000000000000000000000000000000000000000000000000000000000000000000000000000000000000114000000000000000040000000000080000000000000000000000000000000000000000080000000000000000000000000000000000000000001000000000000000000000000000000000000000000000000000000004000100000000000000000000000000000000000000000000000000000000000000000000008000000000",
      "type": "0x2",
      "transactionHash": "0xa740c1447681b350bc9db09a2884b581a757e8debd9ef62358373bd71777c578",
      "transactionIndex": "0x9a",
      "blockHash": "0x233604171cdd1d28cb6fbcd11bb91c076062c5ef0865a68344d959036ae8a62a",
      "blockNumber": "0x217b23d",
      "gasUsed": "0x19fb8",
      "effectiveGasPrice": "0x1241c1",
      "from": "0x7cbb7be250c366ab5458260c9ee8bc7912cd7fe3",
      "to": "0xb5294a791c37dfdc2228faced7dce8efceb14b84",
      "contractAddress": null,
      "l1BaseFeeScalar": "0x8dd",
      "l1BlobBaseFee": "0x1",
      "l1BlobBaseFeeScalar": "0x101c12",
      "l1Fee": "0x1889bfff9",
      "l1GasPrice": "0x66880c75",
      "l1GasUsed": "0x697"
    },
    {
      "status": "0x1",
      "cumulativeGasUsed": "0x22d4562",
      "logs": [
        {
          "address": "0xb5294a791c37dfdc2228faced7dce8efceb14b84",
          "topics": [
            "0x2f8788117e7eff1d82e926ec794901d17c78024a50270940304540a733656f0d",
            "0x17a8e30262c1f919c33056d877a3c22b95c2f5e4dac44683c1c2323cd79fbdb0",
            "0x0000000000000000000000002a03a6075835447c7cc107d8f48558769079ba6d",
            "0x0000000000000000000000007cbb7be250c366ab5458260c9ee8bc7912cd7fe3"
          ],
          "data": "0x",
          "blockHash": "0x233604171cdd1d28cb6fbcd11bb91c076062c5ef0865a68344d959036ae8a62a",
          "blockNumber": "0x217b23d",
          "blockTimestamp": "0x68b9c15d",
          "transactionHash": "0xd7a5c783bab3466abf184cb2391c2b6efda5def5b86f3c7c7cdda16a3d35bffc",
          "transactionIndex": "0x9b",
          "logIndex": "0x2d2",
          "removed": false
        }
      ],
      "logsBloom": "0x00000004000000000004000000000000000010000000000000000000000000000100000000000000000000000000000000000000000000000000000800000000000000010000000000000000000000000000000000000000000000000000000000000000000000000000000000000000000000000000000000000000000000110000000000000000040000000000080000000000000000000000000000000000000000080000000000000000000000000000000000000000001000000000000000000000000000000000000000000000000000000004000100000000000000000100000000000000000000000000000000000000000000000000000000000000",
      "type": "0x2",
      "transactionHash": "0xd7a5c783bab3466abf184cb2391c2b6efda5def5b86f3c7c7cdda16a3d35bffc",
      "transactionIndex": "0x9b",
      "blockHash": "0x233604171cdd1d28cb6fbcd11bb91c076062c5ef0865a68344d959036ae8a62a",
      "blockNumber": "0x217b23d",
      "gasUsed": "0x19fb8",
      "effectiveGasPrice": "0x1241c1",
      "from": "0x7cbb7be250c366ab5458260c9ee8bc7912cd7fe3",
      "to": "0xb5294a791c37dfdc2228faced7dce8efceb14b84",
      "contractAddress": null,
      "l1BaseFeeScalar": "0x8dd",
      "l1BlobBaseFee": "0x1",
      "l1BlobBaseFeeScalar": "0x101c12",
      "l1Fee": "0x1889bfff9",
      "l1GasPrice": "0x66880c75",
      "l1GasUsed": "0x697"
    },
    {
      "status": "0x1",
      "cumulativeGasUsed": "0x22e0b9d",
      "logs": [
        {
          "address": "0xb5294a791c37dfdc2228faced7dce8efceb14b84",
          "topics": [
            "0xf6391f5c32d9c69d2a47ea670b442974b53935d1edc7fd64eb21e047a839171b",
            "0x0000000000000000000000000000000000000000000000000000000000000000",
            "0x0000000000000000000000007cbb7be250c366ab5458260c9ee8bc7912cd7fe3",
            "0x0000000000000000000000007cbb7be250c366ab5458260c9ee8bc7912cd7fe3"
          ],
          "data": "0x",
          "blockHash": "0x233604171cdd1d28cb6fbcd11bb91c076062c5ef0865a68344d959036ae8a62a",
          "blockNumber": "0x217b23d",
          "blockTimestamp": "0x68b9c15d",
          "transactionHash": "0x8a3671d25cb07f61ba5e3087bceaca1c66c818de914e65289140e26ae10faf78",
          "transactionIndex": "0x9c",
          "logIndex": "0x2d3",
          "removed": false
        }
      ],
      "logsBloom": "0x00000000000000000004000000000000000000000000000000000000000000000100000000000000000000000000000000200000000000000000000000000000000000000000000000000000000000000000000000000000000000000000000040000000020000000000000000000800000000000000000000000000000000000000000040000000040000000000080000000000000000000000000000000000000000080000000000000000000000000000000000000000000000000000000000000000000000000000000000000000000000000004000000000000000020000000000000000000000000000000000000000000000000000000000000000000",
      "type": "0x2",
      "transactionHash": "0x8a3671d25cb07f61ba5e3087bceaca1c66c818de914e65289140e26ae10faf78",
      "transactionIndex": "0x9c",
      "blockHash": "0x233604171cdd1d28cb6fbcd11bb91c076062c5ef0865a68344d959036ae8a62a",
      "blockNumber": "0x217b23d",
      "gasUsed": "0xc63b",
      "effectiveGasPrice": "0x1241c1",
      "from": "0x7cbb7be250c366ab5458260c9ee8bc7912cd7fe3",
      "to": "0xb5294a791c37dfdc2228faced7dce8efceb14b84",
      "contractAddress": null,
      "l1BaseFeeScalar": "0x8dd",
      "l1BlobBaseFee": "0x1",
      "l1BlobBaseFeeScalar": "0x101c12",
      "l1Fee": "0x1743aeadf",
      "l1GasPrice": "0x66880c75",
      "l1GasUsed": "0x640"
    }
  ],
  "libraries": [],
  "pending": [],
  "returns": {},
  "timestamp": 1757004124581,
  "chain": 8453,
  "commit": "ce5c521"
}