{
  "transactions": [
    {
      "hash": "0x7c0a14a441be63936fa5c0406dfde7448493096a1c9e14a5598cf0762a7f924e",
      "transactionType": "CALL",
      "contractName": "AuthScript",
      "contractAddress": "0xc7f2cf4845c6db0e1a1e91ed41bcd0fcc1b0e141",
      "function": "deploy(address)",
      "arguments": [
        "0xf7164d2fC05350C75387Fa6C0Cc4F97634cA9451"
      ],
      "transaction": {
        "from": "0xf7164d2fc05350c75387fa6c0cc4f97634ca9451",
        "to": "0xc7f2cf4845c6db0e1a1e91ed41bcd0fcc1b0e141",
        "gas": "0x73a2",
        "value": "0x0",
        "input": "0x4c96a389000000000000000000000000f7164d2fc05350c75387fa6c0cc4f97634ca9451",
        "nonce": "0x192",
        "chainId": "0x14a34"
      },
      "additionalContracts": [],
      "isFixedGasLimit": false
    },
    {
      "hash": "0x54707f2bf23b288b911ad2b48fdcd002eff7181207450e6f98e54fbd2b92eada",
      "transactionType": "CALL",
      "contractName": null,
      "contractAddress": "0x036cbd53842c5426634e7929541ec2318f3dcf7e",
      "function": "transfer(address,uint256)",
      "arguments": [
        "0x238213078DbD09f2D15F4c14c02300FA1b2A81BB",
        "1000000"
      ],
      "transaction": {
        "from": "0xf7164d2fc05350c75387fa6c0cc4f97634ca9451",
        "to": "0x036cbd53842c5426634e7929541ec2318f3dcf7e",
        "gas": "0x16309",
        "value": "0x0",
        "input": "0xa9059cbb000000000000000000000000238213078dbd09f2d15f4c14c02300fa1b2a81bb00000000000000000000000000000000000000000000000000000000000f4240",
        "nonce": "0x193",
        "chainId": "0x14a34"
      },
      "additionalContracts": [],
      "isFixedGasLimit": false
    },
    {
      "hash": "0x249040a8f9cf623b8d72404af3a2618de7d0e1d8e1a7d82f2e7141aec12b1e1b",
      "transactionType": "CALL",
      "contractName": "CashStrategyVaultScript",
      "contractAddress": "0x238213078dbd09f2d15f4c14c02300fa1b2a81bb",
      "function": "deploy(address,address,uint256)",
      "arguments": [
        "0x9121cce589dd296201c22E9D054D7304FA807b6a",
        "0x036CbD53842c5426634e7929541eC2318f3dCF7e",
        "1000000"
      ],
      "transaction": {
        "from": "0xf7164d2fc05350c75387fa6c0cc4f97634ca9451",
        "to": "0x238213078dbd09f2d15f4c14c02300fa1b2a81bb",
        "gas": "0x7680",
        "value": "0x0",
        "input": "0x1b3671bf0000000000000000000000009121cce589dd296201c22e9d054d7304fa807b6a000000000000000000000000036cbd53842c5426634e7929541ec2318f3dcf7e00000000000000000000000000000000000000000000000000000000000f4240",
        "nonce": "0x194",
        "chainId": "0x14a34"
      },
      "additionalContracts": [],
      "isFixedGasLimit": false
    },
    {
      "hash": "0x46efbd10b4ded54b59feb8cb6f1dfe033464a51d4beb6a2f9036846f952a09fe",
      "transactionType": "CALL",
      "contractName": null,
      "contractAddress": "0x036cbd53842c5426634e7929541ec2318f3dcf7e",
      "function": "transfer(address,uint256)",
      "arguments": [
        "0xd85BdcdaE4db1FAEB8eF93331525FE68D7C8B3f0",
        "1000000"
      ],
      "transaction": {
        "from": "0xf7164d2fc05350c75387fa6c0cc4f97634ca9451",
        "to": "0x036cbd53842c5426634e7929541ec2318f3dcf7e",
        "gas": "0x14f5f",
        "value": "0x0",
        "input": "0xa9059cbb000000000000000000000000d85bdcdae4db1faeb8ef93331525fe68d7c8b3f000000000000000000000000000000000000000000000000000000000000f4240",
        "nonce": "0x195",
        "chainId": "0x14a34"
      },
      "additionalContracts": [],
      "isFixedGasLimit": false
    },
    {
      "hash": "0x729ecfa3af0016f2ea6a14865caf44f5962715a6054b46b1b70c9c415484adb5",
      "transactionType": "CALL",
      "contractName": "AaveStrategyVaultScript",
      "contractAddress": "0xd85bdcdae4db1faeb8ef93331525fe68d7c8b3f0",
      "function": "deploy(address,address,uint256,address)",
      "arguments": [
        "0x9121cce589dd296201c22E9D054D7304FA807b6a",
        "0x036CbD53842c5426634e7929541eC2318f3dCF7e",
        "1000000",
        "0x07eA79F68B2B3df564D0A34F8e19D9B1e339814b"
      ],
      "transaction": {
        "from": "0xf7164d2fc05350c75387fa6c0cc4f97634ca9451",
        "to": "0xd85bdcdae4db1faeb8ef93331525fe68d7c8b3f0",
        "gas": "0x787d",
        "value": "0x0",
        "input": "0x09701a860000000000000000000000009121cce589dd296201c22e9d054d7304fa807b6a000000000000000000000000036cbd53842c5426634e7929541ec2318f3dcf7e00000000000000000000000000000000000000000000000000000000000f424000000000000000000000000007ea79f68b2b3df564d0a34f8e19d9b1e339814b",
        "nonce": "0x196",
        "chainId": "0x14a34"
      },
      "additionalContracts": [],
      "isFixedGasLimit": false
    },
    {
      "hash": "0x6b28b15043ae04ff29124461abceefa39b9f9dd830dfc4d88cc1a33cc0157002",
      "transactionType": "CALL",
      "contractName": null,
      "contractAddress": "0x036cbd53842c5426634e7929541ec2318f3dcf7e",
      "function": "transfer(address,uint256)",
      "arguments": [
        "0xDc82c0362A241Aa94d53546648EACe48C9773dAa",
        "1000000"
      ],
      "transaction": {
        "from": "0xf7164d2fc05350c75387fa6c0cc4f97634ca9451",
        "to": "0x036cbd53842c5426634e7929541ec2318f3dcf7e",
        "gas": "0x14f5f",
        "value": "0x0",
        "input": "0xa9059cbb000000000000000000000000dc82c0362a241aa94d53546648eace48c9773daa00000000000000000000000000000000000000000000000000000000000f4240",
        "nonce": "0x197",
        "chainId": "0x14a34"
      },
      "additionalContracts": [],
      "isFixedGasLimit": false
    },
    {
      "hash": "0xb8ffc0f03f9c783f4e9ace000ec5d0b542c520698a01cdaaf8ce2c82c401c40c",
      "transactionType": "CALL",
      "contractName": "ERC4626StrategyVaultScript",
      "contractAddress": "0xdc82c0362a241aa94d53546648eace48c9773daa",
      "function": "deploy(address,uint256,address)",
      "arguments": [
        "0x9121cce589dd296201c22E9D054D7304FA807b6a",
        "1000000",
        "0x99067e5D73b1d6F1b5856E59209e12F5a0f86DED"
      ],
      "transaction": {
        "from": "0xf7164d2fc05350c75387fa6c0cc4f97634ca9451",
        "to": "0xdc82c0362a241aa94d53546648eace48c9773daa",
        "gas": "0x7680",
        "value": "0x0",
        "input": "0x8408681d0000000000000000000000009121cce589dd296201c22e9d054d7304fa807b6a00000000000000000000000000000000000000000000000000000000000f424000000000000000000000000099067e5d73b1d6f1b5856e59209e12f5a0f86ded",
        "nonce": "0x198",
        "chainId": "0x14a34"
      },
      "additionalContracts": [],
      "isFixedGasLimit": false
    },
    {
      "hash": "0x363f28690a28681259d83e2012b87713c5873387fab762e7da5d1e7ea81946d8",
      "transactionType": "CALL",
      "contractName": null,
      "contractAddress": "0x036cbd53842c5426634e7929541ec2318f3dcf7e",
      "function": "transfer(address,uint256)",
      "arguments": [
        "0xdaE97900D4B184c5D2012dcdB658c008966466DD",
        "3000001"
      ],
      "transaction": {
        "from": "0xf7164d2fc05350c75387fa6c0cc4f97634ca9451",
        "to": "0x036cbd53842c5426634e7929541ec2318f3dcf7e",
        "gas": "0x16309",
        "value": "0x0",
        "input": "0xa9059cbb000000000000000000000000dae97900d4b184c5d2012dcdb658c008966466dd00000000000000000000000000000000000000000000000000000000002dc6c1",
        "nonce": "0x199",
        "chainId": "0x14a34"
      },
      "additionalContracts": [],
      "isFixedGasLimit": false
    },
    {
      "hash": "0xcb82db09da197edc288a2c88c88cc57c63c2608d3a03d14d8ff97229877b02c6",
      "transactionType": "CALL",
      "contractName": "SizeMetaVaultScript",
      "contractAddress": "0xdae97900d4b184c5d2012dcdb658c008966466dd",
      "function": "deploy(address,address,uint256,address[])",
      "arguments": [
        "0x9121cce589dd296201c22E9D054D7304FA807b6a",
        "0x036CbD53842c5426634e7929541eC2318f3dCF7e",
        "3000001",
        "[0x547fB4f3eDa19886feB6afC657E91d15E04D9cC4, 0x608ccbf6595e2b4DEE53766BfdDAA44bd7900035, 0x480521401f828f9826F27f3a4caBc6D14F7D4f2e]"
      ],
      "transaction": {
        "from": "0xf7164d2fc05350c75387fa6c0cc4f97634ca9451",
        "to": "0xdae97900d4b184c5d2012dcdb658c008966466dd",
        "gas": "0x7de8",
        "value": "0x0",
        "input": "0x848d655a0000000000000000000000009121cce589dd296201c22e9d054d7304fa807b6a000000000000000000000000036cbd53842c5426634e7929541ec2318f3dcf7e00000000000000000000000000000000000000000000000000000000002dc6c100000000000000000000000000000000000000000000000000000000000000800000000000000000000000000000000000000000000000000000000000000003000000000000000000000000547fb4f3eda19886feb6afc657e91d15e04d9cc4000000000000000000000000608ccbf6595e2b4dee53766bfddaa44bd7900035000000000000000000000000480521401f828f9826f27f3a4cabc6d14f7d4f2e",
        "nonce": "0x19a",
        "chainId": "0x14a34"
      },
      "additionalContracts": [],
      "isFixedGasLimit": false
    }
  ],
  "receipts": [
    {
      "status": "0x1",
      "cumulativeGasUsed": "0xa0448",
      "logs": [],
      "logsBloom": "0x00000000000000000000000000000000000000000000000000000000000000000000000000000000000000000000000000000000000000000000000000000000000000000000000000000000000000000000000000000000000000000000000000000000000000000000000000000000000000000000000000000000000000000000000000000000000000000000000000000000000000000000000000000000000000000000000000000000000000000000000000000000000000000000000000000000000000000000000000000000000000000000000000000000000000000000000000000000000000000000000000000000000000000000000000000000",
      "type": "0x2",
      "transactionHash": "0x7c0a14a441be63936fa5c0406dfde7448493096a1c9e14a5598cf0762a7f924e",
      "transactionIndex": "0x3",
      "blockHash": "0x61ea7d9ecee341368984a756d2bec469ae36ecf8fde1817b91298a77bd376013",
      "blockNumber": "0x1b5739c",
      "gasUsed": "0x5640",
      "effectiveGasPrice": "0xf42a7",
      "from": "0xf7164d2fc05350c75387fa6c0cc4f97634ca9451",
      "to": "0xc7f2cf4845c6db0e1a1e91ed41bcd0fcc1b0e141",
      "contractAddress": null,
      "l1BaseFeeScalar": "0x44d",
      "l1BlobBaseFee": "0x1",
      "l1BlobBaseFeeScalar": "0xa118b",
      "l1Fee": "0xfa75e1",
      "l1GasPrice": "0x8e2d61",
      "l1GasUsed": "0x640"
    },
    {
      "status": "0x1",
      "cumulativeGasUsed": "0xaf70b",
      "logs": [
        {
          "address": "0x036cbd53842c5426634e7929541ec2318f3dcf7e",
          "topics": [
            "0xddf252ad1be2c89b69c2b068fc378daa952ba7f163c4a11628f55a4df523b3ef",
            "0x000000000000000000000000f7164d2fc05350c75387fa6c0cc4f97634ca9451",
            "0x000000000000000000000000238213078dbd09f2d15f4c14c02300fa1b2a81bb"
          ],
          "data": "0x00000000000000000000000000000000000000000000000000000000000f4240",
          "blockHash": "0x61ea7d9ecee341368984a756d2bec469ae36ecf8fde1817b91298a77bd376013",
          "blockNumber": "0x1b5739c",
          "blockTimestamp": "0x687e4618",
          "transactionHash": "0x54707f2bf23b288b911ad2b48fdcd002eff7181207450e6f98e54fbd2b92eada",
          "transactionIndex": "0x4",
          "logIndex": "0x2",
          "removed": false
        }
      ],
      "logsBloom": "0x00000000040000000000000000000000000000000000000000000000000000000000000000000000000100000000000000000000000000000000000000000000000000000000000000100008000000000000000000000000000000000000000800000000000000000000000000000000000000000000000000000010000000000000000000000000000000000002000000000000000000000000000100000000000000010000000000000000000000000000000000000000000000000000000000000002000000000000000000000000000000000000000000000000000000000000000000000000000000000020000000000000000000000000000000000010",
      "type": "0x2",
      "transactionHash": "0x54707f2bf23b288b911ad2b48fdcd002eff7181207450e6f98e54fbd2b92eada",
      "transactionIndex": "0x4",
      "blockHash": "0x61ea7d9ecee341368984a756d2bec469ae36ecf8fde1817b91298a77bd376013",
      "blockNumber": "0x1b5739c",
      "gasUsed": "0xf2c3",
      "effectiveGasPrice": "0xf42a7",
      "from": "0xf7164d2fc05350c75387fa6c0cc4f97634ca9451",
      "to": "0x036cbd53842c5426634e7929541ec2318f3dcf7e",
      "contractAddress": null,
      "l1BaseFeeScalar": "0x44d",
      "l1BlobBaseFee": "0x1",
      "l1BlobBaseFeeScalar": "0xa118b",
      "l1Fee": "0xfa75e1",
      "l1GasPrice": "0x8e2d61",
      "l1GasUsed": "0x640"
    },
    {
      "status": "0x1",
      "cumulativeGasUsed": "0xb527d",
      "logs": [],
      "logsBloom": "0x00000000000000000000000000000000000000000000000000000000000000000000000000000000000000000000000000000000000000000000000000000000000000000000000000000000000000000000000000000000000000000000000000000000000000000000000000000000000000000000000000000000000000000000000000000000000000000000000000000000000000000000000000000000000000000000000000000000000000000000000000000000000000000000000000000000000000000000000000000000000000000000000000000000000000000000000000000000000000000000000000000000000000000000000000000000",
      "type": "0x2",
      "transactionHash": "0x249040a8f9cf623b8d72404af3a2618de7d0e1d8e1a7d82f2e7141aec12b1e1b",
      "transactionIndex": "0x5",
      "blockHash": "0x61ea7d9ecee341368984a756d2bec469ae36ecf8fde1817b91298a77bd376013",
      "blockNumber": "0x1b5739c",
      "gasUsed": "0x5b72",
      "effectiveGasPrice": "0xf42a7",
      "from": "0xf7164d2fc05350c75387fa6c0cc4f97634ca9451",
      "to": "0x238213078dbd09f2d15f4c14c02300fa1b2a81bb",
      "contractAddress": null,
      "l1BaseFeeScalar": "0x44d",
      "l1BlobBaseFee": "0x1",
      "l1BlobBaseFeeScalar": "0xa118b",
      "l1Fee": "0x10c5cf6",
      "l1GasPrice": "0x8e2d61",
      "l1GasUsed": "0x6b2"
    },
    {
      "status": "0x1",
      "cumulativeGasUsed": "0xc454c",
      "logs": [
        {
          "address": "0x036cbd53842c5426634e7929541ec2318f3dcf7e",
          "topics": [
            "0xddf252ad1be2c89b69c2b068fc378daa952ba7f163c4a11628f55a4df523b3ef",
            "0x000000000000000000000000f7164d2fc05350c75387fa6c0cc4f97634ca9451",
            "0x000000000000000000000000d85bdcdae4db1faeb8ef93331525fe68d7c8b3f0"
          ],
          "data": "0x00000000000000000000000000000000000000000000000000000000000f4240",
          "blockHash": "0x61ea7d9ecee341368984a756d2bec469ae36ecf8fde1817b91298a77bd376013",
          "blockNumber": "0x1b5739c",
          "blockTimestamp": "0x687e4618",
          "transactionHash": "0x46efbd10b4ded54b59feb8cb6f1dfe033464a51d4beb6a2f9036846f952a09fe",
          "transactionIndex": "0x6",
          "logIndex": "0x3",
          "removed": false
        }
      ],
      "logsBloom": "0x00000000040000000000000000000000000000000000000000000000000000000000000000000000000000000000000000000000000000000000000000000000000000000000000000100008000000000000000000000000000000000000000800000000000000000000000000000000000000000000020000000010000000000000000000000000000000000000000000000000000000000000000100000000000000010000000000000000000000000000000000000000000000000000000000000002000000000000000000000000001000000000000008000000000000000000000000000000000000000020000000000000000000000000000000000000",
      "type": "0x2",
      "transactionHash": "0x46efbd10b4ded54b59feb8cb6f1dfe033464a51d4beb6a2f9036846f952a09fe",
      "transactionIndex": "0x6",
      "blockHash": "0x61ea7d9ecee341368984a756d2bec469ae36ecf8fde1817b91298a77bd376013",
      "blockNumber": "0x1b5739c",
      "gasUsed": "0xf2cf",
      "effectiveGasPrice": "0xf42a7",
      "from": "0xf7164d2fc05350c75387fa6c0cc4f97634ca9451",
      "to": "0x036cbd53842c5426634e7929541ec2318f3dcf7e",
      "contractAddress": null,
      "l1BaseFeeScalar": "0x44d",
      "l1BlobBaseFee": "0x1",
      "l1BlobBaseFeeScalar": "0xa118b",
      "l1Fee": "0xfa75e1",
      "l1GasPrice": "0x8e2d61",
      "l1GasUsed": "0x640"
    },
    {
      "status": "0x1",
      "cumulativeGasUsed": "0x1c960e",
      "logs": [],
      "logsBloom": "0x00000000000000000000000000000000000000000000000000000000000000000000000000000000000000000000000000000000000000000000000000000000000000000000000000000000000000000000000000000000000000000000000000000000000000000000000000000000000000000000000000000000000000000000000000000000000000000000000000000000000000000000000000000000000000000000000000000000000000000000000000000000000000000000000000000000000000000000000000000000000000000000000000000000000000000000000000000000000000000000000000000000000000000000000000000000",
      "type": "0x2",
      "transactionHash": "0x729ecfa3af0016f2ea6a14865caf44f5962715a6054b46b1b70c9c415484adb5",
      "transactionIndex": "0xc",
      "blockHash": "0x61ea7d9ecee341368984a756d2bec469ae36ecf8fde1817b91298a77bd376013",
      "blockNumber": "0x1b5739c",
      "gasUsed": "0x5f0a",
      "effectiveGasPrice": "0xf42a7",
      "from": "0xf7164d2fc05350c75387fa6c0cc4f97634ca9451",
      "to": "0xd85bdcdae4db1faeb8ef93331525fe68d7c8b3f0",
      "contractAddress": null,
      "l1BaseFeeScalar": "0x44d",
      "l1BlobBaseFee": "0x1",
      "l1BlobBaseFeeScalar": "0xa118b",
      "l1Fee": "0x13c8cec",
      "l1GasPrice": "0x8e2d61",
      "l1GasUsed": "0x7e6"
    },
    {
      "status": "0x1",
      "cumulativeGasUsed": "0x1d88dd",
      "logs": [
        {
          "address": "0x036cbd53842c5426634e7929541ec2318f3dcf7e",
          "topics": [
            "0xddf252ad1be2c89b69c2b068fc378daa952ba7f163c4a11628f55a4df523b3ef",
            "0x000000000000000000000000f7164d2fc05350c75387fa6c0cc4f97634ca9451",
            "0x000000000000000000000000dc82c0362a241aa94d53546648eace48c9773daa"
          ],
          "data": "0x00000000000000000000000000000000000000000000000000000000000f4240",
          "blockHash": "0x61ea7d9ecee341368984a756d2bec469ae36ecf8fde1817b91298a77bd376013",
          "blockNumber": "0x1b5739c",
          "blockTimestamp": "0x687e4618",
          "transactionHash": "0x6b28b15043ae04ff29124461abceefa39b9f9dd830dfc4d88cc1a33cc0157002",
          "transactionIndex": "0xd",
          "logIndex": "0x13",
          "removed": false
        }
      ],
      "logsBloom": "0x00000000040000000000000000000000000000000000000000000000000000000000010000000000000000000000000000000000000000000000000000000000001000000000000000100008000000000000000000000000000000000000000800000000000000000000000000000000000000000000000000000010000000000000000000000000000000000000000000000000000000000000000100000000000000010000000000000000000000000000000000000000000000000000000000000002000000000000000000000000000000000000000100000000000000000000000000000000000000000020000000000000000000000000000000000000",
      "type": "0x2",
      "transactionHash": "0x6b28b15043ae04ff29124461abceefa39b9f9dd830dfc4d88cc1a33cc0157002",
      "transactionIndex": "0xd",
      "blockHash": "0x61ea7d9ecee341368984a756d2bec469ae36ecf8fde1817b91298a77bd376013",
      "blockNumber": "0x1b5739c",
      "gasUsed": "0xf2cf",
      "effectiveGasPrice": "0xf42a7",
      "from": "0xf7164d2fc05350c75387fa6c0cc4f97634ca9451",
      "to": "0x036cbd53842c5426634e7929541ec2318f3dcf7e",
      "contractAddress": null,
      "l1BaseFeeScalar": "0x44d",
      "l1BlobBaseFee": "0x1",
      "l1BlobBaseFeeScalar": "0xa118b",
      "l1Fee": "0xfa75e1",
      "l1GasPrice": "0x8e2d61",
      "l1GasUsed": "0x640"
    },
    {
      "status": "0x1",
      "cumulativeGasUsed": "0x1de44f",
      "logs": [],
      "logsBloom": "0x00000000000000000000000000000000000000000000000000000000000000000000000000000000000000000000000000000000000000000000000000000000000000000000000000000000000000000000000000000000000000000000000000000000000000000000000000000000000000000000000000000000000000000000000000000000000000000000000000000000000000000000000000000000000000000000000000000000000000000000000000000000000000000000000000000000000000000000000000000000000000000000000000000000000000000000000000000000000000000000000000000000000000000000000000000000",
      "type": "0x2",
      "transactionHash": "0xb8ffc0f03f9c783f4e9ace000ec5d0b542c520698a01cdaaf8ce2c82c401c40c",
      "transactionIndex": "0xe",
      "blockHash": "0x61ea7d9ecee341368984a756d2bec469ae36ecf8fde1817b91298a77bd376013",
      "blockNumber": "0x1b5739c",
      "gasUsed": "0x5b72",
      "effectiveGasPrice": "0xf42a7",
      "from": "0xf7164d2fc05350c75387fa6c0cc4f97634ca9451",
      "to": "0xdc82c0362a241aa94d53546648eace48c9773daa",
      "contractAddress": null,
      "l1BaseFeeScalar": "0x44d",
      "l1BlobBaseFee": "0x1",
      "l1BlobBaseFeeScalar": "0xa118b",
      "l1Fee": "0x10a449d",
      "l1GasPrice": "0x8e2d61",
      "l1GasUsed": "0x6a4"
    },
    {
      "status": "0x1",
      "cumulativeGasUsed": "0x22603c",
      "logs": [
        {
          "address": "0x036cbd53842c5426634e7929541ec2318f3dcf7e",
          "topics": [
            "0xddf252ad1be2c89b69c2b068fc378daa952ba7f163c4a11628f55a4df523b3ef",
            "0x000000000000000000000000f7164d2fc05350c75387fa6c0cc4f97634ca9451",
            "0x000000000000000000000000dae97900d4b184c5d2012dcdb658c008966466dd"
          ],
          "data": "0x00000000000000000000000000000000000000000000000000000000002dc6c1",
          "blockHash": "0x61ea7d9ecee341368984a756d2bec469ae36ecf8fde1817b91298a77bd376013",
          "blockNumber": "0x1b5739c",
          "blockTimestamp": "0x687e4618",
          "transactionHash": "0x363f28690a28681259d83e2012b87713c5873387fab762e7da5d1e7ea81946d8",
          "transactionIndex": "0x12",
          "logIndex": "0x1a",
          "removed": false
        }
      ],
      "logsBloom": "0x00000000040000000000000000000000000000000000000000000000000000000400000000000000000000000000000000000000000000000000000000000000000000000000000000100008000000000000000000000020000000000000000800000000000000000000000000000000000000000000000000000010000000000000000000000000000000200000000000000000000000000000000100000000000000010000000000000000000000000000000000000000000000000000000000000002000000000000000000000000000000000000000000000000000000000000000000000000000000000020000000000000000000000000000000000000",
      "type": "0x2",
      "transactionHash": "0x363f28690a28681259d83e2012b87713c5873387fab762e7da5d1e7ea81946d8",
      "transactionIndex": "0x12",
      "blockHash": "0x61ea7d9ecee341368984a756d2bec469ae36ecf8fde1817b91298a77bd376013",
      "blockNumber": "0x1b5739c",
      "gasUsed": "0xf2c3",
      "effectiveGasPrice": "0xf42a7",
      "from": "0xf7164d2fc05350c75387fa6c0cc4f97634ca9451",
      "to": "0x036cbd53842c5426634e7929541ec2318f3dcf7e",
      "contractAddress": null,
      "l1BaseFeeScalar": "0x44d",
      "l1BlobBaseFee": "0x1",
      "l1BlobBaseFeeScalar": "0xa118b",
      "l1Fee": "0xfa75e1",
      "l1GasPrice": "0x8e2d61",
      "l1GasUsed": "0x640"
    },
    {
      "status": "0x1",
      "cumulativeGasUsed": "0x22c914",
      "logs": [],
      "logsBloom": "0x00000000000000000000000000000000000000000000000000000000000000000000000000000000000000000000000000000000000000000000000000000000000000000000000000000000000000000000000000000000000000000000000000000000000000000000000000000000000000000000000000000000000000000000000000000000000000000000000000000000000000000000000000000000000000000000000000000000000000000000000000000000000000000000000000000000000000000000000000000000000000000000000000000000000000000000000000000000000000000000000000000000000000000000000000000000",
      "type": "0x2",
      "transactionHash": "0xcb82db09da197edc288a2c88c88cc57c63c2608d3a03d14d8ff97229877b02c6",
      "transactionIndex": "0x13",
      "blockHash": "0x61ea7d9ecee341368984a756d2bec469ae36ecf8fde1817b91298a77bd376013",
      "blockNumber": "0x1b5739c",
      "gasUsed": "0x68d8",
      "effectiveGasPrice": "0xf42a7",
      "from": "0xf7164d2fc05350c75387fa6c0cc4f97634ca9451",
      "to": "0xdae97900d4b184c5d2012dcdb658c008966466dd",
      "contractAddress": null,
      "l1BaseFeeScalar": "0x44d",
      "l1BlobBaseFee": "0x1",
      "l1BlobBaseFeeScalar": "0xa118b",
      "l1Fee": "0x1c6d3c3",
      "l1GasPrice": "0x8e2d61",
      "l1GasUsed": "0xb59"
    }
  ],
  "libraries": [],
  "pending": [],
  "returns": {},
  "timestamp": 1753105941,
  "chain": 84532,
  "commit": "b631155"
}