{
  "transactions": [
    {
      "hash": "0xfaac7a4d8703793902f78040082b6c9c92b50952a7fb82a121e147c211c53b47",
      "transactionType": "CREATE",
      "contractName": "TimelockControllerEnumerable",
      "contractAddress": "0x220d1165798ac86bd70d987adfc9e5ff8a317363",
      "function": null,
      "arguments": [
        "604800",
        "[0xa9c62d9E0F2208456E50B208aE2547F36Bc3452d]",
        "[0xa9c62d9E0F2208456E50B208aE2547F36Bc3452d]",
        "0x7cBb7bE250C366Ab5458260c9ee8bc7912CD7Fe3"
      ],
      "transaction": {
        "from": "0x7cbb7be250c366ab5458260c9ee8bc7912cd7fe3",
        "gas": "0x389d17",
        "value": "0x0",
        "input": "0x608060405234801561000f575f80fd5b5060405161333d38038061333d83398101604081905261002e916102fe565b8383838361003c5f30610183565b506001600160a01b03811615610058576100565f82610183565b505b5f5b83518110156100ec576100ac7fb09aa5aeb3702cfd50b6b62bc4532604938f21248a27a1d5ca736082b6819cc18583815181106100995761009961037d565b602002602001015161018360201b60201c565b506100e37ffd643c72710c63c0180259aba6b2d05451e3591a24e58b62239378085726f7838583815181106100995761009961037d565b5060010161005a565b505f5b82518110156101375761012e7fd8aa0f3194971a2a116679f7c2090f6939c8d4e01a2a8d7e41d55e5351469e638483815181106100995761009961037d565b506001016100ef565b506002849055604080515f8152602081018690527f11c24f4ead16507c69ac467fbd5e4eed5fb5c699626d2cc6d66421df253886d5910160405180910390a15050505050505050610391565b5f828152602081815260408083206001600160a01b038516845290915281205460ff16610223575f838152602081815260408083206001600160a01b03861684529091529020805460ff191660011790556101db3390565b6001600160a01b0316826001600160a01b0316847f2f8788117e7eff1d82e926ec794901d17c78024a50270940304540a733656f0d60405160405180910390a4506001610226565b505f5b92915050565b634e487b7160e01b5f52604160045260245ffd5b80516001600160a01b0381168114610256575f80fd5b919050565b5f82601f83011261026a575f80fd5b81516001600160401b038111156102835761028361022c565b604051600582901b90603f8201601f191681016001600160401b03811182821017156102b1576102b161022c565b6040529182526020818501810192908101868411156102ce575f80fd5b6020860192505b838310156102f4576102e683610240565b8152602092830192016102d5565b5095945050505050565b5f805f8060808587031215610311575f80fd5b845160208601519094506001600160401b0381111561032e575f80fd5b61033a8782880161025b565b604087015190945090506001600160401b03811115610357575f80fd5b6103638782880161025b565b92505061037260608601610240565b905092959194509250565b634e487b7160e01b5f52603260045260245ffd5b612f9f8061039e5f395ff3fe60806040526004361061020a575f3560e01c80638065657f11610113578063c4d252f51161009d578063e991f1eb1161006d578063e991f1eb1461067c578063e996914b1461069b578063f23a6e61146106bc578063f27a0c92146106e7578063f4fb6907146106fb575f80fd5b8063c4d252f514610600578063d45c44351461061f578063d547741f1461064a578063e38335e514610669575f80fd5b806391d14854116100e357806391d1485414610551578063a217fddf14610570578063b08e51c014610583578063b1c5f427146105b6578063bc197c81146105d5575f80fd5b80638065657f146104bf5780638b33b4b2146104de5780638f2a0bb0146104ff5780638f61f4f51461051e575f80fd5b80632b4e7c1d116101945780633f602403116101645780633f6024031461040a57806347da73be14610436578063584b153e1461045557806364d62353146104745780637958004c14610493575f80fd5b80632b4e7c1d146103995780632f2ff15d146103ad57806331d50750146103cc57806336568abe146103eb575f80fd5b806313bc9f20116101da57806313bc9f20146102be578063150b7a02146102dd578063248a9ca31461032057806329f527c71461034e5780632ab0f5291461037a575f80fd5b806301d5062a1461021557806301ffc9a71461023657806307bd02651461026a578063134008d3146102ab575f80fd5b3661021157005b5f80fd5b348015610220575f80fd5b5061023461022f3660046122ec565b61070f565b005b348015610241575f80fd5b5061025561025036600461235a565b610818565b60405190151581526020015b60405180910390f35b348015610275575f80fd5b5061029d7fd8aa0f3194971a2a116679f7c2090f6939c8d4e01a2a8d7e41d55e5351469e6381565b604051908152602001610261565b6102346102b9366004612381565b610828565b3480156102c9575f80fd5b506102556102d83660046123e7565b6108da565b3480156102e8575f80fd5b506103076102f73660046124ad565b630a85bd0160e11b949350505050565b6040516001600160e01b03199091168152602001610261565b34801561032b575f80fd5b5061029d61033a3660046123e7565b5f9081526020819052604090206001015490565b348015610359575f80fd5b5061036d6103683660046123e7565b6108ff565b604051610261919061267a565b348015610385575f80fd5b506102556103943660046123e7565b610af6565b3480156103a4575f80fd5b5061029d610afe565b3480156103b8575f80fd5b506102346103c736600461268c565b610b0e565b3480156103d7575f80fd5b506102556103e63660046123e7565b610b38565b3480156103f6575f80fd5b5061023461040536600461268c565b610b5c565b348015610415575f80fd5b506104296104243660046123e7565b610b94565b6040516102619190612710565b348015610441575f80fd5b506104296104503660046123e7565b610cc2565b348015610460575f80fd5b5061025561046f3660046123e7565b610d3e565b34801561047f575f80fd5b5061023461048e3660046123e7565b610d83565b34801561049e575f80fd5b506104b26104ad3660046123e7565b610df1565b6040516102619190612736565b3480156104ca575f80fd5b5061029d6104d9366004612381565b610e3f565b3480156104e9575f80fd5b506104f2610e7d565b604051610261919061275c565b34801561050a575f80fd5b506102346105193660046127ff565b611007565b348015610529575f80fd5b5061029d7fb09aa5aeb3702cfd50b6b62bc4532604938f21248a27a1d5ca736082b6819cc181565b34801561055c575f80fd5b5061025561056b36600461268c565b611158565b34801561057b575f80fd5b5061029d5f81565b34801561058e575f80fd5b5061029d7ffd643c72710c63c0180259aba6b2d05451e3591a24e58b62239378085726f78381565b3480156105c1575f80fd5b5061029d6105d03660046128b1565b611180565b3480156105e0575f80fd5b506103076105ef3660046129e7565b63bc197c8160e01b95945050505050565b34801561060b575f80fd5b5061023461061a3660046123e7565b6111c4565b34801561062a575f80fd5b5061029d6106393660046123e7565b5f9081526001602052604090205490565b348015610655575f80fd5b5061023461066436600461268c565b611298565b6102346106773660046128b1565b6112bc565b348015610687575f80fd5b5061036d6106963660046123e7565b61143d565b3480156106a6575f80fd5b506106af611617565b6040516102619190612a93565b3480156106c7575f80fd5b506103076106d6366004612aea565b63f23a6e6160e01b95945050505050565b3480156106f2575f80fd5b5060025461029d565b348015610706575f80fd5b5061029d611876565b61071e87878787878787611881565b5f61072d888888888888610e3f565b905061073a600382611955565b506040518060c00160405280896001600160a01b0316815260200188815260200187878080601f0160208091040260200160405190810160405280939291908181526020018383808284375f9201829052509385525050506020808301889052604080840188905260609093018690528482526005815290829020835181546001600160a01b0319166001600160a01b039091161781559083015160018201559082015160028201906107ed9082612bba565b50606082015160038201556080820151600482015560a0909101516005909101555050505050505050565b5f61082282611960565b92915050565b7fd8aa0f3194971a2a116679f7c2090f6939c8d4e01a2a8d7e41d55e5351469e63610853815f611158565b610861576108618133611984565b5f610870888888888888610e3f565b905061087c81856119c1565b61088888888888611a31565b5f817fc2617efa69bab66782fa219543714338489c4e9e178271560a91b82c3f612b588a8a8a8a6040516108bf9493929190612c9c565b60405180910390a36108d081611aa5565b5050505050505050565b5f60025b6108e783610df1565b60038111156108f8576108f8612722565b1492915050565b610907612096565b610912600683611ad0565b61093757604051630309e9cd60e21b8152600481018390526024015b60405180910390fd5b5f828152600860209081526040918290208251815460e09381028201840190945260c08101848152909391928492849184018282801561099e57602002820191905f5260205f20905b81546001600160a01b03168152600190910190602001808311610980575b50505050508152602001600182018054806020026020016040519081016040528092919081815260200182805480156109f457602002820191905f5260205f20905b8154815260200190600101908083116109e0575b5050505050815260200160028201805480602002602001604051908101604052809291908181526020015f905b82821015610ac9578382905f5260205f20018054610a3e90612b3d565b80601f0160208091040260200160405190810160405280929190818152602001828054610a6a90612b3d565b8015610ab55780601f10610a8c57610100808354040283529160200191610ab5565b820191905f5260205f20905b815481529060010190602001808311610a9857829003601f168201915b505050505081526020019060010190610a21565b50505050815260200160038201548152602001600482015481526020016005820154815250509050919050565b5f60036108de565b5f610b096003611ae7565b905090565b5f82815260208190526040902060010154610b2881611af0565b610b328383611afa565b50505050565b5f80610b4383610df1565b6003811115610b5457610b54612722565b141592915050565b6001600160a01b0381163314610b855760405163334bd91960e11b815260040160405180910390fd5b610b8f8282611b89565b505050565b610b9c6120cf565b610ba66003611ae7565b8210610bc85760405163360554a160e01b81526004810183905260240161092e565b60055f610bd6600385611bf2565b815260208082019290925260409081015f20815160c08101835281546001600160a01b031681526001820154938101939093526002810180549192840191610c1d90612b3d565b80601f0160208091040260200160405190810160405280929190818152602001828054610c4990612b3d565b8015610c945780601f10610c6b57610100808354040283529160200191610c94565b820191905f5260205f20905b815481529060010190602001808311610c7757829003601f168201915b5050505050815260200160038201548152602001600482015481526020016005820154815250509050919050565b610cca6120cf565b610cd5600383611ad0565b610cf557604051632e6d892f60e11b81526004810183905260240161092e565b5f82815260056020908152604091829020825160c08101845281546001600160a01b031681526001820154928101929092526002810180549293919291840191610c1d90612b3d565b5f80610d4983610df1565b90506001816003811115610d5f57610d5f612722565b1480610d7c57506002816003811115610d7a57610d7a612722565b145b9392505050565b33308114610daf5760405163e2850c5960e01b81526001600160a01b038216600482015260240161092e565b60025460408051918252602082018490527f11c24f4ead16507c69ac467fbd5e4eed5fb5c699626d2cc6d66421df253886d5910160405180910390a150600255565b5f81815260016020526040812054805f03610e0e57505f92915050565b60018103610e1f5750600392915050565b42811115610e305750600192915050565b50600292915050565b50919050565b5f868686868686604051602001610e5b96959493929190612ccd565b6040516020818303038152906040528051906020012090509695505050505050565b60605f610e8a6003611ae7565b9050806001600160401b03811115610ea457610ea46123fe565b604051908082528060200260200182016040528015610edd57816020015b610eca6120cf565b815260200190600190039081610ec25790505b5091505f5b818110156110025760055f610ef8600384611bf2565b815260208082019290925260409081015f20815160c08101835281546001600160a01b031681526001820154938101939093526002810180549192840191610f3f90612b3d565b80601f0160208091040260200160405190810160405280929190818152602001828054610f6b90612b3d565b8015610fb65780601f10610f8d57610100808354040283529160200191610fb6565b820191905f5260205f20905b815481529060010190602001808311610f9957829003601f168201915b505050505081526020016003820154815260200160048201548152602001600582015481525050838281518110610fef57610fef612d09565b6020908102919091010152600101610ee2565b505090565b611018898989898989898989611bfd565b5f6110298a8a8a8a8a8a8a8a611180565b9050611036600682611955565b506040518060c001604052808b8b808060200260200160405190810160405280939291908181526020018383602002808284375f920191909152505050908252506040805160208b810282810182019093528b82529283019290918c918c9182918501908490808284375f920191909152505050908252506020016110bb8789612d1d565b81526020808201879052604080830187905260609092018590525f84815260088252919091208251805191926110f692849290910190612104565b50602082810151805161110f9260018501920190612167565b506040820151805161112b9160028401916020909101906121a0565b50606082015160038201556080820151600482015560a09091015160059091015550505050505050505050565b5f918252602082815260408084206001600160a01b0393909316845291905290205460ff1690565b5f88888888888888886040516020016111a0989796959493929190612e12565b60405160208183030381529060405280519060200120905098975050505050505050565b6111cd81611d89565b6111d8600382611ad0565b15611230576111e8600382611e33565b505f81815260056020526040812080546001600160a01b0319168155600181018290559061121960028301826121f0565b505f60038201819055600482018190556005909101555b61123b600682611ad0565b156112955761124b600682611e33565b505f818152600860205260408120906112648282612227565b611271600183015f612227565b61127e600283015f612242565b505f60038201819055600482018190556005909101555b50565b5f828152602081905260409020600101546112b281611af0565b610b328383611b89565b7fd8aa0f3194971a2a116679f7c2090f6939c8d4e01a2a8d7e41d55e5351469e636112e7815f611158565b6112f5576112f58133611984565b87861415806113045750878414155b15611336576040516001624fcdef60e01b0319815260048101899052602481018590526044810187905260640161092e565b5f6113478a8a8a8a8a8a8a8a611180565b905061135381856119c1565b5f5b89811015611427575f8b8b8381811061137057611370612d09565b90506020020160208101906113859190612eb1565b90505f8a8a8481811061139a5761139a612d09565b905060200201359050365f8a8a868181106113b7576113b7612d09565b90506020028101906113c99190612eca565b915091506113d984848484611a31565b84867fc2617efa69bab66782fa219543714338489c4e9e178271560a91b82c3f612b58868686866040516114109493929190612c9c565b60405180910390a350505050806001019050611355565b5061143181611aa5565b50505050505050505050565b611445612096565b61144f6006611ae7565b8210611470576040516238829960ea1b81526004810183905260240161092e565b60085f61147e600685611bf2565b81526020019081526020015f206040518060c00160405290815f82018054806020026020016040519081016040528092919081815260200182805480156114ec57602002820191905f5260205f20905b81546001600160a01b031681526001909101906020018083116114ce575b505050505081526020016001820180548060200260200160405190810160405280929190818152602001828054801561154257602002820191905f5260205f20905b81548152602001906001019080831161152e575b5050505050815260200160028201805480602002602001604051908101604052809291908181526020015f905b82821015610ac9578382905f5260205f2001805461158c90612b3d565b80601f01602080910402602001604051908101604052809291908181526020018280546115b890612b3d565b80156116035780601f106115da57610100808354040283529160200191611603565b820191905f5260205f20905b8154815290600101906020018083116115e657829003601f168201915b50505050508152602001906001019061156f565b60605f6116246006611ae7565b9050806001600160401b0381111561163e5761163e6123fe565b60405190808252806020026020018201604052801561167757816020015b611664612096565b81526020019060019003908161165c5790505b5091505f5b818110156110025760085f611692600684611bf2565b81526020019081526020015f206040518060c00160405290815f820180548060200260200160405190810160405280929190818152602001828054801561170057602002820191905f5260205f20905b81546001600160a01b031681526001909101906020018083116116e2575b505050505081526020016001820180548060200260200160405190810160405280929190818152602001828054801561175657602002820191905f5260205f20905b815481526020019060010190808311611742575b5050505050815260200160028201805480602002602001604051908101604052809291908181526020015f905b8282101561182b578382905f5260205f200180546117a090612b3d565b80601f01602080910402602001604051908101604052809291908181526020018280546117cc90612b3d565b80156118175780601f106117ee57610100808354040283529160200191611817565b820191905f5260205f20905b8154815290600101906020018083116117fa57829003601f168201915b505050505081526020019060010190611783565b505050508152602001600382015481526020016004820154815260200160058201548152505083828151811061186357611863612d09565b602090810291909101015260010161167c565b5f610b096006611ae7565b7fb09aa5aeb3702cfd50b6b62bc4532604938f21248a27a1d5ca736082b6819cc16118ab81611af0565b5f6118ba898989898989610e3f565b90506118c68184611e3e565b5f817f4cf4410cc57040e44862ef0f45f3dd5a5e02db8eb8add648d4b0e236f1d07dca8b8b8b8b8b8a60405161190196959493929190612ccd565b60405180910390a3831561194a57807f20fda5fd27a1ea7bf5b9567f143ac5470bb059374a27e8f67cb44f946f6d03878560405161194191815260200190565b60405180910390a25b505050505050505050565b5f610d7c8383611ead565b5f6001600160e01b03198216630271189760e51b1480610822575061082282611ef2565b61198e8282611158565b6119bd5760405163e2517d3f60e01b81526001600160a01b03821660048201526024810183905260440161092e565b5050565b6119ca826108da565b6119fb57816119d96002611f26565b604051635ead8eb560e01b81526004810192909252602482015260440161092e565b8015801590611a105750611a0e81610af6565b155b156119bd5760405163121534c360e31b81526004810182905260240161092e565b5f80856001600160a01b0316858585604051611a4e929190612f0c565b5f6040518083038185875af1925050503d805f8114611a88576040519150601f19603f3d011682016040523d82523d5f602084013e611a8d565b606091505b5091509150611a9c8282611f48565b50505050505050565b611aae816108da565b611abd57806119d96002611f26565b5f90815260016020819052604090912055565b5f8181526001830160205260408120541515610d7c565b5f610822825490565b6112958133611984565b5f611b058383611158565b611b82575f838152602081815260408083206001600160a01b03861684529091529020805460ff19166001179055611b3a3390565b6001600160a01b0316826001600160a01b0316847f2f8788117e7eff1d82e926ec794901d17c78024a50270940304540a733656f0d60405160405180910390a4506001610822565b505f610822565b5f611b948383611158565b15611b82575f838152602081815260408083206001600160a01b0386168085529252808320805460ff1916905551339286917ff6391f5c32d9c69d2a47ea670b442974b53935d1edc7fd64eb21e047a839171b9190a4506001610822565b5f610d7c8383611f64565b7fb09aa5aeb3702cfd50b6b62bc4532604938f21248a27a1d5ca736082b6819cc1611c2781611af0565b8887141580611c365750888514155b15611c68576040516001624fcdef60e01b03198152600481018a9052602481018690526044810188905260640161092e565b5f611c798b8b8b8b8b8b8b8b611180565b9050611c858184611e3e565b5f5b8a811015611d3a5780827f4cf4410cc57040e44862ef0f45f3dd5a5e02db8eb8add648d4b0e236f1d07dca8e8e85818110611cc457611cc4612d09565b9050602002016020810190611cd99190612eb1565b8d8d86818110611ceb57611ceb612d09565b905060200201358c8c87818110611d0457611d04612d09565b9050602002810190611d169190612eca565b8c8b604051611d2a96959493929190612ccd565b60405180910390a3600101611c87565b508315611d7c57807f20fda5fd27a1ea7bf5b9567f143ac5470bb059374a27e8f67cb44f946f6d038785604051611d7391815260200190565b60405180910390a25b5050505050505050505050565b7ffd643c72710c63c0180259aba6b2d05451e3591a24e58b62239378085726f783611db381611af0565b611dbc82610d3e565b611df85781611dcb6002611f26565b611dd56001611f26565b604051635ead8eb560e01b8152600481019390935217602482015260440161092e565b5f828152600160205260408082208290555183917fbaa1eb22f2a492ba1a5fea61b8df4d27c6c8b5f3971e63bb58fa14ff72eedb7091a25050565b5f610d7c8383611f8a565b611e4782610b38565b15611e5657816119d95f611f26565b5f611e6060025490565b905080821015611e8d57604051635433660960e01b8152600481018390526024810182905260440161092e565b611e978242612f2f565b5f93845260016020526040909320929092555050565b5f818152600183016020526040812054611b8257508154600181810184555f848152602080822090930184905584548482528286019093526040902091909155610822565b5f6001600160e01b03198216637965db0b60e01b148061082257506301ffc9a760e01b6001600160e01b0319831614610822565b5f816003811115611f3957611f39612722565b600160ff919091161b92915050565b606082611f5d57611f588261206d565b610822565b5080610822565b5f825f018281548110611f7957611f79612d09565b905f5260205f200154905092915050565b5f8181526001830160205260408120548015612064575f611fac600183612f42565b85549091505f90611fbf90600190612f42565b905080821461201e575f865f018281548110611fdd57611fdd612d09565b905f5260205f200154905080875f018481548110611ffd57611ffd612d09565b5f918252602080832090910192909255918252600188019052604090208390555b855486908061202f5761202f612f55565b600190038181905f5260205f20015f90559055856001015f8681526020019081526020015f205f905560019350505050610822565b5f915050610822565b80511561207d5780518082602001fd5b60405163d6bda27560e01b815260040160405180910390fd5b6040518060c001604052806060815260200160608152602001606081526020015f80191681526020015f80191681526020015f81525090565b6040805160c0810182525f8082526020820181905260609282018390529181018290526080810182905260a081019190915290565b828054828255905f5260205f20908101928215612157579160200282015b8281111561215757825182546001600160a01b0319166001600160a01b03909116178255602090920191600190910190612122565b5061216392915061225d565b5090565b828054828255905f5260205f20908101928215612157579160200282015b82811115612157578251825591602001919060010190612185565b828054828255905f5260205f209081019282156121e4579160200282015b828111156121e457825182906121d49082612bba565b50916020019190600101906121be565b50612163929150612271565b5080546121fc90612b3d565b5f825580601f1061220b575050565b601f0160209004905f5260205f2090810190611295919061225d565b5080545f8255905f5260205f2090810190611295919061225d565b5080545f8255905f5260205f20908101906112959190612271565b5b80821115612163575f815560010161225e565b80821115612163575f61228482826121f0565b50600101612271565b80356001600160a01b03811681146122a3575f80fd5b919050565b5f8083601f8401126122b8575f80fd5b5081356001600160401b038111156122ce575f80fd5b6020830191508360208285010111156122e5575f80fd5b9250929050565b5f805f805f805f60c0888a031215612302575f80fd5b61230b8861228d565b96506020880135955060408801356001600160401b0381111561232c575f80fd5b6123388a828b016122a8565b989b979a50986060810135976080820135975060a09091013595509350505050565b5f6020828403121561236a575f80fd5b81356001600160e01b031981168114610d7c575f80fd5b5f805f805f8060a08789031215612396575f80fd5b61239f8761228d565b95506020870135945060408701356001600160401b038111156123c0575f80fd5b6123cc89828a016122a8565b979a9699509760608101359660809091013595509350505050565b5f602082840312156123f7575f80fd5b5035919050565b634e487b7160e01b5f52604160045260245ffd5b604051601f8201601f191681016001600160401b038111828210171561243a5761243a6123fe565b604052919050565b5f82601f830112612451575f80fd5b81356001600160401b0381111561246a5761246a6123fe565b61247d601f8201601f1916602001612412565b818152846020838601011115612491575f80fd5b816020850160208301375f918101602001919091529392505050565b5f805f80608085870312156124c0575f80fd5b6124c98561228d565b93506124d76020860161228d565b92506040850135915060608501356001600160401b038111156124f8575f80fd5b61250487828801612442565b91505092959194509250565b5f8151808452602084019350602083015f5b82811015612540578151865260209586019590910190600101612522565b5093949350505050565b5f81518084528060208401602086015e5f602082860101526020601f19601f83011685010191505092915050565b5f82825180855260208501945060208160051b830101602085015f5b838110156125c657601f198584030188526125b083835161254a565b6020988901989093509190910190600101612594565b50909695505050505050565b805160c080845281519084018190525f9160200190829060e08601905b8083101561261a5783516001600160a01b0316825260209384019360019390930192909101906125ef565b506020850151925085810360208701526126348184612510565b925050506040830151848203604086015261264f8282612578565b915050606083015160608501526080830151608085015260a083015160a08501528091505092915050565b602081525f610d7c60208301846125d2565b5f806040838503121561269d575f80fd5b823591506126ad6020840161228d565b90509250929050565b60018060a01b038151168252602081015160208301525f604082015160c060408501526126e660c085018261254a565b9050606083015160608501526080830151608085015260a083015160a08501528091505092915050565b602081525f610d7c60208301846126b6565b634e487b7160e01b5f52602160045260245ffd5b602081016004831061275657634e487b7160e01b5f52602160045260245ffd5b91905290565b5f602082016020835280845180835260408501915060408160051b8601019250602086015f5b828110156127b357603f1987860301845261279e8583516126b6565b94506020938401939190910190600101612782565b50929695505050505050565b5f8083601f8401126127cf575f80fd5b5081356001600160401b038111156127e5575f80fd5b6020830191508360208260051b85010111156122e5575f80fd5b5f805f805f805f805f60c08a8c031215612817575f80fd5b89356001600160401b0381111561282c575f80fd5b6128388c828d016127bf565b909a5098505060208a01356001600160401b03811115612856575f80fd5b6128628c828d016127bf565b90985096505060408a01356001600160401b03811115612880575f80fd5b61288c8c828d016127bf565b9a9d999c50979a969997986060880135976080810135975060a0013595509350505050565b5f805f805f805f8060a0898b0312156128c8575f80fd5b88356001600160401b038111156128dd575f80fd5b6128e98b828c016127bf565b90995097505060208901356001600160401b03811115612907575f80fd5b6129138b828c016127bf565b90975095505060408901356001600160401b03811115612931575f80fd5b61293d8b828c016127bf565b999c989b509699959896976060870135966080013595509350505050565b5f6001600160401b03821115612973576129736123fe565b5060051b60200190565b5f82601f83011261298c575f80fd5b813561299f61299a8261295b565b612412565b8082825260208201915060208360051b8601019250858311156129c0575f80fd5b602085015b838110156129dd5780358352602092830192016129c5565b5095945050505050565b5f805f805f60a086880312156129fb575f80fd5b612a048661228d565b9450612a126020870161228d565b935060408601356001600160401b03811115612a2c575f80fd5b612a388882890161297d565b93505060608601356001600160401b03811115612a53575f80fd5b612a5f8882890161297d565b92505060808601356001600160401b03811115612a7a575f80fd5b612a8688828901612442565b9150509295509295909350565b5f602082016020835280845180835260408501915060408160051b8601019250602086015f5b828110156127b357603f19878603018452612ad58583516125d2565b94506020938401939190910190600101612ab9565b5f805f805f60a08688031215612afe575f80fd5b612b078661228d565b9450612b156020870161228d565b9350604086013592506060860135915060808601356001600160401b03811115612a7a575f80fd5b600181811c90821680612b5157607f821691505b602082108103610e3957634e487b7160e01b5f52602260045260245ffd5b601f821115610b8f57805f5260205f20601f840160051c81016020851015612b945750805b601f840160051c820191505b81811015612bb3575f8155600101612ba0565b5050505050565b81516001600160401b03811115612bd357612bd36123fe565b612be781612be18454612b3d565b84612b6f565b6020601f821160018114612c19575f8315612c025750848201515b5f19600385901b1c1916600184901b178455612bb3565b5f84815260208120601f198516915b82811015612c485787850151825560209485019460019092019101612c28565b5084821015612c6557868401515f19600387901b60f8161c191681555b50505050600190811b01905550565b81835281816020850137505f828201602090810191909152601f909101601f19169091010190565b60018060a01b0385168152836020820152606060408201525f612cc3606083018486612c74565b9695505050505050565b60018060a01b038716815285602082015260a060408201525f612cf460a083018688612c74565b60608301949094525060800152949350505050565b634e487b7160e01b5f52603260045260245ffd5b5f612d2a61299a8461295b565b8381526020810190600585901b840136811115612d45575f80fd5b845b81811015612d7f5780356001600160401b03811115612d64575f80fd5b612d7036828901612442565b85525060209384019301612d47565b509095945050505050565b5f8383855260208501945060208460051b820101835f5b868110156125c657838303601f19018852813536879003601e19018112612dc6575f80fd5b86016020810190356001600160401b03811115612de1575f80fd5b803603821315612def575f80fd5b612dfa858284612c74565b60209a8b019a90955093909301925050600101612da1565b60a080825281018890525f8960c08301825b8b811015612e52576001600160a01b03612e3d8461228d565b16825260209283019290910190600101612e24565b5083810360208501528881526001600160fb1b03891115612e71575f80fd5b8860051b9150818a60208301370182810360209081016040850152612e999082018789612d8a565b60608401959095525050608001529695505050505050565b5f60208284031215612ec1575f80fd5b610d7c8261228d565b5f808335601e19843603018112612edf575f80fd5b8301803591506001600160401b03821115612ef8575f80fd5b6020019150368190038213156122e5575f80fd5b818382375f9101908152919050565b634e487b7160e01b5f52601160045260245ffd5b8082018082111561082257610822612f1b565b8181038181111561082257610822612f1b565b634e487b7160e01b5f52603160045260245ffdfea26469706673582212200d605c3b959521fdd906e72efa3c4fe43df2bba2d0ce599f58d5d427e1a1672d64736f6c634300081a00330000000000000000000000000000000000000000000000000000000000093a80000000000000000000000000000000000000000000000000000000000000008000000000000000000000000000000000000000000000000000000000000000c00000000000000000000000007cbb7be250c366ab5458260c9ee8bc7912cd7fe30000000000000000000000000000000000000000000000000000000000000001000000000000000000000000a9c62d9e0f2208456e50b208ae2547f36bc3452d0000000000000000000000000000000000000000000000000000000000000001000000000000000000000000a9c62d9e0f2208456e50b208ae2547f36bc3452d",
        "nonce": "0xe",
        "chainId": "0x2105"
      },
      "additionalContracts": [],
      "isFixedGasLimit": false
    },
    {
      "hash": "0x9e91691ffde21edd551417ee2a5bc70d607a3687d33eaf4514612d88938a2c5f",
      "transactionType": "CALL",
      "contractName": "TimelockControllerEnumerable",
      "contractAddress": "0x220d1165798ac86bd70d987adfc9e5ff8a317363",
      "function": "grantRole(bytes32,address)",
      "arguments": [
        "0xfd643c72710c63c0180259aba6b2d05451e3591a24e58b62239378085726f783",
        "0x8CCC19FBf3AB778D27947B01Ba66C113559E2e9F"
      ],
      "transaction": {
        "from": "0x7cbb7be250c366ab5458260c9ee8bc7912cd7fe3",
        "to": "0x220d1165798ac86bd70d987adfc9e5ff8a317363",
        "gas": "0x115e9",
        "value": "0x0",
        "input": "0x2f2ff15dfd643c72710c63c0180259aba6b2d05451e3591a24e58b62239378085726f7830000000000000000000000008ccc19fbf3ab778d27947b01ba66c113559e2e9f",
        "nonce": "0xf",
        "chainId": "0x2105"
      },
      "additionalContracts": [],
      "isFixedGasLimit": false
    },
    {
      "hash": "0xb6ddee40911bb5ed36c8785c778750692a4bb81cecdde34d50f3c6cce7fc6737",
      "transactionType": "CALL",
      "contractName": "TimelockControllerEnumerable",
      "contractAddress": "0x220d1165798ac86bd70d987adfc9e5ff8a317363",
      "function": "grantRole(bytes32,address)",
      "arguments": [
        "0xfd643c72710c63c0180259aba6b2d05451e3591a24e58b62239378085726f783",
        "0xfB2401825B89fd36B9DE3a4E53C48Aa6485509c2"
      ],
      "transaction": {
        "from": "0x7cbb7be250c366ab5458260c9ee8bc7912cd7fe3",
        "to": "0x220d1165798ac86bd70d987adfc9e5ff8a317363",
        "gas": "0x115e9",
        "value": "0x0",
        "input": "0x2f2ff15dfd643c72710c63c0180259aba6b2d05451e3591a24e58b62239378085726f783000000000000000000000000fb2401825b89fd36b9de3a4e53c48aa6485509c2",
        "nonce": "0x10",
        "chainId": "0x2105"
      },
      "additionalContracts": [],
      "isFixedGasLimit": false
    },
    {
      "hash": "0x3fba55d51f2dfb1b0d4aaed35d59887c1ecbef33880f44251351159cc4b64d7c",
      "transactionType": "CALL",
      "contractName": "TimelockControllerEnumerable",
      "contractAddress": "0x220d1165798ac86bd70d987adfc9e5ff8a317363",
      "function": "grantRole(bytes32,address)",
      "arguments": [
        "0xfd643c72710c63c0180259aba6b2d05451e3591a24e58b62239378085726f783",
        "0x28fDD01b10ba3Ba489BccC7F9882A5adD4870858"
      ],
      "transaction": {
        "from": "0x7cbb7be250c366ab5458260c9ee8bc7912cd7fe3",
        "to": "0x220d1165798ac86bd70d987adfc9e5ff8a317363",
        "gas": "0x115e9",
        "value": "0x0",
        "input": "0x2f2ff15dfd643c72710c63c0180259aba6b2d05451e3591a24e58b62239378085726f78300000000000000000000000028fdd01b10ba3ba489bccc7f9882a5add4870858",
        "nonce": "0x11",
        "chainId": "0x2105"
      },
      "additionalContracts": [],
      "isFixedGasLimit": false
    },
    {
      "hash": "0xcd7a39aa652c529b74f6abd2fb98ceb07f8ce36076a5bdb0b7a5a0567379c9fb",
      "transactionType": "CALL",
      "contractName": "TimelockControllerEnumerable",
      "contractAddress": "0x220d1165798ac86bd70d987adfc9e5ff8a317363",
      "function": "grantRole(bytes32,address)",
      "arguments": [
        "0xfd643c72710c63c0180259aba6b2d05451e3591a24e58b62239378085726f783",
        "0x7b7Fc289D5a71b58fe320f005bc506873AadCc26"
      ],
      "transaction": {
        "from": "0x7cbb7be250c366ab5458260c9ee8bc7912cd7fe3",
        "to": "0x220d1165798ac86bd70d987adfc9e5ff8a317363",
        "gas": "0x115d8",
        "value": "0x0",
        "input": "0x2f2ff15dfd643c72710c63c0180259aba6b2d05451e3591a24e58b62239378085726f7830000000000000000000000007b7fc289d5a71b58fe320f005bc506873aadcc26",
        "nonce": "0x12",
        "chainId": "0x2105"
      },
      "additionalContracts": [],
      "isFixedGasLimit": false
    },
    {
      "hash": "0x428925bad333d31207d86563fcda7a9c933f1c307fff40f31c18d4fc7f2c55f8",
      "transactionType": "CALL",
      "contractName": "TimelockControllerEnumerable",
      "contractAddress": "0x220d1165798ac86bd70d987adfc9e5ff8a317363",
      "function": "grantRole(bytes32,address)",
      "arguments": [
        "0xfd643c72710c63c0180259aba6b2d05451e3591a24e58b62239378085726f783",
        "0x76fd1fDf1Ea32b0B14E180eD8669673F1F16047c"
      ],
      "transaction": {
        "from": "0x7cbb7be250c366ab5458260c9ee8bc7912cd7fe3",
        "to": "0x220d1165798ac86bd70d987adfc9e5ff8a317363",
        "gas": "0x115e9",
        "value": "0x0",
        "input": "0x2f2ff15dfd643c72710c63c0180259aba6b2d05451e3591a24e58b62239378085726f78300000000000000000000000076fd1fdf1ea32b0b14e180ed8669673f1f16047c",
        "nonce": "0x13",
        "chainId": "0x2105"
      },
      "additionalContracts": [],
      "isFixedGasLimit": false
    },
    {
      "hash": "0xbc56907b7634dfe068fa8332749cfde81d1e82894e885709f2a78cb750a54e24",
      "transactionType": "CALL",
      "contractName": "TimelockControllerEnumerable",
      "contractAddress": "0x220d1165798ac86bd70d987adfc9e5ff8a317363",
      "function": "renounceRole(bytes32,address)",
      "arguments": [
        "0x0000000000000000000000000000000000000000000000000000000000000000",
        "0x7cBb7bE250C366Ab5458260c9ee8bc7912CD7Fe3"
      ],
      "transaction": {
        "from": "0x7cbb7be250c366ab5458260c9ee8bc7912cd7fe3",
        "to": "0x220d1165798ac86bd70d987adfc9e5ff8a317363",
        "gas": "0x8d0c",
        "value": "0x0",
        "input": "0x36568abe00000000000000000000000000000000000000000000000000000000000000000000000000000000000000007cbb7be250c366ab5458260c9ee8bc7912cd7fe3",
        "nonce": "0x14",
        "chainId": "0x2105"
      },
      "additionalContracts": [],
      "isFixedGasLimit": false
    },
    {
      "hash": "0xd1dedb8dd82507f3bd71220037b74251a95328788ef557b2b5a775a07c5faad7",
      "transactionType": "CREATE",
      "contractName": "TimelockControllerEnumerable",
      "contractAddress": "0xcdb5ec52cc326711461f93909d767e31fcff7a1e",
      "function": null,
      "arguments": [
        "86400",
        "[0xa9c62d9E0F2208456E50B208aE2547F36Bc3452d]",
        "[0xa9c62d9E0F2208456E50B208aE2547F36Bc3452d]",
        "0x7cBb7bE250C366Ab5458260c9ee8bc7912CD7Fe3"
      ],
      "transaction": {
        "from": "0x7cbb7be250c366ab5458260c9ee8bc7912cd7fe3",
        "gas": "0x389d17",
        "value": "0x0",
        "input": "0x608060405234801561000f575f80fd5b5060405161333d38038061333d83398101604081905261002e916102fe565b8383838361003c5f30610183565b506001600160a01b03811615610058576100565f82610183565b505b5f5b83518110156100ec576100ac7fb09aa5aeb3702cfd50b6b62bc4532604938f21248a27a1d5ca736082b6819cc18583815181106100995761009961037d565b602002602001015161018360201b60201c565b506100e37ffd643c72710c63c0180259aba6b2d05451e3591a24e58b62239378085726f7838583815181106100995761009961037d565b5060010161005a565b505f5b82518110156101375761012e7fd8aa0f3194971a2a116679f7c2090f6939c8d4e01a2a8d7e41d55e5351469e638483815181106100995761009961037d565b506001016100ef565b506002849055604080515f8152602081018690527f11c24f4ead16507c69ac467fbd5e4eed5fb5c699626d2cc6d66421df253886d5910160405180910390a15050505050505050610391565b5f828152602081815260408083206001600160a01b038516845290915281205460ff16610223575f838152602081815260408083206001600160a01b03861684529091529020805460ff191660011790556101db3390565b6001600160a01b0316826001600160a01b0316847f2f8788117e7eff1d82e926ec794901d17c78024a50270940304540a733656f0d60405160405180910390a4506001610226565b505f5b92915050565b634e487b7160e01b5f52604160045260245ffd5b80516001600160a01b0381168114610256575f80fd5b919050565b5f82601f83011261026a575f80fd5b81516001600160401b038111156102835761028361022c565b604051600582901b90603f8201601f191681016001600160401b03811182821017156102b1576102b161022c565b6040529182526020818501810192908101868411156102ce575f80fd5b6020860192505b838310156102f4576102e683610240565b8152602092830192016102d5565b5095945050505050565b5f805f8060808587031215610311575f80fd5b845160208601519094506001600160401b0381111561032e575f80fd5b61033a8782880161025b565b604087015190945090506001600160401b03811115610357575f80fd5b6103638782880161025b565b92505061037260608601610240565b905092959194509250565b634e487b7160e01b5f52603260045260245ffd5b612f9f8061039e5f395ff3fe60806040526004361061020a575f3560e01c80638065657f11610113578063c4d252f51161009d578063e991f1eb1161006d578063e991f1eb1461067c578063e996914b1461069b578063f23a6e61146106bc578063f27a0c92146106e7578063f4fb6907146106fb575f80fd5b8063c4d252f514610600578063d45c44351461061f578063d547741f1461064a578063e38335e514610669575f80fd5b806391d14854116100e357806391d1485414610551578063a217fddf14610570578063b08e51c014610583578063b1c5f427146105b6578063bc197c81146105d5575f80fd5b80638065657f146104bf5780638b33b4b2146104de5780638f2a0bb0146104ff5780638f61f4f51461051e575f80fd5b80632b4e7c1d116101945780633f602403116101645780633f6024031461040a57806347da73be14610436578063584b153e1461045557806364d62353146104745780637958004c14610493575f80fd5b80632b4e7c1d146103995780632f2ff15d146103ad57806331d50750146103cc57806336568abe146103eb575f80fd5b806313bc9f20116101da57806313bc9f20146102be578063150b7a02146102dd578063248a9ca31461032057806329f527c71461034e5780632ab0f5291461037a575f80fd5b806301d5062a1461021557806301ffc9a71461023657806307bd02651461026a578063134008d3146102ab575f80fd5b3661021157005b5f80fd5b348015610220575f80fd5b5061023461022f3660046122ec565b61070f565b005b348015610241575f80fd5b5061025561025036600461235a565b610818565b60405190151581526020015b60405180910390f35b348015610275575f80fd5b5061029d7fd8aa0f3194971a2a116679f7c2090f6939c8d4e01a2a8d7e41d55e5351469e6381565b604051908152602001610261565b6102346102b9366004612381565b610828565b3480156102c9575f80fd5b506102556102d83660046123e7565b6108da565b3480156102e8575f80fd5b506103076102f73660046124ad565b630a85bd0160e11b949350505050565b6040516001600160e01b03199091168152602001610261565b34801561032b575f80fd5b5061029d61033a3660046123e7565b5f9081526020819052604090206001015490565b348015610359575f80fd5b5061036d6103683660046123e7565b6108ff565b604051610261919061267a565b348015610385575f80fd5b506102556103943660046123e7565b610af6565b3480156103a4575f80fd5b5061029d610afe565b3480156103b8575f80fd5b506102346103c736600461268c565b610b0e565b3480156103d7575f80fd5b506102556103e63660046123e7565b610b38565b3480156103f6575f80fd5b5061023461040536600461268c565b610b5c565b348015610415575f80fd5b506104296104243660046123e7565b610b94565b6040516102619190612710565b348015610441575f80fd5b506104296104503660046123e7565b610cc2565b348015610460575f80fd5b5061025561046f3660046123e7565b610d3e565b34801561047f575f80fd5b5061023461048e3660046123e7565b610d83565b34801561049e575f80fd5b506104b26104ad3660046123e7565b610df1565b6040516102619190612736565b3480156104ca575f80fd5b5061029d6104d9366004612381565b610e3f565b3480156104e9575f80fd5b506104f2610e7d565b604051610261919061275c565b34801561050a575f80fd5b506102346105193660046127ff565b611007565b348015610529575f80fd5b5061029d7fb09aa5aeb3702cfd50b6b62bc4532604938f21248a27a1d5ca736082b6819cc181565b34801561055c575f80fd5b5061025561056b36600461268c565b611158565b34801561057b575f80fd5b5061029d5f81565b34801561058e575f80fd5b5061029d7ffd643c72710c63c0180259aba6b2d05451e3591a24e58b62239378085726f78381565b3480156105c1575f80fd5b5061029d6105d03660046128b1565b611180565b3480156105e0575f80fd5b506103076105ef3660046129e7565b63bc197c8160e01b95945050505050565b34801561060b575f80fd5b5061023461061a3660046123e7565b6111c4565b34801561062a575f80fd5b5061029d6106393660046123e7565b5f9081526001602052604090205490565b348015610655575f80fd5b5061023461066436600461268c565b611298565b6102346106773660046128b1565b6112bc565b348015610687575f80fd5b5061036d6106963660046123e7565b61143d565b3480156106a6575f80fd5b506106af611617565b6040516102619190612a93565b3480156106c7575f80fd5b506103076106d6366004612aea565b63f23a6e6160e01b95945050505050565b3480156106f2575f80fd5b5060025461029d565b348015610706575f80fd5b5061029d611876565b61071e87878787878787611881565b5f61072d888888888888610e3f565b905061073a600382611955565b506040518060c00160405280896001600160a01b0316815260200188815260200187878080601f0160208091040260200160405190810160405280939291908181526020018383808284375f9201829052509385525050506020808301889052604080840188905260609093018690528482526005815290829020835181546001600160a01b0319166001600160a01b039091161781559083015160018201559082015160028201906107ed9082612bba565b50606082015160038201556080820151600482015560a0909101516005909101555050505050505050565b5f61082282611960565b92915050565b7fd8aa0f3194971a2a116679f7c2090f6939c8d4e01a2a8d7e41d55e5351469e63610853815f611158565b610861576108618133611984565b5f610870888888888888610e3f565b905061087c81856119c1565b61088888888888611a31565b5f817fc2617efa69bab66782fa219543714338489c4e9e178271560a91b82c3f612b588a8a8a8a6040516108bf9493929190612c9c565b60405180910390a36108d081611aa5565b5050505050505050565b5f60025b6108e783610df1565b60038111156108f8576108f8612722565b1492915050565b610907612096565b610912600683611ad0565b61093757604051630309e9cd60e21b8152600481018390526024015b60405180910390fd5b5f828152600860209081526040918290208251815460e09381028201840190945260c08101848152909391928492849184018282801561099e57602002820191905f5260205f20905b81546001600160a01b03168152600190910190602001808311610980575b50505050508152602001600182018054806020026020016040519081016040528092919081815260200182805480156109f457602002820191905f5260205f20905b8154815260200190600101908083116109e0575b5050505050815260200160028201805480602002602001604051908101604052809291908181526020015f905b82821015610ac9578382905f5260205f20018054610a3e90612b3d565b80601f0160208091040260200160405190810160405280929190818152602001828054610a6a90612b3d565b8015610ab55780601f10610a8c57610100808354040283529160200191610ab5565b820191905f5260205f20905b815481529060010190602001808311610a9857829003601f168201915b505050505081526020019060010190610a21565b50505050815260200160038201548152602001600482015481526020016005820154815250509050919050565b5f60036108de565b5f610b096003611ae7565b905090565b5f82815260208190526040902060010154610b2881611af0565b610b328383611afa565b50505050565b5f80610b4383610df1565b6003811115610b5457610b54612722565b141592915050565b6001600160a01b0381163314610b855760405163334bd91960e11b815260040160405180910390fd5b610b8f8282611b89565b505050565b610b9c6120cf565b610ba66003611ae7565b8210610bc85760405163360554a160e01b81526004810183905260240161092e565b60055f610bd6600385611bf2565b815260208082019290925260409081015f20815160c08101835281546001600160a01b031681526001820154938101939093526002810180549192840191610c1d90612b3d565b80601f0160208091040260200160405190810160405280929190818152602001828054610c4990612b3d565b8015610c945780601f10610c6b57610100808354040283529160200191610c94565b820191905f5260205f20905b815481529060010190602001808311610c7757829003601f168201915b5050505050815260200160038201548152602001600482015481526020016005820154815250509050919050565b610cca6120cf565b610cd5600383611ad0565b610cf557604051632e6d892f60e11b81526004810183905260240161092e565b5f82815260056020908152604091829020825160c08101845281546001600160a01b031681526001820154928101929092526002810180549293919291840191610c1d90612b3d565b5f80610d4983610df1565b90506001816003811115610d5f57610d5f612722565b1480610d7c57506002816003811115610d7a57610d7a612722565b145b9392505050565b33308114610daf5760405163e2850c5960e01b81526001600160a01b038216600482015260240161092e565b60025460408051918252602082018490527f11c24f4ead16507c69ac467fbd5e4eed5fb5c699626d2cc6d66421df253886d5910160405180910390a150600255565b5f81815260016020526040812054805f03610e0e57505f92915050565b60018103610e1f5750600392915050565b42811115610e305750600192915050565b50600292915050565b50919050565b5f868686868686604051602001610e5b96959493929190612ccd565b6040516020818303038152906040528051906020012090509695505050505050565b60605f610e8a6003611ae7565b9050806001600160401b03811115610ea457610ea46123fe565b604051908082528060200260200182016040528015610edd57816020015b610eca6120cf565b815260200190600190039081610ec25790505b5091505f5b818110156110025760055f610ef8600384611bf2565b815260208082019290925260409081015f20815160c08101835281546001600160a01b031681526001820154938101939093526002810180549192840191610f3f90612b3d565b80601f0160208091040260200160405190810160405280929190818152602001828054610f6b90612b3d565b8015610fb65780601f10610f8d57610100808354040283529160200191610fb6565b820191905f5260205f20905b815481529060010190602001808311610f9957829003601f168201915b505050505081526020016003820154815260200160048201548152602001600582015481525050838281518110610fef57610fef612d09565b6020908102919091010152600101610ee2565b505090565b611018898989898989898989611bfd565b5f6110298a8a8a8a8a8a8a8a611180565b9050611036600682611955565b506040518060c001604052808b8b808060200260200160405190810160405280939291908181526020018383602002808284375f920191909152505050908252506040805160208b810282810182019093528b82529283019290918c918c9182918501908490808284375f920191909152505050908252506020016110bb8789612d1d565b81526020808201879052604080830187905260609092018590525f84815260088252919091208251805191926110f692849290910190612104565b50602082810151805161110f9260018501920190612167565b506040820151805161112b9160028401916020909101906121a0565b50606082015160038201556080820151600482015560a09091015160059091015550505050505050505050565b5f918252602082815260408084206001600160a01b0393909316845291905290205460ff1690565b5f88888888888888886040516020016111a0989796959493929190612e12565b60405160208183030381529060405280519060200120905098975050505050505050565b6111cd81611d89565b6111d8600382611ad0565b15611230576111e8600382611e33565b505f81815260056020526040812080546001600160a01b0319168155600181018290559061121960028301826121f0565b505f60038201819055600482018190556005909101555b61123b600682611ad0565b156112955761124b600682611e33565b505f818152600860205260408120906112648282612227565b611271600183015f612227565b61127e600283015f612242565b505f60038201819055600482018190556005909101555b50565b5f828152602081905260409020600101546112b281611af0565b610b328383611b89565b7fd8aa0f3194971a2a116679f7c2090f6939c8d4e01a2a8d7e41d55e5351469e636112e7815f611158565b6112f5576112f58133611984565b87861415806113045750878414155b15611336576040516001624fcdef60e01b0319815260048101899052602481018590526044810187905260640161092e565b5f6113478a8a8a8a8a8a8a8a611180565b905061135381856119c1565b5f5b89811015611427575f8b8b8381811061137057611370612d09565b90506020020160208101906113859190612eb1565b90505f8a8a8481811061139a5761139a612d09565b905060200201359050365f8a8a868181106113b7576113b7612d09565b90506020028101906113c99190612eca565b915091506113d984848484611a31565b84867fc2617efa69bab66782fa219543714338489c4e9e178271560a91b82c3f612b58868686866040516114109493929190612c9c565b60405180910390a350505050806001019050611355565b5061143181611aa5565b50505050505050505050565b611445612096565b61144f6006611ae7565b8210611470576040516238829960ea1b81526004810183905260240161092e565b60085f61147e600685611bf2565b81526020019081526020015f206040518060c00160405290815f82018054806020026020016040519081016040528092919081815260200182805480156114ec57602002820191905f5260205f20905b81546001600160a01b031681526001909101906020018083116114ce575b505050505081526020016001820180548060200260200160405190810160405280929190818152602001828054801561154257602002820191905f5260205f20905b81548152602001906001019080831161152e575b5050505050815260200160028201805480602002602001604051908101604052809291908181526020015f905b82821015610ac9578382905f5260205f2001805461158c90612b3d565b80601f01602080910402602001604051908101604052809291908181526020018280546115b890612b3d565b80156116035780601f106115da57610100808354040283529160200191611603565b820191905f5260205f20905b8154815290600101906020018083116115e657829003601f168201915b50505050508152602001906001019061156f565b60605f6116246006611ae7565b9050806001600160401b0381111561163e5761163e6123fe565b60405190808252806020026020018201604052801561167757816020015b611664612096565b81526020019060019003908161165c5790505b5091505f5b818110156110025760085f611692600684611bf2565b81526020019081526020015f206040518060c00160405290815f820180548060200260200160405190810160405280929190818152602001828054801561170057602002820191905f5260205f20905b81546001600160a01b031681526001909101906020018083116116e2575b505050505081526020016001820180548060200260200160405190810160405280929190818152602001828054801561175657602002820191905f5260205f20905b815481526020019060010190808311611742575b5050505050815260200160028201805480602002602001604051908101604052809291908181526020015f905b8282101561182b578382905f5260205f200180546117a090612b3d565b80601f01602080910402602001604051908101604052809291908181526020018280546117cc90612b3d565b80156118175780601f106117ee57610100808354040283529160200191611817565b820191905f5260205f20905b8154815290600101906020018083116117fa57829003601f168201915b505050505081526020019060010190611783565b505050508152602001600382015481526020016004820154815260200160058201548152505083828151811061186357611863612d09565b602090810291909101015260010161167c565b5f610b096006611ae7565b7fb09aa5aeb3702cfd50b6b62bc4532604938f21248a27a1d5ca736082b6819cc16118ab81611af0565b5f6118ba898989898989610e3f565b90506118c68184611e3e565b5f817f4cf4410cc57040e44862ef0f45f3dd5a5e02db8eb8add648d4b0e236f1d07dca8b8b8b8b8b8a60405161190196959493929190612ccd565b60405180910390a3831561194a57807f20fda5fd27a1ea7bf5b9567f143ac5470bb059374a27e8f67cb44f946f6d03878560405161194191815260200190565b60405180910390a25b505050505050505050565b5f610d7c8383611ead565b5f6001600160e01b03198216630271189760e51b1480610822575061082282611ef2565b61198e8282611158565b6119bd5760405163e2517d3f60e01b81526001600160a01b03821660048201526024810183905260440161092e565b5050565b6119ca826108da565b6119fb57816119d96002611f26565b604051635ead8eb560e01b81526004810192909252602482015260440161092e565b8015801590611a105750611a0e81610af6565b155b156119bd5760405163121534c360e31b81526004810182905260240161092e565b5f80856001600160a01b0316858585604051611a4e929190612f0c565b5f6040518083038185875af1925050503d805f8114611a88576040519150601f19603f3d011682016040523d82523d5f602084013e611a8d565b606091505b5091509150611a9c8282611f48565b50505050505050565b611aae816108da565b611abd57806119d96002611f26565b5f90815260016020819052604090912055565b5f8181526001830160205260408120541515610d7c565b5f610822825490565b6112958133611984565b5f611b058383611158565b611b82575f838152602081815260408083206001600160a01b03861684529091529020805460ff19166001179055611b3a3390565b6001600160a01b0316826001600160a01b0316847f2f8788117e7eff1d82e926ec794901d17c78024a50270940304540a733656f0d60405160405180910390a4506001610822565b505f610822565b5f611b948383611158565b15611b82575f838152602081815260408083206001600160a01b0386168085529252808320805460ff1916905551339286917ff6391f5c32d9c69d2a47ea670b442974b53935d1edc7fd64eb21e047a839171b9190a4506001610822565b5f610d7c8383611f64565b7fb09aa5aeb3702cfd50b6b62bc4532604938f21248a27a1d5ca736082b6819cc1611c2781611af0565b8887141580611c365750888514155b15611c68576040516001624fcdef60e01b03198152600481018a9052602481018690526044810188905260640161092e565b5f611c798b8b8b8b8b8b8b8b611180565b9050611c858184611e3e565b5f5b8a811015611d3a5780827f4cf4410cc57040e44862ef0f45f3dd5a5e02db8eb8add648d4b0e236f1d07dca8e8e85818110611cc457611cc4612d09565b9050602002016020810190611cd99190612eb1565b8d8d86818110611ceb57611ceb612d09565b905060200201358c8c87818110611d0457611d04612d09565b9050602002810190611d169190612eca565b8c8b604051611d2a96959493929190612ccd565b60405180910390a3600101611c87565b508315611d7c57807f20fda5fd27a1ea7bf5b9567f143ac5470bb059374a27e8f67cb44f946f6d038785604051611d7391815260200190565b60405180910390a25b5050505050505050505050565b7ffd643c72710c63c0180259aba6b2d05451e3591a24e58b62239378085726f783611db381611af0565b611dbc82610d3e565b611df85781611dcb6002611f26565b611dd56001611f26565b604051635ead8eb560e01b8152600481019390935217602482015260440161092e565b5f828152600160205260408082208290555183917fbaa1eb22f2a492ba1a5fea61b8df4d27c6c8b5f3971e63bb58fa14ff72eedb7091a25050565b5f610d7c8383611f8a565b611e4782610b38565b15611e5657816119d95f611f26565b5f611e6060025490565b905080821015611e8d57604051635433660960e01b8152600481018390526024810182905260440161092e565b611e978242612f2f565b5f93845260016020526040909320929092555050565b5f818152600183016020526040812054611b8257508154600181810184555f848152602080822090930184905584548482528286019093526040902091909155610822565b5f6001600160e01b03198216637965db0b60e01b148061082257506301ffc9a760e01b6001600160e01b0319831614610822565b5f816003811115611f3957611f39612722565b600160ff919091161b92915050565b606082611f5d57611f588261206d565b610822565b5080610822565b5f825f018281548110611f7957611f79612d09565b905f5260205f200154905092915050565b5f8181526001830160205260408120548015612064575f611fac600183612f42565b85549091505f90611fbf90600190612f42565b905080821461201e575f865f018281548110611fdd57611fdd612d09565b905f5260205f200154905080875f018481548110611ffd57611ffd612d09565b5f918252602080832090910192909255918252600188019052604090208390555b855486908061202f5761202f612f55565b600190038181905f5260205f20015f90559055856001015f8681526020019081526020015f205f905560019350505050610822565b5f915050610822565b80511561207d5780518082602001fd5b60405163d6bda27560e01b815260040160405180910390fd5b6040518060c001604052806060815260200160608152602001606081526020015f80191681526020015f80191681526020015f81525090565b6040805160c0810182525f8082526020820181905260609282018390529181018290526080810182905260a081019190915290565b828054828255905f5260205f20908101928215612157579160200282015b8281111561215757825182546001600160a01b0319166001600160a01b03909116178255602090920191600190910190612122565b5061216392915061225d565b5090565b828054828255905f5260205f20908101928215612157579160200282015b82811115612157578251825591602001919060010190612185565b828054828255905f5260205f209081019282156121e4579160200282015b828111156121e457825182906121d49082612bba565b50916020019190600101906121be565b50612163929150612271565b5080546121fc90612b3d565b5f825580601f1061220b575050565b601f0160209004905f5260205f2090810190611295919061225d565b5080545f8255905f5260205f2090810190611295919061225d565b5080545f8255905f5260205f20908101906112959190612271565b5b80821115612163575f815560010161225e565b80821115612163575f61228482826121f0565b50600101612271565b80356001600160a01b03811681146122a3575f80fd5b919050565b5f8083601f8401126122b8575f80fd5b5081356001600160401b038111156122ce575f80fd5b6020830191508360208285010111156122e5575f80fd5b9250929050565b5f805f805f805f60c0888a031215612302575f80fd5b61230b8861228d565b96506020880135955060408801356001600160401b0381111561232c575f80fd5b6123388a828b016122a8565b989b979a50986060810135976080820135975060a09091013595509350505050565b5f6020828403121561236a575f80fd5b81356001600160e01b031981168114610d7c575f80fd5b5f805f805f8060a08789031215612396575f80fd5b61239f8761228d565b95506020870135945060408701356001600160401b038111156123c0575f80fd5b6123cc89828a016122a8565b979a9699509760608101359660809091013595509350505050565b5f602082840312156123f7575f80fd5b5035919050565b634e487b7160e01b5f52604160045260245ffd5b604051601f8201601f191681016001600160401b038111828210171561243a5761243a6123fe565b604052919050565b5f82601f830112612451575f80fd5b81356001600160401b0381111561246a5761246a6123fe565b61247d601f8201601f1916602001612412565b818152846020838601011115612491575f80fd5b816020850160208301375f918101602001919091529392505050565b5f805f80608085870312156124c0575f80fd5b6124c98561228d565b93506124d76020860161228d565b92506040850135915060608501356001600160401b038111156124f8575f80fd5b61250487828801612442565b91505092959194509250565b5f8151808452602084019350602083015f5b82811015612540578151865260209586019590910190600101612522565b5093949350505050565b5f81518084528060208401602086015e5f602082860101526020601f19601f83011685010191505092915050565b5f82825180855260208501945060208160051b830101602085015f5b838110156125c657601f198584030188526125b083835161254a565b6020988901989093509190910190600101612594565b50909695505050505050565b805160c080845281519084018190525f9160200190829060e08601905b8083101561261a5783516001600160a01b0316825260209384019360019390930192909101906125ef565b506020850151925085810360208701526126348184612510565b925050506040830151848203604086015261264f8282612578565b915050606083015160608501526080830151608085015260a083015160a08501528091505092915050565b602081525f610d7c60208301846125d2565b5f806040838503121561269d575f80fd5b823591506126ad6020840161228d565b90509250929050565b60018060a01b038151168252602081015160208301525f604082015160c060408501526126e660c085018261254a565b9050606083015160608501526080830151608085015260a083015160a08501528091505092915050565b602081525f610d7c60208301846126b6565b634e487b7160e01b5f52602160045260245ffd5b602081016004831061275657634e487b7160e01b5f52602160045260245ffd5b91905290565b5f602082016020835280845180835260408501915060408160051b8601019250602086015f5b828110156127b357603f1987860301845261279e8583516126b6565b94506020938401939190910190600101612782565b50929695505050505050565b5f8083601f8401126127cf575f80fd5b5081356001600160401b038111156127e5575f80fd5b6020830191508360208260051b85010111156122e5575f80fd5b5f805f805f805f805f60c08a8c031215612817575f80fd5b89356001600160401b0381111561282c575f80fd5b6128388c828d016127bf565b909a5098505060208a01356001600160401b03811115612856575f80fd5b6128628c828d016127bf565b90985096505060408a01356001600160401b03811115612880575f80fd5b61288c8c828d016127bf565b9a9d999c50979a969997986060880135976080810135975060a0013595509350505050565b5f805f805f805f8060a0898b0312156128c8575f80fd5b88356001600160401b038111156128dd575f80fd5b6128e98b828c016127bf565b90995097505060208901356001600160401b03811115612907575f80fd5b6129138b828c016127bf565b90975095505060408901356001600160401b03811115612931575f80fd5b61293d8b828c016127bf565b999c989b509699959896976060870135966080013595509350505050565b5f6001600160401b03821115612973576129736123fe565b5060051b60200190565b5f82601f83011261298c575f80fd5b813561299f61299a8261295b565b612412565b8082825260208201915060208360051b8601019250858311156129c0575f80fd5b602085015b838110156129dd5780358352602092830192016129c5565b5095945050505050565b5f805f805f60a086880312156129fb575f80fd5b612a048661228d565b9450612a126020870161228d565b935060408601356001600160401b03811115612a2c575f80fd5b612a388882890161297d565b93505060608601356001600160401b03811115612a53575f80fd5b612a5f8882890161297d565b92505060808601356001600160401b03811115612a7a575f80fd5b612a8688828901612442565b9150509295509295909350565b5f602082016020835280845180835260408501915060408160051b8601019250602086015f5b828110156127b357603f19878603018452612ad58583516125d2565b94506020938401939190910190600101612ab9565b5f805f805f60a08688031215612afe575f80fd5b612b078661228d565b9450612b156020870161228d565b9350604086013592506060860135915060808601356001600160401b03811115612a7a575f80fd5b600181811c90821680612b5157607f821691505b602082108103610e3957634e487b7160e01b5f52602260045260245ffd5b601f821115610b8f57805f5260205f20601f840160051c81016020851015612b945750805b601f840160051c820191505b81811015612bb3575f8155600101612ba0565b5050505050565b81516001600160401b03811115612bd357612bd36123fe565b612be781612be18454612b3d565b84612b6f565b6020601f821160018114612c19575f8315612c025750848201515b5f19600385901b1c1916600184901b178455612bb3565b5f84815260208120601f198516915b82811015612c485787850151825560209485019460019092019101612c28565b5084821015612c6557868401515f19600387901b60f8161c191681555b50505050600190811b01905550565b81835281816020850137505f828201602090810191909152601f909101601f19169091010190565b60018060a01b0385168152836020820152606060408201525f612cc3606083018486612c74565b9695505050505050565b60018060a01b038716815285602082015260a060408201525f612cf460a083018688612c74565b60608301949094525060800152949350505050565b634e487b7160e01b5f52603260045260245ffd5b5f612d2a61299a8461295b565b8381526020810190600585901b840136811115612d45575f80fd5b845b81811015612d7f5780356001600160401b03811115612d64575f80fd5b612d7036828901612442565b85525060209384019301612d47565b509095945050505050565b5f8383855260208501945060208460051b820101835f5b868110156125c657838303601f19018852813536879003601e19018112612dc6575f80fd5b86016020810190356001600160401b03811115612de1575f80fd5b803603821315612def575f80fd5b612dfa858284612c74565b60209a8b019a90955093909301925050600101612da1565b60a080825281018890525f8960c08301825b8b811015612e52576001600160a01b03612e3d8461228d565b16825260209283019290910190600101612e24565b5083810360208501528881526001600160fb1b03891115612e71575f80fd5b8860051b9150818a60208301370182810360209081016040850152612e999082018789612d8a565b60608401959095525050608001529695505050505050565b5f60208284031215612ec1575f80fd5b610d7c8261228d565b5f808335601e19843603018112612edf575f80fd5b8301803591506001600160401b03821115612ef8575f80fd5b6020019150368190038213156122e5575f80fd5b818382375f9101908152919050565b634e487b7160e01b5f52601160045260245ffd5b8082018082111561082257610822612f1b565b8181038181111561082257610822612f1b565b634e487b7160e01b5f52603160045260245ffdfea26469706673582212200d605c3b959521fdd906e72efa3c4fe43df2bba2d0ce599f58d5d427e1a1672d64736f6c634300081a00330000000000000000000000000000000000000000000000000000000000015180000000000000000000000000000000000000000000000000000000000000008000000000000000000000000000000000000000000000000000000000000000c00000000000000000000000007cbb7be250c366ab5458260c9ee8bc7912cd7fe30000000000000000000000000000000000000000000000000000000000000001000000000000000000000000a9c62d9e0f2208456e50b208ae2547f36bc3452d0000000000000000000000000000000000000000000000000000000000000001000000000000000000000000a9c62d9e0f2208456e50b208ae2547f36bc3452d",
        "nonce": "0x15",
        "chainId": "0x2105"
      },
      "additionalContracts": [],
      "isFixedGasLimit": false
    },
    {
      "hash": "0xb7a9623b4a0a5b5ca3cbb37fb5e9555f8b3163bbec77aba66979f0741cd922ab",
      "transactionType": "CALL",
      "contractName": "TimelockControllerEnumerable",
      "contractAddress": "0xcdb5ec52cc326711461f93909d767e31fcff7a1e",
      "function": "grantRole(bytes32,address)",
      "arguments": [
        "0xfd643c72710c63c0180259aba6b2d05451e3591a24e58b62239378085726f783",
        "0x8CCC19FBf3AB778D27947B01Ba66C113559E2e9F"
      ],
      "transaction": {
        "from": "0x7cbb7be250c366ab5458260c9ee8bc7912cd7fe3",
        "to": "0xcdb5ec52cc326711461f93909d767e31fcff7a1e",
        "gas": "0x115e9",
        "value": "0x0",
        "input": "0x2f2ff15dfd643c72710c63c0180259aba6b2d05451e3591a24e58b62239378085726f7830000000000000000000000008ccc19fbf3ab778d27947b01ba66c113559e2e9f",
        "nonce": "0x16",
        "chainId": "0x2105"
      },
      "additionalContracts": [],
      "isFixedGasLimit": false
    },
    {
      "hash": "0xed4c53b1f439eabbadf9ed7b38b0dd520bd1872bc393084f9770a1fc617dac6f",
      "transactionType": "CALL",
      "contractName": "TimelockControllerEnumerable",
      "contractAddress": "0xcdb5ec52cc326711461f93909d767e31fcff7a1e",
      "function": "grantRole(bytes32,address)",
      "arguments": [
        "0xfd643c72710c63c0180259aba6b2d05451e3591a24e58b62239378085726f783",
        "0xfB2401825B89fd36B9DE3a4E53C48Aa6485509c2"
      ],
      "transaction": {
        "from": "0x7cbb7be250c366ab5458260c9ee8bc7912cd7fe3",
        "to": "0xcdb5ec52cc326711461f93909d767e31fcff7a1e",
        "gas": "0x115e9",
        "value": "0x0",
        "input": "0x2f2ff15dfd643c72710c63c0180259aba6b2d05451e3591a24e58b62239378085726f783000000000000000000000000fb2401825b89fd36b9de3a4e53c48aa6485509c2",
        "nonce": "0x17",
        "chainId": "0x2105"
      },
      "additionalContracts": [],
      "isFixedGasLimit": false
    },
    {
      "hash": "0x42b78f5a77e145cd1718003cd921b212847e335c46174827bca26fc76363f49d",
      "transactionType": "CALL",
      "contractName": "TimelockControllerEnumerable",
      "contractAddress": "0xcdb5ec52cc326711461f93909d767e31fcff7a1e",
      "function": "grantRole(bytes32,address)",
      "arguments": [
        "0xfd643c72710c63c0180259aba6b2d05451e3591a24e58b62239378085726f783",
        "0x28fDD01b10ba3Ba489BccC7F9882A5adD4870858"
      ],
      "transaction": {
        "from": "0x7cbb7be250c366ab5458260c9ee8bc7912cd7fe3",
        "to": "0xcdb5ec52cc326711461f93909d767e31fcff7a1e",
        "gas": "0x115e9",
        "value": "0x0",
        "input": "0x2f2ff15dfd643c72710c63c0180259aba6b2d05451e3591a24e58b62239378085726f78300000000000000000000000028fdd01b10ba3ba489bccc7f9882a5add4870858",
        "nonce": "0x18",
        "chainId": "0x2105"
      },
      "additionalContracts": [],
      "isFixedGasLimit": false
    },
    {
      "hash": "0x838c6d9737aced125c42aaa594e4789cdc893a879c5d470806e3a93c8bd39178",
      "transactionType": "CALL",
      "contractName": "TimelockControllerEnumerable",
      "contractAddress": "0xcdb5ec52cc326711461f93909d767e31fcff7a1e",
      "function": "grantRole(bytes32,address)",
      "arguments": [
        "0xfd643c72710c63c0180259aba6b2d05451e3591a24e58b62239378085726f783",
        "0x7b7Fc289D5a71b58fe320f005bc506873AadCc26"
      ],
      "transaction": {
        "from": "0x7cbb7be250c366ab5458260c9ee8bc7912cd7fe3",
        "to": "0xcdb5ec52cc326711461f93909d767e31fcff7a1e",
        "gas": "0x115d8",
        "value": "0x0",
        "input": "0x2f2ff15dfd643c72710c63c0180259aba6b2d05451e3591a24e58b62239378085726f7830000000000000000000000007b7fc289d5a71b58fe320f005bc506873aadcc26",
        "nonce": "0x19",
        "chainId": "0x2105"
      },
      "additionalContracts": [],
      "isFixedGasLimit": false
    },
    {
      "hash": "0x9871e73a0302f109f6aeef2eb301e97684c76f7a881367110f6fbfdfb9632da4",
      "transactionType": "CALL",
      "contractName": "TimelockControllerEnumerable",
      "contractAddress": "0xcdb5ec52cc326711461f93909d767e31fcff7a1e",
      "function": "grantRole(bytes32,address)",
      "arguments": [
        "0xfd643c72710c63c0180259aba6b2d05451e3591a24e58b62239378085726f783",
        "0x76fd1fDf1Ea32b0B14E180eD8669673F1F16047c"
      ],
      "transaction": {
        "from": "0x7cbb7be250c366ab5458260c9ee8bc7912cd7fe3",
        "to": "0xcdb5ec52cc326711461f93909d767e31fcff7a1e",
        "gas": "0x115e9",
        "value": "0x0",
        "input": "0x2f2ff15dfd643c72710c63c0180259aba6b2d05451e3591a24e58b62239378085726f78300000000000000000000000076fd1fdf1ea32b0b14e180ed8669673f1f16047c",
        "nonce": "0x1a",
        "chainId": "0x2105"
      },
      "additionalContracts": [],
      "isFixedGasLimit": false
    },
    {
      "hash": "0x6d1c75ea654f7281ea58e6b7c0e0001d53c78ee96b8f695152815f203144ae57",
      "transactionType": "CALL",
      "contractName": "TimelockControllerEnumerable",
      "contractAddress": "0xcdb5ec52cc326711461f93909d767e31fcff7a1e",
      "function": "renounceRole(bytes32,address)",
      "arguments": [
        "0x0000000000000000000000000000000000000000000000000000000000000000",
        "0x7cBb7bE250C366Ab5458260c9ee8bc7912CD7Fe3"
      ],
      "transaction": {
        "from": "0x7cbb7be250c366ab5458260c9ee8bc7912cd7fe3",
        "to": "0xcdb5ec52cc326711461f93909d767e31fcff7a1e",
        "gas": "0x8d0c",
        "value": "0x0",
        "input": "0x36568abe00000000000000000000000000000000000000000000000000000000000000000000000000000000000000007cbb7be250c366ab5458260c9ee8bc7912cd7fe3",
        "nonce": "0x1b",
        "chainId": "0x2105"
      },
      "additionalContracts": [],
      "isFixedGasLimit": false
    }
  ],
  "receipts": [
    {
      "status": "0x1",
      "cumulativeGasUsed": "0x26a41d6",
      "logs": [
        {
          "address": "0x220d1165798ac86bd70d987adfc9e5ff8a317363",
          "topics": [
            "0x2f8788117e7eff1d82e926ec794901d17c78024a50270940304540a733656f0d",
            "0x0000000000000000000000000000000000000000000000000000000000000000",
            "0x000000000000000000000000220d1165798ac86bd70d987adfc9e5ff8a317363",
            "0x0000000000000000000000007cbb7be250c366ab5458260c9ee8bc7912cd7fe3"
          ],
          "data": "0x",
          "blockHash": "0xf6092a2e5437179ba4dbb6da4bafcf1c6f7f3e9cbcb59d3b2ce47396c6bc9ec4",
          "blockNumber": "0x217ad06",
          "blockTimestamp": "0x68b9b6ef",
          "transactionHash": "0xfaac7a4d8703793902f78040082b6c9c92b50952a7fb82a121e147c211c53b47",
          "transactionIndex": "0x99",
          "logIndex": "0x34b",
          "removed": false
        },
        {
          "address": "0x220d1165798ac86bd70d987adfc9e5ff8a317363",
          "topics": [
            "0x2f8788117e7eff1d82e926ec794901d17c78024a50270940304540a733656f0d",
            "0x0000000000000000000000000000000000000000000000000000000000000000",
            "0x0000000000000000000000007cbb7be250c366ab5458260c9ee8bc7912cd7fe3",
            "0x0000000000000000000000007cbb7be250c366ab5458260c9ee8bc7912cd7fe3"
          ],
          "data": "0x",
          "blockHash": "0xf6092a2e5437179ba4dbb6da4bafcf1c6f7f3e9cbcb59d3b2ce47396c6bc9ec4",
          "blockNumber": "0x217ad06",
          "blockTimestamp": "0x68b9b6ef",
          "transactionHash": "0xfaac7a4d8703793902f78040082b6c9c92b50952a7fb82a121e147c211c53b47",
          "transactionIndex": "0x99",
          "logIndex": "0x34c",
          "removed": false
        },
        {
          "address": "0x220d1165798ac86bd70d987adfc9e5ff8a317363",
          "topics": [
            "0x2f8788117e7eff1d82e926ec794901d17c78024a50270940304540a733656f0d",
            "0xb09aa5aeb3702cfd50b6b62bc4532604938f21248a27a1d5ca736082b6819cc1",
            "0x000000000000000000000000a9c62d9e0f2208456e50b208ae2547f36bc3452d",
            "0x0000000000000000000000007cbb7be250c366ab5458260c9ee8bc7912cd7fe3"
          ],
          "data": "0x",
          "blockHash": "0xf6092a2e5437179ba4dbb6da4bafcf1c6f7f3e9cbcb59d3b2ce47396c6bc9ec4",
          "blockNumber": "0x217ad06",
          "blockTimestamp": "0x68b9b6ef",
          "transactionHash": "0xfaac7a4d8703793902f78040082b6c9c92b50952a7fb82a121e147c211c53b47",
          "transactionIndex": "0x99",
          "logIndex": "0x34d",
          "removed": false
        },
        {
          "address": "0x220d1165798ac86bd70d987adfc9e5ff8a317363",
          "topics": [
            "0x2f8788117e7eff1d82e926ec794901d17c78024a50270940304540a733656f0d",
            "0xfd643c72710c63c0180259aba6b2d05451e3591a24e58b62239378085726f783",
            "0x000000000000000000000000a9c62d9e0f2208456e50b208ae2547f36bc3452d",
            "0x0000000000000000000000007cbb7be250c366ab5458260c9ee8bc7912cd7fe3"
          ],
          "data": "0x",
          "blockHash": "0xf6092a2e5437179ba4dbb6da4bafcf1c6f7f3e9cbcb59d3b2ce47396c6bc9ec4",
          "blockNumber": "0x217ad06",
          "blockTimestamp": "0x68b9b6ef",
          "transactionHash": "0xfaac7a4d8703793902f78040082b6c9c92b50952a7fb82a121e147c211c53b47",
          "transactionIndex": "0x99",
          "logIndex": "0x34e",
          "removed": false
        },
        {
          "address": "0x220d1165798ac86bd70d987adfc9e5ff8a317363",
          "topics": [
            "0x2f8788117e7eff1d82e926ec794901d17c78024a50270940304540a733656f0d",
            "0xd8aa0f3194971a2a116679f7c2090f6939c8d4e01a2a8d7e41d55e5351469e63",
            "0x000000000000000000000000a9c62d9e0f2208456e50b208ae2547f36bc3452d",
            "0x0000000000000000000000007cbb7be250c366ab5458260c9ee8bc7912cd7fe3"
          ],
          "data": "0x",
          "blockHash": "0xf6092a2e5437179ba4dbb6da4bafcf1c6f7f3e9cbcb59d3b2ce47396c6bc9ec4",
          "blockNumber": "0x217ad06",
          "blockTimestamp": "0x68b9b6ef",
          "transactionHash": "0xfaac7a4d8703793902f78040082b6c9c92b50952a7fb82a121e147c211c53b47",
          "transactionIndex": "0x99",
          "logIndex": "0x34f",
          "removed": false
        },
        {
          "address": "0x220d1165798ac86bd70d987adfc9e5ff8a317363",
          "topics": [
            "0x11c24f4ead16507c69ac467fbd5e4eed5fb5c699626d2cc6d66421df253886d5"
          ],
          "data": "0x00000000000000000000000000000000000000000000000000000000000000000000000000000000000000000000000000000000000000000000000000093a80",
          "blockHash": "0xf6092a2e5437179ba4dbb6da4bafcf1c6f7f3e9cbcb59d3b2ce47396c6bc9ec4",
          "blockNumber": "0x217ad06",
          "blockTimestamp": "0x68b9b6ef",
          "transactionHash": "0xfaac7a4d8703793902f78040082b6c9c92b50952a7fb82a121e147c211c53b47",
          "transactionIndex": "0x99",
          "logIndex": "0x350",
          "removed": false
        }
      ],
      "logsBloom": "0x00000004000010000000000000000000020000000000000000000000000000000000000000000000000000000001000000000000000000000200000010200000000000000000000000000010000000000000800000000000800000000000000000000000020000000000000000000800000000000000000000420000000000000000000000000000040000000000000000000000000000080000000000000000000000080020000000000000000000000000000000000000001000000000000000010000000000006000000000000000000000000004000100000100a00020000000000000000020000000000000000000000000000000100000000000000000",
      "type": "0x2",
      "transactionHash": "0xfaac7a4d8703793902f78040082b6c9c92b50952a7fb82a121e147c211c53b47",
      "transactionIndex": "0x99",
      "blockHash": "0xf6092a2e5437179ba4dbb6da4bafcf1c6f7f3e9cbcb59d3b2ce47396c6bc9ec4",
      "blockNumber": "0x217ad06",
      "gasUsed": "0x2b8c88",
      "effectiveGasPrice": "0x50d225",
      "from": "0x7cbb7be250c366ab5458260c9ee8bc7912cd7fe3",
      "to": null,
      "contractAddress": "0x220d1165798ac86bd70d987adfc9e5ff8a317363",
      "l1BaseFeeScalar": "0x8dd",
      "l1BlobBaseFee": "0x1",
      "l1BlobBaseFeeScalar": "0x101c12",
      "l1Fee": "0x54322bde4f",
      "l1GasPrice": "0x552f0c35",
      "l1GasUsed": "0x1b39c"
    },
    {
      "status": "0x1",
      "cumulativeGasUsed": "0x26b0b0a",
      "logs": [
        {
          "address": "0x220d1165798ac86bd70d987adfc9e5ff8a317363",
          "topics": [
            "0x2f8788117e7eff1d82e926ec794901d17c78024a50270940304540a733656f0d",
            "0xfd643c72710c63c0180259aba6b2d05451e3591a24e58b62239378085726f783",
            "0x0000000000000000000000008ccc19fbf3ab778d27947b01ba66c113559e2e9f",
            "0x0000000000000000000000007cbb7be250c366ab5458260c9ee8bc7912cd7fe3"
          ],
          "data": "0x",
          "blockHash": "0xf6092a2e5437179ba4dbb6da4bafcf1c6f7f3e9cbcb59d3b2ce47396c6bc9ec4",
          "blockNumber": "0x217ad06",
          "blockTimestamp": "0x68b9b6ef",
          "transactionHash": "0x9e91691ffde21edd551417ee2a5bc70d607a3687d33eaf4514612d88938a2c5f",
          "transactionIndex": "0x9a",
          "logIndex": "0x351",
          "removed": false
        }
      ],
      "logsBloom": "0x00000004000000000000000000000000000000000000000000000000000000000000000000000000000000000000000000000000000000000000000000000000000000000000000000000010000000000000000000000000800000000000000000000000000000000000000004000000000000000000000000000000000000000000000000000000040000000000000000000000000000000000000000000000000000080000000000000000000000000000000000000000001000000010000000010000000000000000000000000200000000000004000100000100200000000000000000000000000000000000000000000000000000100000000000000000",
      "type": "0x2",
      "transactionHash": "0x9e91691ffde21edd551417ee2a5bc70d607a3687d33eaf4514612d88938a2c5f",
      "transactionIndex": "0x9a",
      "blockHash": "0xf6092a2e5437179ba4dbb6da4bafcf1c6f7f3e9cbcb59d3b2ce47396c6bc9ec4",
      "blockNumber": "0x217ad06",
      "gasUsed": "0xc934",
      "effectiveGasPrice": "0x50d225",
      "from": "0x7cbb7be250c366ab5458260c9ee8bc7912cd7fe3",
      "to": "0x220d1165798ac86bd70d987adfc9e5ff8a317363",
      "contractAddress": null,
      "l1BaseFeeScalar": "0x8dd",
      "l1BlobBaseFee": "0x1",
      "l1BlobBaseFeeScalar": "0x101c12",
      "l1Fee": "0x1462eb174",
      "l1GasPrice": "0x552f0c35",
      "l1GasUsed": "0x697"
    },
    {
      "status": "0x1",
      "cumulativeGasUsed": "0x26bd43e",
      "logs": [
        {
          "address": "0x220d1165798ac86bd70d987adfc9e5ff8a317363",
          "topics": [
            "0x2f8788117e7eff1d82e926ec794901d17c78024a50270940304540a733656f0d",
            "0xfd643c72710c63c0180259aba6b2d05451e3591a24e58b62239378085726f783",
            "0x000000000000000000000000fb2401825b89fd36b9de3a4e53c48aa6485509c2",
            "0x0000000000000000000000007cbb7be250c366ab5458260c9ee8bc7912cd7fe3"
          ],
          "data": "0x",
          "blockHash": "0xf6092a2e5437179ba4dbb6da4bafcf1c6f7f3e9cbcb59d3b2ce47396c6bc9ec4",
          "blockNumber": "0x217ad06",
          "blockTimestamp": "0x68b9b6ef",
          "transactionHash": "0xb6ddee40911bb5ed36c8785c778750692a4bb81cecdde34d50f3c6cce7fc6737",
          "transactionIndex": "0x9b",
          "logIndex": "0x352",
          "removed": false
        }
      ],
      "logsBloom": "0x00000004000000000000000000000000000000000000000000000000000000000000000000000000000000000000000000000000000000000000000000000000000000000000000000100010000000000000000000000000800000000000000000000000000000000000000000000000000000000000000000000000000000000000000000000000040000000000000000000000000000000000000000000000000000080000000000000000000000000000000000800000001000000000000000010000000000000000000000000000000000000004000100000100200000000000000000000000000000000000000000000000000020100000000000000000",
      "type": "0x2",
      "transactionHash": "0xb6ddee40911bb5ed36c8785c778750692a4bb81cecdde34d50f3c6cce7fc6737",
      "transactionIndex": "0x9b",
      "blockHash": "0xf6092a2e5437179ba4dbb6da4bafcf1c6f7f3e9cbcb59d3b2ce47396c6bc9ec4",
      "blockNumber": "0x217ad06",
      "gasUsed": "0xc934",
      "effectiveGasPrice": "0x50d225",
      "from": "0x7cbb7be250c366ab5458260c9ee8bc7912cd7fe3",
      "to": "0x220d1165798ac86bd70d987adfc9e5ff8a317363",
      "contractAddress": null,
      "l1BaseFeeScalar": "0x8dd",
      "l1BlobBaseFee": "0x1",
      "l1BlobBaseFeeScalar": "0x101c12",
      "l1Fee": "0x1462eb174",
      "l1GasPrice": "0x552f0c35",
      "l1GasUsed": "0x697"
    },
    {
      "status": "0x1",
      "cumulativeGasUsed": "0x26c9d72",
      "logs": [
        {
          "address": "0x220d1165798ac86bd70d987adfc9e5ff8a317363",
          "topics": [
            "0x2f8788117e7eff1d82e926ec794901d17c78024a50270940304540a733656f0d",
            "0xfd643c72710c63c0180259aba6b2d05451e3591a24e58b62239378085726f783",
            "0x00000000000000000000000028fdd01b10ba3ba489bccc7f9882a5add4870858",
            "0x0000000000000000000000007cbb7be250c366ab5458260c9ee8bc7912cd7fe3"
          ],
          "data": "0x",
          "blockHash": "0xf6092a2e5437179ba4dbb6da4bafcf1c6f7f3e9cbcb59d3b2ce47396c6bc9ec4",
          "blockNumber": "0x217ad06",
          "blockTimestamp": "0x68b9b6ef",
          "transactionHash": "0x3fba55d51f2dfb1b0d4aaed35d59887c1ecbef33880f44251351159cc4b64d7c",
          "transactionIndex": "0x9c",
          "logIndex": "0x353",
          "removed": false
        }
      ],
      "logsBloom": "0x00000004000000000000000000000000000000000000000000000080000000000000000000000000000000020000000000000000000000000000000000000000000000000000000000000010000000000000200000000000800000000000000000000000000000000000000000000000000000000000000000000000000000000000000000000000040000000000000000000000000000000000000000000000000000080000000000000000000000000000000000000000001000000000000000010000000000000000000000000000000000000004000100000100200000000000000000000000000000000000000000000000000000100000000000000000",
      "type": "0x2",
      "transactionHash": "0x3fba55d51f2dfb1b0d4aaed35d59887c1ecbef33880f44251351159cc4b64d7c",
      "transactionIndex": "0x9c",
      "blockHash": "0xf6092a2e5437179ba4dbb6da4bafcf1c6f7f3e9cbcb59d3b2ce47396c6bc9ec4",
      "blockNumber": "0x217ad06",
      "gasUsed": "0xc934",
      "effectiveGasPrice": "0x50d225",
      "from": "0x7cbb7be250c366ab5458260c9ee8bc7912cd7fe3",
      "to": "0x220d1165798ac86bd70d987adfc9e5ff8a317363",
      "contractAddress": null,
      "l1BaseFeeScalar": "0x8dd",
      "l1BlobBaseFee": "0x1",
      "l1BlobBaseFeeScalar": "0x101c12",
      "l1Fee": "0x1462eb174",
      "l1GasPrice": "0x552f0c35",
      "l1GasUsed": "0x697"
    },
    {
      "status": "0x1",
      "cumulativeGasUsed": "0x26d669a",
      "logs": [
        {
          "address": "0x220d1165798ac86bd70d987adfc9e5ff8a317363",
          "topics": [
            "0x2f8788117e7eff1d82e926ec794901d17c78024a50270940304540a733656f0d",
            "0xfd643c72710c63c0180259aba6b2d05451e3591a24e58b62239378085726f783",
            "0x0000000000000000000000007b7fc289d5a71b58fe320f005bc506873aadcc26",
            "0x0000000000000000000000007cbb7be250c366ab5458260c9ee8bc7912cd7fe3"
          ],
          "data": "0x",
          "blockHash": "0xf6092a2e5437179ba4dbb6da4bafcf1c6f7f3e9cbcb59d3b2ce47396c6bc9ec4",
          "blockNumber": "0x217ad06",
          "blockTimestamp": "0x68b9b6ef",
          "transactionHash": "0xcd7a39aa652c529b74f6abd2fb98ceb07f8ce36076a5bdb0b7a5a0567379c9fb",
          "transactionIndex": "0x9d",
          "logIndex": "0x354",
          "removed": false
        }
      ],
      "logsBloom": "0x00000004000000000000000000000000002000000000000000000000000000000020000000000000000000000000000000000000000000000000000000000000000000000000000000000010000000000000000000000000800000000000000000000000000000000000000000000000000000000000000000000000000000000000000000000000040000000000000000000000000080000000000000000000000000080000000000000000000000000000000000000000001000000000000000010000000000000000000000000000000000000004000100000100200000000000000000000000000000000000000000000000000000100000000000000000",
      "type": "0x2",
      "transactionHash": "0xcd7a39aa652c529b74f6abd2fb98ceb07f8ce36076a5bdb0b7a5a0567379c9fb",
      "transactionIndex": "0x9d",
      "blockHash": "0xf6092a2e5437179ba4dbb6da4bafcf1c6f7f3e9cbcb59d3b2ce47396c6bc9ec4",
      "blockNumber": "0x217ad06",
      "gasUsed": "0xc928",
      "effectiveGasPrice": "0x50d225",
      "from": "0x7cbb7be250c366ab5458260c9ee8bc7912cd7fe3",
      "to": "0x220d1165798ac86bd70d987adfc9e5ff8a317363",
      "contractAddress": null,
      "l1BaseFeeScalar": "0x8dd",
      "l1BlobBaseFee": "0x1",
      "l1BlobBaseFeeScalar": "0x101c12",
      "l1Fee": "0x1462eb174",
      "l1GasPrice": "0x552f0c35",
      "l1GasUsed": "0x697"
    },
    {
      "status": "0x1",
      "cumulativeGasUsed": "0x26e2fce",
      "logs": [
        {
          "address": "0x220d1165798ac86bd70d987adfc9e5ff8a317363",
          "topics": [
            "0x2f8788117e7eff1d82e926ec794901d17c78024a50270940304540a733656f0d",
            "0xfd643c72710c63c0180259aba6b2d05451e3591a24e58b62239378085726f783",
            "0x00000000000000000000000076fd1fdf1ea32b0b14e180ed8669673f1f16047c",
            "0x0000000000000000000000007cbb7be250c366ab5458260c9ee8bc7912cd7fe3"
          ],
          "data": "0x",
          "blockHash": "0xf6092a2e5437179ba4dbb6da4bafcf1c6f7f3e9cbcb59d3b2ce47396c6bc9ec4",
          "blockNumber": "0x217ad06",
          "blockTimestamp": "0x68b9b6ef",
          "transactionHash": "0x428925bad333d31207d86563fcda7a9c933f1c307fff40f31c18d4fc7f2c55f8",
          "transactionIndex": "0x9e",
          "logIndex": "0x355",
          "removed": false
        }
      ],
      "logsBloom": "0x00000004000000000000000000000000000000000000000000000000000000000000000000000000000000000000000000000000000000010000000000000000000000000000000000000010000000000000000000000000800000000000000000000000000000000000000000000000000000000000000000000000000000000000000000000000040000000000000000000000000000000000000000000000000000080000000000000000000000000000000000000000001000000000000000010000000000000001000000000000000000000004000100000100200000000000000000000000000000000000000000000000000000100000000000040000",
      "type": "0x2",
      "transactionHash": "0x428925bad333d31207d86563fcda7a9c933f1c307fff40f31c18d4fc7f2c55f8",
      "transactionIndex": "0x9e",
      "blockHash": "0xf6092a2e5437179ba4dbb6da4bafcf1c6f7f3e9cbcb59d3b2ce47396c6bc9ec4",
      "blockNumber": "0x217ad06",
      "gasUsed": "0xc934",
      "effectiveGasPrice": "0x50d225",
      "from": "0x7cbb7be250c366ab5458260c9ee8bc7912cd7fe3",
      "to": "0x220d1165798ac86bd70d987adfc9e5ff8a317363",
      "contractAddress": null,
      "l1BaseFeeScalar": "0x8dd",
      "l1BlobBaseFee": "0x1",
      "l1BlobBaseFeeScalar": "0x101c12",
      "l1Fee": "0x1462eb174",
      "l1GasPrice": "0x552f0c35",
      "l1GasUsed": "0x697"
    },
    {
      "status": "0x1",
      "cumulativeGasUsed": "0x26e9040",
      "logs": [
        {
          "address": "0x220d1165798ac86bd70d987adfc9e5ff8a317363",
          "topics": [
            "0xf6391f5c32d9c69d2a47ea670b442974b53935d1edc7fd64eb21e047a839171b",
            "0x0000000000000000000000000000000000000000000000000000000000000000",
            "0x0000000000000000000000007cbb7be250c366ab5458260c9ee8bc7912cd7fe3",
            "0x0000000000000000000000007cbb7be250c366ab5458260c9ee8bc7912cd7fe3"
          ],
          "data": "0x",
          "blockHash": "0xf6092a2e5437179ba4dbb6da4bafcf1c6f7f3e9cbcb59d3b2ce47396c6bc9ec4",
          "blockNumber": "0x217ad06",
          "blockTimestamp": "0x68b9b6ef",
          "transactionHash": "0xbc56907b7634dfe068fa8332749cfde81d1e82894e885709f2a78cb750a54e24",
          "transactionIndex": "0x9f",
          "logIndex": "0x356",
          "removed": false
        }
      ],
      "logsBloom": "0x00000000000000000000000000000000000000000000000000000000000000000000000000000000000000000000000000200000000000000000000000000000000000000000000000000000000000000000000000000000800000000000000040000000020000000000000000000800000000000000000000000000000000000000000040000000040000000000000000000000000000000000000000000000000000080000000000000000000000000000000000000000000000000000000000010000000000000000000000000000000000000004000000000000000020000000000000000000000000000000000000000000000000100000000000000000",
      "type": "0x2",
      "transactionHash": "0xbc56907b7634dfe068fa8332749cfde81d1e82894e885709f2a78cb750a54e24",
      "transactionIndex": "0x9f",
      "blockHash": "0xf6092a2e5437179ba4dbb6da4bafcf1c6f7f3e9cbcb59d3b2ce47396c6bc9ec4",
      "blockNumber": "0x217ad06",
      "gasUsed": "0x6072",
      "effectiveGasPrice": "0x50d225",
      "from": "0x7cbb7be250c366ab5458260c9ee8bc7912cd7fe3",
      "to": "0x220d1165798ac86bd70d987adfc9e5ff8a317363",
      "contractAddress": null,
      "l1BaseFeeScalar": "0x8dd",
      "l1BlobBaseFee": "0x1",
      "l1BlobBaseFeeScalar": "0x101c12",
      "l1Fee": "0x135404eb9",
      "l1GasPrice": "0x552f0c35",
      "l1GasUsed": "0x640"
    },
    {
      "status": "0x1",
      "cumulativeGasUsed": "0x1634e7b",
      "logs": [
        {
          "address": "0xcdb5ec52cc326711461f93909d767e31fcff7a1e",
          "topics": [
            "0x2f8788117e7eff1d82e926ec794901d17c78024a50270940304540a733656f0d",
            "0x0000000000000000000000000000000000000000000000000000000000000000",
            "0x000000000000000000000000cdb5ec52cc326711461f93909d767e31fcff7a1e",
            "0x0000000000000000000000007cbb7be250c366ab5458260c9ee8bc7912cd7fe3"
          ],
          "data": "0x",
          "blockHash": "0x859490861d3b4a1317b5e0c88cbc5ba867d8214236e7bbdeabea95ed703383f1",
          "blockNumber": "0x217ad07",
          "blockTimestamp": "0x68b9b6f1",
          "transactionHash": "0xd1dedb8dd82507f3bd71220037b74251a95328788ef557b2b5a775a07c5faad7",
          "transactionIndex": "0x44",
          "logIndex": "0x1dc",
          "removed": false
        },
        {
          "address": "0xcdb5ec52cc326711461f93909d767e31fcff7a1e",
          "topics": [
            "0x2f8788117e7eff1d82e926ec794901d17c78024a50270940304540a733656f0d",
            "0x0000000000000000000000000000000000000000000000000000000000000000",
            "0x0000000000000000000000007cbb7be250c366ab5458260c9ee8bc7912cd7fe3",
            "0x0000000000000000000000007cbb7be250c366ab5458260c9ee8bc7912cd7fe3"
          ],
          "data": "0x",
          "blockHash": "0x859490861d3b4a1317b5e0c88cbc5ba867d8214236e7bbdeabea95ed703383f1",
          "blockNumber": "0x217ad07",
          "blockTimestamp": "0x68b9b6f1",
          "transactionHash": "0xd1dedb8dd82507f3bd71220037b74251a95328788ef557b2b5a775a07c5faad7",
          "transactionIndex": "0x44",
          "logIndex": "0x1dd",
          "removed": false
        },
        {
          "address": "0xcdb5ec52cc326711461f93909d767e31fcff7a1e",
          "topics": [
            "0x2f8788117e7eff1d82e926ec794901d17c78024a50270940304540a733656f0d",
            "0xb09aa5aeb3702cfd50b6b62bc4532604938f21248a27a1d5ca736082b6819cc1",
            "0x000000000000000000000000a9c62d9e0f2208456e50b208ae2547f36bc3452d",
            "0x0000000000000000000000007cbb7be250c366ab5458260c9ee8bc7912cd7fe3"
          ],
          "data": "0x",
          "blockHash": "0x859490861d3b4a1317b5e0c88cbc5ba867d8214236e7bbdeabea95ed703383f1",
          "blockNumber": "0x217ad07",
          "blockTimestamp": "0x68b9b6f1",
          "transactionHash": "0xd1dedb8dd82507f3bd71220037b74251a95328788ef557b2b5a775a07c5faad7",
          "transactionIndex": "0x44",
          "logIndex": "0x1de",
          "removed": false
        },
        {
          "address": "0xcdb5ec52cc326711461f93909d767e31fcff7a1e",
          "topics": [
            "0x2f8788117e7eff1d82e926ec794901d17c78024a50270940304540a733656f0d",
            "0xfd643c72710c63c0180259aba6b2d05451e3591a24e58b62239378085726f783",
            "0x000000000000000000000000a9c62d9e0f2208456e50b208ae2547f36bc3452d",
            "0x0000000000000000000000007cbb7be250c366ab5458260c9ee8bc7912cd7fe3"
          ],
          "data": "0x",
          "blockHash": "0x859490861d3b4a1317b5e0c88cbc5ba867d8214236e7bbdeabea95ed703383f1",
          "blockNumber": "0x217ad07",
          "blockTimestamp": "0x68b9b6f1",
          "transactionHash": "0xd1dedb8dd82507f3bd71220037b74251a95328788ef557b2b5a775a07c5faad7",
          "transactionIndex": "0x44",
          "logIndex": "0x1df",
          "removed": false
        },
        {
          "address": "0xcdb5ec52cc326711461f93909d767e31fcff7a1e",
          "topics": [
            "0x2f8788117e7eff1d82e926ec794901d17c78024a50270940304540a733656f0d",
            "0xd8aa0f3194971a2a116679f7c2090f6939c8d4e01a2a8d7e41d55e5351469e63",
            "0x000000000000000000000000a9c62d9e0f2208456e50b208ae2547f36bc3452d",
            "0x0000000000000000000000007cbb7be250c366ab5458260c9ee8bc7912cd7fe3"
          ],
          "data": "0x",
          "blockHash": "0x859490861d3b4a1317b5e0c88cbc5ba867d8214236e7bbdeabea95ed703383f1",
          "blockNumber": "0x217ad07",
          "blockTimestamp": "0x68b9b6f1",
          "transactionHash": "0xd1dedb8dd82507f3bd71220037b74251a95328788ef557b2b5a775a07c5faad7",
          "transactionIndex": "0x44",
          "logIndex": "0x1e0",
          "removed": false
        },
        {
          "address": "0xcdb5ec52cc326711461f93909d767e31fcff7a1e",
          "topics": [
            "0x11c24f4ead16507c69ac467fbd5e4eed5fb5c699626d2cc6d66421df253886d5"
          ],
          "data": "0x00000000000000000000000000000000000000000000000000000000000000000000000000000000000000000000000000000000000000000000000000015180",
          "blockHash": "0x859490861d3b4a1317b5e0c88cbc5ba867d8214236e7bbdeabea95ed703383f1",
          "blockNumber": "0x217ad07",
          "blockTimestamp": "0x68b9b6f1",
          "transactionHash": "0xd1dedb8dd82507f3bd71220037b74251a95328788ef557b2b5a775a07c5faad7",
          "transactionIndex": "0x44",
          "logIndex": "0x1e1",
          "removed": false
        }
      ],
      "logsBloom": "0x000000040000000000000000000000000200000000000000000000000000000000000000000000000000000000010000000000000000000002100000102000000000000000000000000000100000000000008000000008000000000000000000000000000200000000000000000008000000000000000000000200000000000200000000000000000400000000000000000000000000000800000000000000000000000800200000000000000000000000000000000000000010000000000000000000000000000060000000000000000000000000040001000001002000200000000000000000a0000000000000000000000400200000000000000000000000",
      "type": "0x2",
      "transactionHash": "0xd1dedb8dd82507f3bd71220037b74251a95328788ef557b2b5a775a07c5faad7",
      "transactionIndex": "0x44",
      "blockHash": "0x859490861d3b4a1317b5e0c88cbc5ba867d8214236e7bbdeabea95ed703383f1",
      "blockNumber": "0x217ad07",
      "gasUsed": "0x2b8c88",
      "effectiveGasPrice": "0x50adb0",
      "from": "0x7cbb7be250c366ab5458260c9ee8bc7912cd7fe3",
      "to": null,
      "contractAddress": "0xcdb5ec52cc326711461f93909d767e31fcff7a1e",
      "l1BaseFeeScalar": "0x8dd",
      "l1BlobBaseFee": "0x1",
      "l1BlobBaseFeeScalar": "0x101c12",
      "l1Fee": "0x542cff61f2",
      "l1GasPrice": "0x552f0c35",
      "l1GasUsed": "0x1b381"
    },
    {
      "status": "0x1",
      "cumulativeGasUsed": "0x16417af",
      "logs": [
        {
          "address": "0xcdb5ec52cc326711461f93909d767e31fcff7a1e",
          "topics": [
            "0x2f8788117e7eff1d82e926ec794901d17c78024a50270940304540a733656f0d",
            "0xfd643c72710c63c0180259aba6b2d05451e3591a24e58b62239378085726f783",
            "0x0000000000000000000000008ccc19fbf3ab778d27947b01ba66c113559e2e9f",
            "0x0000000000000000000000007cbb7be250c366ab5458260c9ee8bc7912cd7fe3"
          ],
          "data": "0x",
          "blockHash": "0x859490861d3b4a1317b5e0c88cbc5ba867d8214236e7bbdeabea95ed703383f1",
          "blockNumber": "0x217ad07",
          "blockTimestamp": "0x68b9b6f1",
          "transactionHash": "0xb7a9623b4a0a5b5ca3cbb37fb5e9555f8b3163bbec77aba66979f0741cd922ab",
          "transactionIndex": "0x45",
          "logIndex": "0x1e2",
          "removed": false
        }
      ],
      "logsBloom": "0x00000004000000000000000000000000000000000000000000000000000000000000000000000000000000000000000000000000000000000000000000000000000000000000000000000010000000000000000000000800000000000000000000000000000000000000000004000000000000000000000000000000000000020000000000000000040000000000000000000000000000000000000000000000000000080000000000000000000000000000000000000000001000000010000000000000000000000000000000000200000000000004000100000100200000000000000000000080000000000000000000000000000000000000000000000000",
      "type": "0x2",
      "transactionHash": "0xb7a9623b4a0a5b5ca3cbb37fb5e9555f8b3163bbec77aba66979f0741cd922ab",
      "transactionIndex": "0x45",
      "blockHash": "0x859490861d3b4a1317b5e0c88cbc5ba867d8214236e7bbdeabea95ed703383f1",
      "blockNumber": "0x217ad07",
      "gasUsed": "0xc934",
      "effectiveGasPrice": "0x50adb0",
      "from": "0x7cbb7be250c366ab5458260c9ee8bc7912cd7fe3",
      "to": "0xcdb5ec52cc326711461f93909d767e31fcff7a1e",
      "contractAddress": null,
      "l1BaseFeeScalar": "0x8dd",
      "l1BlobBaseFee": "0x1",
      "l1BlobBaseFeeScalar": "0x101c12",
      "l1Fee": "0x1462eb174",
      "l1GasPrice": "0x552f0c35",
      "l1GasUsed": "0x697"
    },
    {
      "status": "0x1",
      "cumulativeGasUsed": "0x164e0e3",
      "logs": [
        {
          "address": "0xcdb5ec52cc326711461f93909d767e31fcff7a1e",
          "topics": [
            "0x2f8788117e7eff1d82e926ec794901d17c78024a50270940304540a733656f0d",
            "0xfd643c72710c63c0180259aba6b2d05451e3591a24e58b62239378085726f783",
            "0x000000000000000000000000fb2401825b89fd36b9de3a4e53c48aa6485509c2",
            "0x0000000000000000000000007cbb7be250c366ab5458260c9ee8bc7912cd7fe3"
          ],
          "data": "0x",
          "blockHash": "0x859490861d3b4a1317b5e0c88cbc5ba867d8214236e7bbdeabea95ed703383f1",
          "blockNumber": "0x217ad07",
          "blockTimestamp": "0x68b9b6f1",
          "transactionHash": "0xed4c53b1f439eabbadf9ed7b38b0dd520bd1872bc393084f9770a1fc617dac6f",
          "transactionIndex": "0x46",
          "logIndex": "0x1e3",
          "removed": false
        }
      ],
      "logsBloom": "0x00000004000000000000000000000000000000000000000000000000000000000000000000000000000000000000000000000000000000000000000000000000000000000000000000100010000000000000000000000800000000000000000000000000000000000000000000000000000000000000000000000000000000020000000000000000040000000000000000000000000000000000000000000000000000080000000000000000000000000000000000800000001000000000000000000000000000000000000000000000000000000004000100000100200000000000000000000080000000000000000000000000000020000000000000000000",
      "type": "0x2",
      "transactionHash": "0xed4c53b1f439eabbadf9ed7b38b0dd520bd1872bc393084f9770a1fc617dac6f",
      "transactionIndex": "0x46",
      "blockHash": "0x859490861d3b4a1317b5e0c88cbc5ba867d8214236e7bbdeabea95ed703383f1",
      "blockNumber": "0x217ad07",
      "gasUsed": "0xc934",
      "effectiveGasPrice": "0x50adb0",
      "from": "0x7cbb7be250c366ab5458260c9ee8bc7912cd7fe3",
      "to": "0xcdb5ec52cc326711461f93909d767e31fcff7a1e",
      "contractAddress": null,
      "l1BaseFeeScalar": "0x8dd",
      "l1BlobBaseFee": "0x1",
      "l1BlobBaseFeeScalar": "0x101c12",
      "l1Fee": "0x1462eb174",
      "l1GasPrice": "0x552f0c35",
      "l1GasUsed": "0x697"
    },
    {
      "status": "0x1",
      "cumulativeGasUsed": "0x165aa17",
      "logs": [
        {
          "address": "0xcdb5ec52cc326711461f93909d767e31fcff7a1e",
          "topics": [
            "0x2f8788117e7eff1d82e926ec794901d17c78024a50270940304540a733656f0d",
            "0xfd643c72710c63c0180259aba6b2d05451e3591a24e58b62239378085726f783",
            "0x00000000000000000000000028fdd01b10ba3ba489bccc7f9882a5add4870858",
            "0x0000000000000000000000007cbb7be250c366ab5458260c9ee8bc7912cd7fe3"
          ],
          "data": "0x",
          "blockHash": "0x3cc458c8fb29b7594fb2a7f47d712198e5e8cd295e1fba05fcaeabeb6e6e3a9f",
          "blockNumber": "0x217ad07",
          "blockTimestamp": "0x68b9b6f1",
          "transactionHash": "0x42b78f5a77e145cd1718003cd921b212847e335c46174827bca26fc76363f49d",
          "transactionIndex": "0x47",
          "logIndex": "0x1e4",
          "removed": false
        }
      ],
      "logsBloom": "0x00000004000000000000000000000000000000000000000000000080000000000000000000000000000000020000000000000000000000000000000000000000000000000000000000000010000000000000200000000800000000000000000000000000000000000000000000000000000000000000000000000000000000020000000000000000040000000000000000000000000000000000000000000000000000080000000000000000000000000000000000000000001000000000000000000000000000000000000000000000000000000004000100000100200000000000000000000080000000000000000000000000000000000000000000000000",
      "type": "0x2",
      "transactionHash": "0x42b78f5a77e145cd1718003cd921b212847e335c46174827bca26fc76363f49d",
      "transactionIndex": "0x47",
      "blockHash": "0x3cc458c8fb29b7594fb2a7f47d712198e5e8cd295e1fba05fcaeabeb6e6e3a9f",
      "blockNumber": "0x217ad07",
      "gasUsed": "0xc934",
      "effectiveGasPrice": "0x50adb0",
      "from": "0x7cbb7be250c366ab5458260c9ee8bc7912cd7fe3",
      "to": "0xcdb5ec52cc326711461f93909d767e31fcff7a1e",
      "contractAddress": null,
      "l1BaseFeeScalar": "0x8dd",
      "l1BlobBaseFee": "0x1",
      "l1BlobBaseFeeScalar": "0x101c12",
      "l1Fee": "0x1462eb174",
      "l1GasPrice": "0x552f0c35",
      "l1GasUsed": "0x697"
    },
    {
      "status": "0x1",
      "cumulativeGasUsed": "0x166733f",
      "logs": [
        {
          "address": "0xcdb5ec52cc326711461f93909d767e31fcff7a1e",
          "topics": [
            "0x2f8788117e7eff1d82e926ec794901d17c78024a50270940304540a733656f0d",
            "0xfd643c72710c63c0180259aba6b2d05451e3591a24e58b62239378085726f783",
            "0x0000000000000000000000007b7fc289d5a71b58fe320f005bc506873aadcc26",
            "0x0000000000000000000000007cbb7be250c366ab5458260c9ee8bc7912cd7fe3"
          ],
          "data": "0x",
          "blockHash": "0x3cc458c8fb29b7594fb2a7f47d712198e5e8cd295e1fba05fcaeabeb6e6e3a9f",
          "blockNumber": "0x217ad07",
          "blockTimestamp": "0x68b9b6f1",
          "transactionHash": "0x838c6d9737aced125c42aaa594e4789cdc893a879c5d470806e3a93c8bd39178",
          "transactionIndex": "0x48",
          "logIndex": "0x1e5",
          "removed": false
        }
      ],
      "logsBloom": "0x00000004000000000000000000000000002000000000000000000000000000000020000000000000000000000000000000000000000000000000000000000000000000000000000000000010000000000000000000000800000000000000000000000000000000000000000000000000000000000000000000000000000000020000000000000000040000000000000000000000000080000000000000000000000000080000000000000000000000000000000000000000001000000000000000000000000000000000000000000000000000000004000100000100200000000000000000000080000000000000000000000000000000000000000000000000",
      "type": "0x2",
      "transactionHash": "0x838c6d9737aced125c42aaa594e4789cdc893a879c5d470806e3a93c8bd39178",
      "transactionIndex": "0x48",
      "blockHash": "0x3cc458c8fb29b7594fb2a7f47d712198e5e8cd295e1fba05fcaeabeb6e6e3a9f",
      "blockNumber": "0x217ad07",
      "gasUsed": "0xc928",
      "effectiveGasPrice": "0x50adb0",
      "from": "0x7cbb7be250c366ab5458260c9ee8bc7912cd7fe3",
      "to": "0xcdb5ec52cc326711461f93909d767e31fcff7a1e",
      "contractAddress": null,
      "l1BaseFeeScalar": "0x8dd",
      "l1BlobBaseFee": "0x1",
      "l1BlobBaseFeeScalar": "0x101c12",
      "l1Fee": "0x1462eb174",
      "l1GasPrice": "0x552f0c35",
      "l1GasUsed": "0x697"
    },
    {
      "status": "0x1",
      "cumulativeGasUsed": "0x1673c73",
      "logs": [
        {
          "address": "0xcdb5ec52cc326711461f93909d767e31fcff7a1e",
          "topics": [
            "0x2f8788117e7eff1d82e926ec794901d17c78024a50270940304540a733656f0d",
            "0xfd643c72710c63c0180259aba6b2d05451e3591a24e58b62239378085726f783",
            "0x00000000000000000000000076fd1fdf1ea32b0b14e180ed8669673f1f16047c",
            "0x0000000000000000000000007cbb7be250c366ab5458260c9ee8bc7912cd7fe3"
          ],
          "data": "0x",
          "blockHash": "0x3cc458c8fb29b7594fb2a7f47d712198e5e8cd295e1fba05fcaeabeb6e6e3a9f",
          "blockNumber": "0x217ad07",
          "blockTimestamp": "0x68b9b6f1",
          "transactionHash": "0x9871e73a0302f109f6aeef2eb301e97684c76f7a881367110f6fbfdfb9632da4",
          "transactionIndex": "0x49",
          "logIndex": "0x1e6",
          "removed": false
        }
      ],
      "logsBloom": "0x00000004000000000000000000000000000000000000000000000000000000000000000000000000000000000000000000000000000000010000000000000000000000000000000000000010000000000000000000000800000000000000000000000000000000000000000000000000000000000000000000000000000000020000000000000000040000000000000000000000000000000000000000000000000000080000000000000000000000000000000000000000001000000000000000000000000000000001000000000000000000000004000100000100200000000000000000000080000000000000000000000000000000000000000000040000",
      "type": "0x2",
      "transactionHash": "0x9871e73a0302f109f6aeef2eb301e97684c76f7a881367110f6fbfdfb9632da4",
      "transactionIndex": "0x49",
      "blockHash": "0x3cc458c8fb29b7594fb2a7f47d712198e5e8cd295e1fba05fcaeabeb6e6e3a9f",
      "blockNumber": "0x217ad07",
      "gasUsed": "0xc934",
      "effectiveGasPrice": "0x50adb0",
      "from": "0x7cbb7be250c366ab5458260c9ee8bc7912cd7fe3",
      "to": "0xcdb5ec52cc326711461f93909d767e31fcff7a1e",
      "contractAddress": null,
      "l1BaseFeeScalar": "0x8dd",
      "l1BlobBaseFee": "0x1",
      "l1BlobBaseFeeScalar": "0x101c12",
      "l1Fee": "0x1462eb174",
      "l1GasPrice": "0x552f0c35",
      "l1GasUsed": "0x697"
    },
    {
      "status": "0x1",
      "cumulativeGasUsed": "0x1679ce5",
      "logs": [
        {
          "address": "0xcdb5ec52cc326711461f93909d767e31fcff7a1e",
          "topics": [
            "0xf6391f5c32d9c69d2a47ea670b442974b53935d1edc7fd64eb21e047a839171b",
            "0x0000000000000000000000000000000000000000000000000000000000000000",
            "0x0000000000000000000000007cbb7be250c366ab5458260c9ee8bc7912cd7fe3",
            "0x0000000000000000000000007cbb7be250c366ab5458260c9ee8bc7912cd7fe3"
          ],
          "data": "0x",
          "blockHash": "0x3cc458c8fb29b7594fb2a7f47d712198e5e8cd295e1fba05fcaeabeb6e6e3a9f",
          "blockNumber": "0x217ad07",
          "blockTimestamp": "0x68b9b6f1",
          "transactionHash": "0x6d1c75ea654f7281ea58e6b7c0e0001d53c78ee96b8f695152815f203144ae57",
          "transactionIndex": "0x4a",
          "logIndex": "0x1e7",
          "removed": false
        }
      ],
      "logsBloom": "0x00000000000000000000000000000000000000000000000000000000000000000000000000000000000000000000000000200000000000000000000000000000000000000000000000000000000000000000000000000800000000000000000040000000020000000000000000000800000000000000000000000000000000020000000040000000040000000000000000000000000000000000000000000000000000080000000000000000000000000000000000000000000000000000000000000000000000000000000000000000000000000004000000000000000020000000000000000080000000000000000000000000000000000000000000000000",
      "type": "0x2",
      "transactionHash": "0x6d1c75ea654f7281ea58e6b7c0e0001d53c78ee96b8f695152815f203144ae57",
      "transactionIndex": "0x4a",
      "blockHash": "0x3cc458c8fb29b7594fb2a7f47d712198e5e8cd295e1fba05fcaeabeb6e6e3a9f",
      "blockNumber": "0x217ad07",
      "gasUsed": "0x6072",
      "effectiveGasPrice": "0x50adb0",
      "from": "0x7cbb7be250c366ab5458260c9ee8bc7912cd7fe3",
      "to": "0xcdb5ec52cc326711461f93909d767e31fcff7a1e",
      "contractAddress": null,
      "l1BaseFeeScalar": "0x8dd",
      "l1BlobBaseFee": "0x1",
      "l1BlobBaseFeeScalar": "0x101c12",
      "l1Fee": "0x135404eb9",
      "l1GasPrice": "0x552f0c35",
      "l1GasUsed": "0x640"
    }
  ],
  "libraries": [],
  "pending": [],
  "returns": {},
  "timestamp": 1757001493870,
  "chain": 8453,
  "commit": "ce5c521"
}